{"contracts/DuxxanPlatform.sol":{"DuxxanPlatformSimple":{"abi":[{"inputs":[{"internalType":"address","name":"_usdtToken","type":"address"},{"internalType":"address","name":"_commissionWallet","type":"address"}],"stateMutability":"nonpayable","type":"constructor"},{"inputs":[{"internalType":"address","name":"owner","type":"address"}],"name":"OwnableInvalidOwner","type":"error"},{"inputs":[{"internalType":"address","name":"account","type":"address"}],"name":"OwnableUnauthorizedAccount","type":"error"},{"inputs":[],"name":"ReentrancyGuardReentrantCall","type":"error"},{"anonymous":false,"inputs":[{"indexed":true,"internalType":"uint256","name":"donationId","type":"uint256"},{"indexed":true,"internalType":"address","name":"creator","type":"address"},{"indexed":false,"internalType":"uint256","name":"goalAmount","type":"uint256"}],"name":"DonationCreated","type":"event"},{"anonymous":false,"inputs":[{"indexed":true,"internalType":"uint256","name":"donationId","type":"uint256"},{"indexed":true,"internalType":"address","name":"donor","type":"address"},{"indexed":false,"internalType":"uint256","name":"amount","type":"uint256"}],"name":"DonationMade","type":"event"},{"anonymous":false,"inputs":[{"indexed":true,"internalType":"address","name":"previousOwner","type":"address"},{"indexed":true,"internalType":"address","name":"newOwner","type":"address"}],"name":"OwnershipTransferred","type":"event"},{"anonymous":false,"inputs":[{"indexed":true,"internalType":"uint256","name":"raffleId","type":"uint256"},{"indexed":true,"internalType":"address","name":"winner","type":"address"},{"indexed":false,"internalType":"uint256","name":"amount","type":"uint256"}],"name":"PayoutReleased","type":"event"},{"anonymous":false,"inputs":[{"indexed":true,"internalType":"uint256","name":"raffleId","type":"uint256"},{"indexed":true,"internalType":"address","name":"creator","type":"address"},{"indexed":false,"internalType":"uint256","name":"prizeAmount","type":"uint256"},{"indexed":false,"internalType":"enum DuxxanPlatformSimple.PrizeType","name":"prizeType","type":"uint8"}],"name":"RaffleCreated","type":"event"},{"anonymous":false,"inputs":[{"indexed":true,"internalType":"uint256","name":"raffleId","type":"uint256"},{"indexed":true,"internalType":"address","name":"winner","type":"address"},{"indexed":false,"internalType":"uint256","name":"prizeAmount","type":"uint256"}],"name":"RaffleEnded","type":"event"},{"anonymous":false,"inputs":[{"indexed":true,"internalType":"uint256","name":"raffleId","type":"uint256"},{"indexed":true,"internalType":"address","name":"buyer","type":"address"},{"indexed":false,"internalType":"uint256","name":"quantity","type":"uint256"}],"name":"TicketPurchased","type":"event"},{"inputs":[],"name":"CREATOR_SHARE","outputs":[{"internalType":"uint256","name":"","type":"uint256"}],"stateMutability":"view","type":"function"},{"inputs":[],"name":"DONATION_COMMISSION_RATE","outputs":[{"internalType":"uint256","name":"","type":"uint256"}],"stateMutability":"view","type":"function"},{"inputs":[],"name":"DONATION_CREATION_FEE","outputs":[{"internalType":"uint256","name":"","type":"uint256"}],"stateMutability":"view","type":"function"},{"inputs":[],"name":"PLATFORM_SHARE","outputs":[{"internalType":"uint256","name":"","type":"uint256"}],"stateMutability":"view","type":"function"},{"inputs":[],"name":"RAFFLE_COMMISSION_RATE","outputs":[{"internalType":"uint256","name":"","type":"uint256"}],"stateMutability":"view","type":"function"},{"inputs":[],"name":"RAFFLE_CREATION_FEE","outputs":[{"internalType":"uint256","name":"","type":"uint256"}],"stateMutability":"view","type":"function"},{"inputs":[],"name":"USDT","outputs":[{"internalType":"contract IERC20","name":"","type":"address"}],"stateMutability":"view","type":"function"},{"inputs":[{"internalType":"uint256","name":"_raffleId","type":"uint256"},{"internalType":"bool","name":"_approve","type":"bool"}],"name":"approveRaffleResult","outputs":[],"stateMutability":"nonpayable","type":"function"},{"inputs":[{"internalType":"uint256","name":"_raffleId","type":"uint256"},{"internalType":"uint256","name":"_quantity","type":"uint256"}],"name":"buyTickets","outputs":[],"stateMutability":"nonpayable","type":"function"},{"inputs":[],"name":"commissionWallet","outputs":[{"internalType":"address","name":"","type":"address"}],"stateMutability":"view","type":"function"},{"inputs":[{"internalType":"string","name":"_title","type":"string"},{"internalType":"string","name":"_description","type":"string"},{"internalType":"uint256","name":"_goalAmount","type":"uint256"},{"internalType":"uint256","name":"_duration","type":"uint256"},{"internalType":"bool","name":"_isUnlimited","type":"bool"}],"name":"createDonation","outputs":[],"stateMutability":"nonpayable","type":"function"},{"inputs":[{"internalType":"string","name":"_title","type":"string"},{"internalType":"string","name":"_description","type":"string"},{"internalType":"uint256","name":"_prizeAmount","type":"uint256"},{"internalType":"uint256","name":"_ticketPrice","type":"uint256"},{"internalType":"uint256","name":"_maxTickets","type":"uint256"},{"internalType":"uint256","name":"_duration","type":"uint256"},{"internalType":"enum DuxxanPlatformSimple.PrizeType","name":"_prizeType","type":"uint8"}],"name":"createRaffle","outputs":[],"stateMutability":"nonpayable","type":"function"},{"inputs":[],"name":"deployWallet","outputs":[{"internalType":"address","name":"","type":"address"}],"stateMutability":"view","type":"function"},{"inputs":[{"internalType":"uint256","name":"","type":"uint256"},{"internalType":"address","name":"","type":"address"}],"name":"donationContributions","outputs":[{"internalType":"uint256","name":"","type":"uint256"}],"stateMutability":"view","type":"function"},{"inputs":[],"name":"donationCounter","outputs":[{"internalType":"uint256","name":"","type":"uint256"}],"stateMutability":"view","type":"function"},{"inputs":[{"internalType":"uint256","name":"","type":"uint256"}],"name":"donations","outputs":[{"internalType":"uint256","name":"id","type":"uint256"},{"internalType":"address","name":"creator","type":"address"},{"internalType":"string","name":"title","type":"string"},{"internalType":"string","name":"description","type":"string"},{"internalType":"uint256","name":"goalAmount","type":"uint256"},{"internalType":"uint256","name":"currentAmount","type":"uint256"},{"internalType":"uint256","name":"endTime","type":"uint256"},{"internalType":"bool","name":"isActive","type":"bool"},{"internalType":"bool","name":"isUnlimited","type":"bool"}],"stateMutability":"view","type":"function"},{"inputs":[{"internalType":"address","name":"_token","type":"address"},{"internalType":"uint256","name":"_amount","type":"uint256"}],"name":"emergencyWithdraw","outputs":[],"stateMutability":"nonpayable","type":"function"},{"inputs":[{"internalType":"uint256","name":"_raffleId","type":"uint256"}],"name":"endRaffle","outputs":[],"stateMutability":"nonpayable","type":"function"},{"inputs":[{"internalType":"uint256","name":"_donationId","type":"uint256"},{"internalType":"uint256","name":"_amount","type":"uint256"}],"name":"makeDonation","outputs":[],"stateMutability":"nonpayable","type":"function"},{"inputs":[],"name":"owner","outputs":[{"internalType":"address","name":"","type":"address"}],"stateMutability":"view","type":"function"},{"inputs":[],"name":"raffleCounter","outputs":[{"internalType":"uint256","name":"","type":"uint256"}],"stateMutability":"view","type":"function"},{"inputs":[{"internalType":"uint256","name":"","type":"uint256"},{"internalType":"address","name":"","type":"address"}],"name":"raffleTickets","outputs":[{"internalType":"uint256","name":"","type":"uint256"}],"stateMutability":"view","type":"function"},{"inputs":[{"internalType":"uint256","name":"","type":"uint256"}],"name":"raffles","outputs":[{"internalType":"uint256","name":"id","type":"uint256"},{"internalType":"address","name":"creator","type":"address"},{"internalType":"string","name":"title","type":"string"},{"internalType":"string","name":"description","type":"string"},{"internalType":"uint256","name":"prizeAmount","type":"uint256"},{"internalType":"uint256","name":"ticketPrice","type":"uint256"},{"internalType":"uint256","name":"maxTickets","type":"uint256"},{"internalType":"uint256","name":"ticketsSold","type":"uint256"},{"internalType":"uint256","name":"endTime","type":"uint256"},{"internalType":"bool","name":"isActive","type":"bool"},{"internalType":"bool","name":"isCompleted","type":"bool"},{"internalType":"address","name":"winner","type":"address"},{"internalType":"enum DuxxanPlatformSimple.PrizeType","name":"prizeType","type":"uint8"},{"internalType":"bool","name":"creatorApproved","type":"bool"},{"internalType":"bool","name":"platformApproved","type":"bool"},{"internalType":"bool","name":"payoutReleased","type":"bool"}],"stateMutability":"view","type":"function"},{"inputs":[],"name":"renounceOwnership","outputs":[],"stateMutability":"nonpayable","type":"function"},{"inputs":[{"internalType":"address","name":"newOwner","type":"address"}],"name":"transferOwnership","outputs":[],"stateMutability":"nonpayable","type":"function"},{"inputs":[{"internalType":"address","name":"_newWallet","type":"address"}],"name":"updateCommissionWallet","outputs":[],"stateMutability":"nonpayable","type":"function"}],"evm":{"bytecode":{"linkReferences":{},"object":"60c0346200014057601f620023d238819003918201601f19168301916001600160401b038311848410176200014557808492604094855283398101031262000140576200005a602062000052836200015b565b92016200015b565b60016000553315620001275760018054336001600160a01b031980831682179093556040519492936001600160a01b0393909284929083167f8be0079c531659141344cd1fd0a4f28419497f9722a3daafe3b4186f6b6457e0600080a316608052169060025416176002553360a0526122619081620001718239608051818181610377015281816107fd01528181610b7a01528181610e07015281816111fb0152818161170201528181611b3701528181611b980152611ce9015260a0518181816110fa01526117c50152f35b604051631e4fbdf760e01b815260006004820152602490fd5b600080fd5b634e487b7160e01b600052604160045260246000fd5b51906001600160a01b0382168203620001405756fe608080604052600436101561001357600080fd5b60003560e01c90816304d38dd414611eba5750806329c6f60c146107dd57806331ae8abc146119b457806338d187dd1461199657806352fba8ef1461112957806353535db9146110e45780635d4bc0ce14610fbe578063623560af14610d6357806366fab57c146107e25780636aa42e4e14610d47578063715018a614610cea5780638627df4614610ad95780638da5cb5b14610ab057806395ccea6714610a3157806397c0262a14610a085780639def429d14610892578063a9f8623a1461084a578063c2f306a51461082c578063c54e44eb146107e7578063cc0c3039146107e2578063e444a278146107dd578063ee2c18ba14610795578063f29c940b146102cd578063f2fde38b14610244578063f33b5541146102015763f8626af81461013d57600080fd5b346101fc5760203660031901126101fc5760043560005260046020526040600020805460018060a01b036001830154169160ff61017c60028301611fab565b61018860038401611fab565b926004810154936101d26005830154916101c460076006860154950154956040519a8b9a8b5260208b01526101208060408c01528a0190612051565b9088820360608a0152612051565b94608087015260a086015260c0850152818116151560e085015260081c1615156101008301520390f35b600080fd5b346101fc5760203660031901126101fc5761021a6120d0565b6102226120fc565b600280546001600160a01b0319166001600160a01b0392909216919091179055005b346101fc5760203660031901126101fc5761025d6120d0565b6102656120fc565b6001600160a01b039081169081156102b457600154826001600160601b0360a01b821617600155167f8be0079c531659141344cd1fd0a4f28419497f9722a3daafe3b4186f6b6457e0600080a3005b604051631e4fbdf760e01b815260006004820152602490fd5b346101fc5760a03660031901126101fc5760043567ffffffffffffffff81116101fc576102fe903690600401611f1a565b60243567ffffffffffffffff81116101fc5761031e903690600401611f1a565b60843580151581036101fc576103326121a8565b6002546040516323b872dd60e01b81523360048201526001600160a01b03918216602482015268015af1d78b58c40000604482015290602090829060649082906000907f0000000000000000000000000000000000000000000000000000000000000000165af18015610789576103b19160009161075a575b50612140565b600854918115610748576000905b60405194610120860186811067ffffffffffffffff82111761067257604052848652336020870152604086015260608501526044356080850152600060a085015260c0840152600160e0840152151561010083015260005260046020526040600020815181556001810160018060a01b036020840151166001600160601b0360a01b825416179055604082015191825167ffffffffffffffff81116106725761046b6002840154611f71565b601f8111610701575b506020601f82116001146106935781929394600092610688575b50508160011b916000199060031b1c19161760028301555b606081015180519067ffffffffffffffff8211610672576104ca6003850154611f71565b601f811161062b575b50602090601f83116001146105b257938261010093600793610563976000926105a7575b50508160011b916000199060031b1c19161760038201555b6080840151600482015560a0840151600582015560c08401516006820155019161054b60e08201511515849060ff801983541691151516179055565b0151815461ff00191690151560081b61ff0016179055565b61059d6008546040516044358152817fdd17f6c68d84fb01706d9f9e9ed1a2267d9171bff4c61d024f503d6c9ccb931c60203393a3612199565b6008556001600055005b0151905087806104f7565b906003850160005260206000209160005b601f1985168110610613575083600793610563979360019361010097601f198116106105fa575b505050811b01600382015561050f565b015160001960f88460031b161c191690558780806105ea565b919260206001819286850151815501940192016105c3565b600385016000526020600020601f840160051c81016020851061066b575b601f830160051c8201811061065f5750506104d3565b60008155600101610649565b5080610649565b634e487b7160e01b600052604160045260246000fd5b01519050848061048e565b6002840160005260206000209060005b601f19841681106106e95750600193949583601f198116106106d0575b505050811b0160028301556104a6565b015160001960f88460031b161c191690558480806106c0565b9091602060018192858a0151815501930191016106a3565b600284016000526020600020601f830160051c810160208410610741575b601f830160051c82018110610735575050610474565b6000815560010161071f565b508061071f565b6107546064354261218c565b906103bf565b61077c915060203d602011610782575b6107748183611ef8565b810190612128565b856103ab565b503d61076a565b6040513d6000823e3d90fd5b346101fc5760403660031901126101fc576107ae6120e6565b600435600052600560205260406000209060018060a01b03166000526020526020604060002054604051908152f35b611ed4565b6120b4565b346101fc5760003660031901126101fc576040517f00000000000000000000000000000000000000000000000000000000000000006001600160a01b03168152602090f35b346101fc5760003660031901126101fc576020600754604051908152f35b346101fc5760403660031901126101fc576108636120e6565b600435600052600660205260406000209060018060a01b03166000526020526020604060002054604051908152f35b346101fc5760203660031901126101fc57600435806000526003602052604060002090600982018054906108c860ff83166121cb565b600884015442108015906109f6575b156109b15760018401546001600160a01b0392908316331480156109a4575b1561096e5761ffff191661010017815560078401547f3f8a70ebc2357528ffbd62df52804d67d18cb2dc04d8a034c9c932e982d2cf3792602092600492610949575b5460101c16940154604051908152a3005b805462010000600160b01b0319163360101b62010000600160b01b0316178155610938565b60405162461bcd60e51b815260206004820152600e60248201526d139bdd08185d5d1a1bdc9a5e995960921b6044820152606490fd5b50826001541633146108f6565b60405162461bcd60e51b815260206004820152601760248201527f526166666c65206e6f7420726561647920746f20656e640000000000000000006044820152606490fd5b506007840154600685015411156108d7565b346101fc5760003660031901126101fc576002546040516001600160a01b039091168152602090f35b346101fc5760403660031901126101fc57610a4a6120d0565b610a526120fc565b60015460405163a9059cbb60e01b81526001600160a01b03918216600482015260248035908201529160209183916044918391600091165af1801561078957610a9757005b610aae9060203d8111610782576107748183611ef8565b005b346101fc5760003660031901126101fc576001546040516001600160a01b039091168152602090f35b346101fc57610ae73661209e565b90610af06121a8565b806000526020600381526040600020610b0f60ff6009830154166121cb565b6008810154421015610cb6576007810190610b2b85835461218c565b600682015410610c715782610b47866005610b7494015461220b565b6040516323b872dd60e01b8152336004820152306024820152604481019190915291829081906064820190565b038160007f00000000000000000000000000000000000000000000000000000000000000006001600160a01b03165af190811561078957600091610c54575b5015610c1e57907fdbaaf4c87ce30816c961a81d110622a3227ede77953d4383d514ff88ab2e0fd391836000526005825260406000203360005282526040600020610bff86825461218c565b9055610c0c85825461218c565b90556040519384523393a36001600055005b60405162461bcd60e51b815260048101839052600e60248201526d14185e5b595b9d0819985a5b195960921b6044820152606490fd5b610c6b9150833d8511610782576107748183611ef8565b85610bb3565b60405162461bcd60e51b815260048101849052601c60248201527f4e6f7420656e6f756768207469636b65747320617661696c61626c65000000006044820152606490fd5b60405162461bcd60e51b815260048101839052600c60248201526b149859999b1948195b99195960a21b6044820152606490fd5b346101fc5760003660031901126101fc57610d036120fc565b600180546001600160a01b031981169091556000906001600160a01b03167f8be0079c531659141344cd1fd0a4f28419497f9722a3daafe3b4186f6b6457e08280a3005b346101fc5760003660031901126101fc576020604051600a8152f35b346101fc57610d713661209e565b90610d7a6121a8565b80600052602060048152604060002090600782015460ff811680610fb5575b15610f7d5760081c60ff1615610f3d575b8360011b84810460021485151715610f27576064900491610e36610dce848761221e565b60018301546040516323b872dd60e01b8082523360048301526001600160a01b03928316602483015260448201939093529095909290917f00000000000000000000000000000000000000000000000000000000000000008716918690859081906064820190565b03816000865af1801561078957610e86978795600092610f0a575b50600254604051938452336004850152166001600160a01b031660248301526044820193909352958692839182906064820190565b03925af1908115610789577fe555da28bdb778f65d22794d88927ebaeca03f7de9d1b7d39245bc8fb5ca078a93600592610eed575b50846000526006835260406000203360005283526040600020610edf87825461218c565b905501610c0c85825461218c565b610f0390843d8611610782576107748183611ef8565b5086610ebb565b610f2090873d8911610782576107748183611ef8565b508b610e51565b634e487b7160e01b600052601160045260246000fd5b60068201544210610daa576064906040519062461bcd60e51b82526004820152600e60248201526d111bdb985d1a5bdb88195b99195960921b6044820152fd5b60405162461bcd60e51b815260048101839052601060248201526f24b73b30b634b2103237b730ba34b7b760811b6044820152606490fd5b50841515610d99565b346101fc5760203660031901126101fc576004356000908152600360205260409020805460018201546001600160a01b03908116929061100060028301611fab565b61100c60038401611fab565b92600481015493600582015460068301549061106360078501549361105560096008880154970154976040519c8d9c8d5260208d015260408c61020091829101528c0190612051565b908a820360608c0152612051565b96608089015260a088015260c087015260e086015261010085015260ff918282161515610120860152828260081c1615156101408601528160101c166101608501526110b86101808501838360b01c16612091565b818160b81c1615156101a0850152818160c01c1615156101c085015260c81c1615156101e08301520390f35b346101fc5760003660031901126101fc576040517f00000000000000000000000000000000000000000000000000000000000000006001600160a01b03168152602090f35b346101fc5760e03660031901126101fc5760043567ffffffffffffffff81116101fc5761115a903690600401611f1a565b60243567ffffffffffffffff81116101fc5761117a903690600401611f1a565b600260c43510156101fc5761118d6121a8565b6044351561194557606435156118f457608435156118a45760a4351561185f5760c435156117bb575b6002546040516323b872dd60e01b81523360048201526001600160a01b03918216602482015268015af1d78b58c40000604482015290602090829060649082906000907f0000000000000000000000000000000000000000000000000000000000000000165af18015610789576112349160009161179c5750612140565b60c435156116cf575b6007549061124d60a4354261218c565b90604051938461020081011067ffffffffffffffff6102008701111761067257610200850160405283855233602086015260408501526060840152604435608084015260643560a084015260843560c0840152600060e084015261010083015260016101208301526000610140830152600061016083015260c43561018083015260006101a083015260006101c083015260006101e08301526000526003602052604060002090805182556001820160018060a01b036020830151166001600160601b0360a01b825416179055604081015191825167ffffffffffffffff81116106725761133e6002830154611f71565b601f8111611688575b506020601f821160011461161a578192939460009261160f575b50508160011b916000199060031b1c19161760028201555b606082015180519067ffffffffffffffff82116106725761139d6003840154611f71565b601f81116115c8575b50602090601f83116001146115555760099392916000918361154a575b50508160011b916000199060031b1c19161760038201555b6080830151600482015560a0830151600582015560c0830151600682015560e083015160078201556101008301516008820155019061142d6101208201511515839060ff801983541691151516179055565b610140810151825461ff00191690151560081b61ff0016178255610160810151825462010000600160b01b03191660109190911b62010000600160b01b03161782556101808101519060028210156115345782546101a08201516101c08301516101e09093015192151560c01b60ff60c01b1690151560b81b60ff60b81b1660b09490941b60ff60b01b1663ffffffff60b01b1990921691909117929092179190911790151560c81b60ff60c81b16179055600754604051604435815261152a91906114fe6020820160c435612091565b817fc890c80dc6c21b947623ff0de3cbaf1a694c5d9f0aa6334eaecae1fb59fe960960403393a3612199565b6007556001600055005b634e487b7160e01b600052602160045260246000fd5b0151905085806113c3565b906003840160005260206000209160005b601f19851681106115b0575091839160019360099695601f19811610611597575b505050811b0160038201556113db565b015160001960f88460031b161c19169055858080611587565b91926020600181928685015181550194019201611566565b600384016000526020600020601f840160051c810160208510611608575b601f830160051c820181106115fc5750506113a6565b600081556001016115e6565b50806115e6565b015190508480611361565b6002830160005260206000209060005b601f19841681106116705750600193949583601f19811610611657575b505050811b016002820155611379565b015160001960f88460031b161c19169055848080611647565b9091602060018192858a01518155019301910161162a565b600283016000526020600020601f830160051c8101602084106116c8575b601f830160051c820181106116bc575050611347565b600081556001016116a6565b50806116a6565b6040516323b872dd60e01b8152336004820152306024820152604480359082015260208160648160006001600160a01b037f0000000000000000000000000000000000000000000000000000000000000000165af19081156107895760009161177d575b5061123d5760405162461bcd60e51b815260206004820152601c60248201527f5072697a6520616d6f756e74207472616e73666572206661696c6564000000006044820152606490fd5b611796915060203d602011610782576107748183611ef8565b83611733565b6117b5915060203d602011610782576107748183611ef8565b846103ab565b60018060a01b03807f0000000000000000000000000000000000000000000000000000000000000000163314908115611851575b506111b65760405162461bcd60e51b815260206004820152602f60248201527f4f6e6c7920617574686f72697a65642077616c6c6574732063616e206372656160448201526e7465205553445420726166666c657360881b6064820152608490fd5b9050600254163314836117ef565b60405162461bcd60e51b815260206004820152601f60248201527f4475726174696f6e206d7573742062652067726561746572207468616e2030006044820152606490fd5b60405162461bcd60e51b815260206004820152602260248201527f4d6178207469636b657473206d7573742062652067726561746572207468616e604482015261020360f41b6064820152608490fd5b60405162461bcd60e51b815260206004820152602360248201527f5469636b6574207072696365206d75737420626520677265617465722074686160448201526206e20360ec1b6064820152608490fd5b60405162461bcd60e51b815260206004820152602360248201527f5072697a6520616d6f756e74206d75737420626520677265617465722074686160448201526206e20360ec1b6064820152608490fd5b346101fc5760003660031901126101fc576020600854604051908152f35b346101fc5760403660031901126101fc57602480359081151582036101fc5760043590816000526020600381526040600020936009850180549160ff92838160081c1615611e7f5760c81c8316611e3b57600196909601546001600160a01b0396903390881603611dcc57815460ff60b81b191690151560b81b60ff60b81b161781555b5485828260b81c169182611dbe575b82611daf575b5050611a5557005b836000526003825260406000209460098601918254818160c81c16611d785760ff60c81b1916600160c81b1780845560078801546005890154919291611a9a9161220b565b91600a8302838104600a1484151715611d63576064900496603288029388850460321489151715611d4e5788611acf9161221e565b928260b01c16906002821015611d3a575086918591611cb4575091611b02611b3093875460101c169160048c015461218c565b60405163a9059cbb60e01b81526001600160a01b039092166004830152602482015291829081906044820190565b03816000877f0000000000000000000000000000000000000000000000000000000000000000165af1801561078957611c97575b505b60025460405163a9059cbb60e01b8082529184166001600160a01b0316600482015260649092046024830181905291957f000000000000000000000000000000000000000000000000000000000000000084169086886044816000865af1801561078957611be988958760018e611c169d600096611c7a575b500154169361221e565b6040519485526001600160a01b039092166004850152602484019190915291968792839182906044820190565b03925af1918215610789577f5621778ab13fbf7130d91ae5035a140b79a6cfd120059c2ea0fec2a5ce6731a694600493611c5d575b505460101c16940154604051908152a3005b611c7390853d8711610782576107748183611ef8565b5087611c4b565b611c90908b3d8d11610782576107748183611ef8565b5038611bdf565b611cad90853d8711610782576107748183611ef8565b5087611b64565b60405163a9059cbb60e01b815260109190911c919091166001600160a01b0316600482015260248101929092528160448160007f000000000000000000000000000000000000000000000000000000000000000088165af1801561078957611d1d575b50611b66565b611d3390853d8711610782576107748183611ef8565b5087611d17565b634e487b7160e01b60009081526021600452fd5b50634e487b7160e01b60009081526011600452fd5b87634e487b7160e01b60005260116004526000fd5b60405162461bcd60e51b8152600481018690526010818801526f105b1c9958591e481c995b19585cd95960821b6044820152606490fd5b60101c16151590508587611a4d565b9150828260c01c1691611a47565b86600154163314600014611df757815460ff60c01b191690151560c01b60ff60c01b16178155611a38565b60405162461bcd60e51b8152600481018590526019818701527f4e6f7420617574686f72697a656420746f20617070726f7665000000000000006044820152606490fd5b60405162461bcd60e51b8152600481018590526017818701527f5061796f757420616c72656164792072656c65617365640000000000000000006044820152606490fd5b60405162461bcd60e51b81526004810186905260148188015273149859999b19481b9bdd0818dbdb5c1b195d195960621b6044820152606490fd5b346101fc5760003660031901126101fc5780600260209252f35b346101fc5760003660031901126101fc57602060405168015af1d78b58c400008152f35b90601f8019910116810190811067ffffffffffffffff82111761067257604052565b81601f820112156101fc5780359067ffffffffffffffff82116106725760405192611f4f601f8401601f191660200185611ef8565b828452602083830101116101fc57816000926020809301838601378301015290565b90600182811c92168015611fa1575b6020831014611f8b57565b634e487b7160e01b600052602260045260246000fd5b91607f1691611f80565b9060405191826000825492611fbf84611f71565b90818452600194858116908160001461202e5750600114611feb575b5050611fe992500383611ef8565b565b9093915060005260209081600020936000915b818310612016575050611fe993508201013880611fdb565b85548884018501529485019487945091830191611ffe565b915050611fe994506020925060ff191682840152151560051b8201013880611fdb565b919082519283825260005b84811061207d575050826000602080949584010152601f8019910116010190565b60208183018101518483018201520161205c565b9060028210156115345752565b60409060031901126101fc576004359060243590565b346101fc5760003660031901126101fc57602060405160328152f35b600435906001600160a01b03821682036101fc57565b602435906001600160a01b03821682036101fc57565b6001546001600160a01b0316330361211057565b60405163118cdaa760e01b8152336004820152602490fd5b908160209103126101fc575180151581036101fc5790565b1561214757565b60405162461bcd60e51b815260206004820152601c60248201527f4372656174696f6e20666565207472616e73666572206661696c6564000000006044820152606490fd5b91908201809211610f2757565b6000198114610f275760010190565b6002600054146121b9576002600055565b604051633ee5aeb560e01b8152600490fd5b156121d257565b60405162461bcd60e51b8152602060048201526011602482015270526166666c65206e6f742061637469766560781b6044820152606490fd5b81810292918115918404141715610f2757565b91908203918211610f275756fea2646970667358221220028b1a503fcc7c59b0137f9827989ecc2de71334e4eb63ada4cd73887ffe245e64736f6c63430008140033","opcodes":"PUSH1 0xC0 CALLVALUE PUSH3 0x140 JUMPI PUSH1 0x1F PUSH3 0x23D2 CODESIZE DUP2 SWAP1 SUB SWAP2 DUP3 ADD PUSH1 0x1F NOT AND DUP4 ADD SWAP2 PUSH1 0x1 PUSH1 0x1 PUSH1 0x40 SHL SUB DUP4 GT DUP5 DUP5 LT OR PUSH3 0x145 JUMPI DUP1 DUP5 SWAP3 PUSH1 0x40 SWAP5 DUP6 MSTORE DUP4 CODECOPY DUP2 ADD SUB SLT PUSH3 0x140 JUMPI PUSH3 0x5A PUSH1 0x20 PUSH3 0x52 DUP4 PUSH3 0x15B JUMP JUMPDEST SWAP3 ADD PUSH3 0x15B JUMP JUMPDEST PUSH1 0x1 PUSH1 0x0 SSTORE CALLER ISZERO PUSH3 0x127 JUMPI PUSH1 0x1 DUP1 SLOAD CALLER PUSH1 0x1 PUSH1 0x1 PUSH1 0xA0 SHL SUB NOT DUP1 DUP4 AND DUP3 OR SWAP1 SWAP4 SSTORE PUSH1 0x40 MLOAD SWAP5 SWAP3 SWAP4 PUSH1 0x1 PUSH1 0x1 PUSH1 0xA0 SHL SUB SWAP4 SWAP1 SWAP3 DUP5 SWAP3 SWAP1 DUP4 AND PUSH32 0x8BE0079C531659141344CD1FD0A4F28419497F9722A3DAAFE3B4186F6B6457E0 PUSH1 0x0 DUP1 LOG3 AND PUSH1 0x80 MSTORE AND SWAP1 PUSH1 0x2 SLOAD AND OR PUSH1 0x2 SSTORE CALLER PUSH1 0xA0 MSTORE PUSH2 0x2261 SWAP1 DUP2 PUSH3 0x171 DUP3 CODECOPY PUSH1 0x80 MLOAD DUP2 DUP2 DUP2 PUSH2 0x377 ADD MSTORE DUP2 DUP2 PUSH2 0x7FD ADD MSTORE DUP2 DUP2 PUSH2 0xB7A ADD MSTORE DUP2 DUP2 PUSH2 0xE07 ADD MSTORE DUP2 DUP2 PUSH2 0x11FB ADD MSTORE DUP2 DUP2 PUSH2 0x1702 ADD MSTORE DUP2 DUP2 PUSH2 0x1B37 ADD MSTORE DUP2 DUP2 PUSH2 0x1B98 ADD MSTORE PUSH2 0x1CE9 ADD MSTORE PUSH1 0xA0 MLOAD DUP2 DUP2 DUP2 PUSH2 0x10FA ADD MSTORE PUSH2 0x17C5 ADD MSTORE RETURN JUMPDEST PUSH1 0x40 MLOAD PUSH4 0x1E4FBDF7 PUSH1 0xE0 SHL DUP2 MSTORE PUSH1 0x0 PUSH1 0x4 DUP3 ADD MSTORE PUSH1 0x24 SWAP1 REVERT JUMPDEST PUSH1 0x0 DUP1 REVERT JUMPDEST PUSH4 0x4E487B71 PUSH1 0xE0 SHL PUSH1 0x0 MSTORE PUSH1 0x41 PUSH1 0x4 MSTORE PUSH1 0x24 PUSH1 0x0 REVERT JUMPDEST MLOAD SWAP1 PUSH1 0x1 PUSH1 0x1 PUSH1 0xA0 SHL SUB DUP3 AND DUP3 SUB PUSH3 0x140 JUMPI JUMP INVALID PUSH1 0x80 DUP1 PUSH1 0x40 MSTORE PUSH1 0x4 CALLDATASIZE LT ISZERO PUSH2 0x13 JUMPI PUSH1 0x0 DUP1 REVERT JUMPDEST PUSH1 0x0 CALLDATALOAD PUSH1 0xE0 SHR SWAP1 DUP2 PUSH4 0x4D38DD4 EQ PUSH2 0x1EBA JUMPI POP DUP1 PUSH4 0x29C6F60C EQ PUSH2 0x7DD JUMPI DUP1 PUSH4 0x31AE8ABC EQ PUSH2 0x19B4 JUMPI DUP1 PUSH4 0x38D187DD EQ PUSH2 0x1996 JUMPI DUP1 PUSH4 0x52FBA8EF EQ PUSH2 0x1129 JUMPI DUP1 PUSH4 0x53535DB9 EQ PUSH2 0x10E4 JUMPI DUP1 PUSH4 0x5D4BC0CE EQ PUSH2 0xFBE JUMPI DUP1 PUSH4 0x623560AF EQ PUSH2 0xD63 JUMPI DUP1 PUSH4 0x66FAB57C EQ PUSH2 0x7E2 JUMPI DUP1 PUSH4 0x6AA42E4E EQ PUSH2 0xD47 JUMPI DUP1 PUSH4 0x715018A6 EQ PUSH2 0xCEA JUMPI DUP1 PUSH4 0x8627DF46 EQ PUSH2 0xAD9 JUMPI DUP1 PUSH4 0x8DA5CB5B EQ PUSH2 0xAB0 JUMPI DUP1 PUSH4 0x95CCEA67 EQ PUSH2 0xA31 JUMPI DUP1 PUSH4 0x97C0262A EQ PUSH2 0xA08 JUMPI DUP1 PUSH4 0x9DEF429D EQ PUSH2 0x892 JUMPI DUP1 PUSH4 0xA9F8623A EQ PUSH2 0x84A JUMPI DUP1 PUSH4 0xC2F306A5 EQ PUSH2 0x82C JUMPI DUP1 PUSH4 0xC54E44EB EQ PUSH2 0x7E7 JUMPI DUP1 PUSH4 0xCC0C3039 EQ PUSH2 0x7E2 JUMPI DUP1 PUSH4 0xE444A278 EQ PUSH2 0x7DD JUMPI DUP1 PUSH4 0xEE2C18BA EQ PUSH2 0x795 JUMPI DUP1 PUSH4 0xF29C940B EQ PUSH2 0x2CD JUMPI DUP1 PUSH4 0xF2FDE38B EQ PUSH2 0x244 JUMPI DUP1 PUSH4 0xF33B5541 EQ PUSH2 0x201 JUMPI PUSH4 0xF8626AF8 EQ PUSH2 0x13D JUMPI PUSH1 0x0 DUP1 REVERT JUMPDEST CALLVALUE PUSH2 0x1FC JUMPI PUSH1 0x20 CALLDATASIZE PUSH1 0x3 NOT ADD SLT PUSH2 0x1FC JUMPI PUSH1 0x4 CALLDATALOAD PUSH1 0x0 MSTORE PUSH1 0x4 PUSH1 0x20 MSTORE PUSH1 0x40 PUSH1 0x0 KECCAK256 DUP1 SLOAD PUSH1 0x1 DUP1 PUSH1 0xA0 SHL SUB PUSH1 0x1 DUP4 ADD SLOAD AND SWAP2 PUSH1 0xFF PUSH2 0x17C PUSH1 0x2 DUP4 ADD PUSH2 0x1FAB JUMP JUMPDEST PUSH2 0x188 PUSH1 0x3 DUP5 ADD PUSH2 0x1FAB JUMP JUMPDEST SWAP3 PUSH1 0x4 DUP2 ADD SLOAD SWAP4 PUSH2 0x1D2 PUSH1 0x5 DUP4 ADD SLOAD SWAP2 PUSH2 0x1C4 PUSH1 0x7 PUSH1 0x6 DUP7 ADD SLOAD SWAP6 ADD SLOAD SWAP6 PUSH1 0x40 MLOAD SWAP11 DUP12 SWAP11 DUP12 MSTORE PUSH1 0x20 DUP12 ADD MSTORE PUSH2 0x120 DUP1 PUSH1 0x40 DUP13 ADD MSTORE DUP11 ADD SWAP1 PUSH2 0x2051 JUMP JUMPDEST SWAP1 DUP9 DUP3 SUB PUSH1 0x60 DUP11 ADD MSTORE PUSH2 0x2051 JUMP JUMPDEST SWAP5 PUSH1 0x80 DUP8 ADD MSTORE PUSH1 0xA0 DUP7 ADD MSTORE PUSH1 0xC0 DUP6 ADD MSTORE DUP2 DUP2 AND ISZERO ISZERO PUSH1 0xE0 DUP6 ADD MSTORE PUSH1 0x8 SHR AND ISZERO ISZERO PUSH2 0x100 DUP4 ADD MSTORE SUB SWAP1 RETURN JUMPDEST PUSH1 0x0 DUP1 REVERT JUMPDEST CALLVALUE PUSH2 0x1FC JUMPI PUSH1 0x20 CALLDATASIZE PUSH1 0x3 NOT ADD SLT PUSH2 0x1FC JUMPI PUSH2 0x21A PUSH2 0x20D0 JUMP JUMPDEST PUSH2 0x222 PUSH2 0x20FC JUMP JUMPDEST PUSH1 0x2 DUP1 SLOAD PUSH1 0x1 PUSH1 0x1 PUSH1 0xA0 SHL SUB NOT AND PUSH1 0x1 PUSH1 0x1 PUSH1 0xA0 SHL SUB SWAP3 SWAP1 SWAP3 AND SWAP2 SWAP1 SWAP2 OR SWAP1 SSTORE STOP JUMPDEST CALLVALUE PUSH2 0x1FC JUMPI PUSH1 0x20 CALLDATASIZE PUSH1 0x3 NOT ADD SLT PUSH2 0x1FC JUMPI PUSH2 0x25D PUSH2 0x20D0 JUMP JUMPDEST PUSH2 0x265 PUSH2 0x20FC JUMP JUMPDEST PUSH1 0x1 PUSH1 0x1 PUSH1 0xA0 SHL SUB SWAP1 DUP2 AND SWAP1 DUP2 ISZERO PUSH2 0x2B4 JUMPI PUSH1 0x1 SLOAD DUP3 PUSH1 0x1 PUSH1 0x1 PUSH1 0x60 SHL SUB PUSH1 0xA0 SHL DUP3 AND OR PUSH1 0x1 SSTORE AND PUSH32 0x8BE0079C531659141344CD1FD0A4F28419497F9722A3DAAFE3B4186F6B6457E0 PUSH1 0x0 DUP1 LOG3 STOP JUMPDEST PUSH1 0x40 MLOAD PUSH4 0x1E4FBDF7 PUSH1 0xE0 SHL DUP2 MSTORE PUSH1 0x0 PUSH1 0x4 DUP3 ADD MSTORE PUSH1 0x24 SWAP1 REVERT JUMPDEST CALLVALUE PUSH2 0x1FC JUMPI PUSH1 0xA0 CALLDATASIZE PUSH1 0x3 NOT ADD SLT PUSH2 0x1FC JUMPI PUSH1 0x4 CALLDATALOAD PUSH8 0xFFFFFFFFFFFFFFFF DUP2 GT PUSH2 0x1FC JUMPI PUSH2 0x2FE SWAP1 CALLDATASIZE SWAP1 PUSH1 0x4 ADD PUSH2 0x1F1A JUMP JUMPDEST PUSH1 0x24 CALLDATALOAD PUSH8 0xFFFFFFFFFFFFFFFF DUP2 GT PUSH2 0x1FC JUMPI PUSH2 0x31E SWAP1 CALLDATASIZE SWAP1 PUSH1 0x4 ADD PUSH2 0x1F1A JUMP JUMPDEST PUSH1 0x84 CALLDATALOAD DUP1 ISZERO ISZERO DUP2 SUB PUSH2 0x1FC JUMPI PUSH2 0x332 PUSH2 0x21A8 JUMP JUMPDEST PUSH1 0x2 SLOAD PUSH1 0x40 MLOAD PUSH4 0x23B872DD PUSH1 0xE0 SHL DUP2 MSTORE CALLER PUSH1 0x4 DUP3 ADD MSTORE PUSH1 0x1 PUSH1 0x1 PUSH1 0xA0 SHL SUB SWAP2 DUP3 AND PUSH1 0x24 DUP3 ADD MSTORE PUSH9 0x15AF1D78B58C40000 PUSH1 0x44 DUP3 ADD MSTORE SWAP1 PUSH1 0x20 SWAP1 DUP3 SWAP1 PUSH1 0x64 SWAP1 DUP3 SWAP1 PUSH1 0x0 SWAP1 PUSH32 0x0 AND GAS CALL DUP1 ISZERO PUSH2 0x789 JUMPI PUSH2 0x3B1 SWAP2 PUSH1 0x0 SWAP2 PUSH2 0x75A JUMPI JUMPDEST POP PUSH2 0x2140 JUMP JUMPDEST PUSH1 0x8 SLOAD SWAP2 DUP2 ISZERO PUSH2 0x748 JUMPI PUSH1 0x0 SWAP1 JUMPDEST PUSH1 0x40 MLOAD SWAP5 PUSH2 0x120 DUP7 ADD DUP7 DUP2 LT PUSH8 0xFFFFFFFFFFFFFFFF DUP3 GT OR PUSH2 0x672 JUMPI PUSH1 0x40 MSTORE DUP5 DUP7 MSTORE CALLER PUSH1 0x20 DUP8 ADD MSTORE PUSH1 0x40 DUP7 ADD MSTORE PUSH1 0x60 DUP6 ADD MSTORE PUSH1 0x44 CALLDATALOAD PUSH1 0x80 DUP6 ADD MSTORE PUSH1 0x0 PUSH1 0xA0 DUP6 ADD MSTORE PUSH1 0xC0 DUP5 ADD MSTORE PUSH1 0x1 PUSH1 0xE0 DUP5 ADD MSTORE ISZERO ISZERO PUSH2 0x100 DUP4 ADD MSTORE PUSH1 0x0 MSTORE PUSH1 0x4 PUSH1 0x20 MSTORE PUSH1 0x40 PUSH1 0x0 KECCAK256 DUP2 MLOAD DUP2 SSTORE PUSH1 0x1 DUP2 ADD PUSH1 0x1 DUP1 PUSH1 0xA0 SHL SUB PUSH1 0x20 DUP5 ADD MLOAD AND PUSH1 0x1 PUSH1 0x1 PUSH1 0x60 SHL SUB PUSH1 0xA0 SHL DUP3 SLOAD AND OR SWAP1 SSTORE PUSH1 0x40 DUP3 ADD MLOAD SWAP2 DUP3 MLOAD PUSH8 0xFFFFFFFFFFFFFFFF DUP2 GT PUSH2 0x672 JUMPI PUSH2 0x46B PUSH1 0x2 DUP5 ADD SLOAD PUSH2 0x1F71 JUMP JUMPDEST PUSH1 0x1F DUP2 GT PUSH2 0x701 JUMPI JUMPDEST POP PUSH1 0x20 PUSH1 0x1F DUP3 GT PUSH1 0x1 EQ PUSH2 0x693 JUMPI DUP2 SWAP3 SWAP4 SWAP5 PUSH1 0x0 SWAP3 PUSH2 0x688 JUMPI JUMPDEST POP POP DUP2 PUSH1 0x1 SHL SWAP2 PUSH1 0x0 NOT SWAP1 PUSH1 0x3 SHL SHR NOT AND OR PUSH1 0x2 DUP4 ADD SSTORE JUMPDEST PUSH1 0x60 DUP2 ADD MLOAD DUP1 MLOAD SWAP1 PUSH8 0xFFFFFFFFFFFFFFFF DUP3 GT PUSH2 0x672 JUMPI PUSH2 0x4CA PUSH1 0x3 DUP6 ADD SLOAD PUSH2 0x1F71 JUMP JUMPDEST PUSH1 0x1F DUP2 GT PUSH2 0x62B JUMPI JUMPDEST POP PUSH1 0x20 SWAP1 PUSH1 0x1F DUP4 GT PUSH1 0x1 EQ PUSH2 0x5B2 JUMPI SWAP4 DUP3 PUSH2 0x100 SWAP4 PUSH1 0x7 SWAP4 PUSH2 0x563 SWAP8 PUSH1 0x0 SWAP3 PUSH2 0x5A7 JUMPI JUMPDEST POP POP DUP2 PUSH1 0x1 SHL SWAP2 PUSH1 0x0 NOT SWAP1 PUSH1 0x3 SHL SHR NOT AND OR PUSH1 0x3 DUP3 ADD SSTORE JUMPDEST PUSH1 0x80 DUP5 ADD MLOAD PUSH1 0x4 DUP3 ADD SSTORE PUSH1 0xA0 DUP5 ADD MLOAD PUSH1 0x5 DUP3 ADD SSTORE PUSH1 0xC0 DUP5 ADD MLOAD PUSH1 0x6 DUP3 ADD SSTORE ADD SWAP2 PUSH2 0x54B PUSH1 0xE0 DUP3 ADD MLOAD ISZERO ISZERO DUP5 SWAP1 PUSH1 0xFF DUP1 NOT DUP4 SLOAD AND SWAP2 ISZERO ISZERO AND OR SWAP1 SSTORE JUMP JUMPDEST ADD MLOAD DUP2 SLOAD PUSH2 0xFF00 NOT AND SWAP1 ISZERO ISZERO PUSH1 0x8 SHL PUSH2 0xFF00 AND OR SWAP1 SSTORE JUMP JUMPDEST PUSH2 0x59D PUSH1 0x8 SLOAD PUSH1 0x40 MLOAD PUSH1 0x44 CALLDATALOAD DUP2 MSTORE DUP2 PUSH32 0xDD17F6C68D84FB01706D9F9E9ED1A2267D9171BFF4C61D024F503D6C9CCB931C PUSH1 0x20 CALLER SWAP4 LOG3 PUSH2 0x2199 JUMP JUMPDEST PUSH1 0x8 SSTORE PUSH1 0x1 PUSH1 0x0 SSTORE STOP JUMPDEST ADD MLOAD SWAP1 POP DUP8 DUP1 PUSH2 0x4F7 JUMP JUMPDEST SWAP1 PUSH1 0x3 DUP6 ADD PUSH1 0x0 MSTORE PUSH1 0x20 PUSH1 0x0 KECCAK256 SWAP2 PUSH1 0x0 JUMPDEST PUSH1 0x1F NOT DUP6 AND DUP2 LT PUSH2 0x613 JUMPI POP DUP4 PUSH1 0x7 SWAP4 PUSH2 0x563 SWAP8 SWAP4 PUSH1 0x1 SWAP4 PUSH2 0x100 SWAP8 PUSH1 0x1F NOT DUP2 AND LT PUSH2 0x5FA JUMPI JUMPDEST POP POP POP DUP2 SHL ADD PUSH1 0x3 DUP3 ADD SSTORE PUSH2 0x50F JUMP JUMPDEST ADD MLOAD PUSH1 0x0 NOT PUSH1 0xF8 DUP5 PUSH1 0x3 SHL AND SHR NOT AND SWAP1 SSTORE DUP8 DUP1 DUP1 PUSH2 0x5EA JUMP JUMPDEST SWAP2 SWAP3 PUSH1 0x20 PUSH1 0x1 DUP2 SWAP3 DUP7 DUP6 ADD MLOAD DUP2 SSTORE ADD SWAP5 ADD SWAP3 ADD PUSH2 0x5C3 JUMP JUMPDEST PUSH1 0x3 DUP6 ADD PUSH1 0x0 MSTORE PUSH1 0x20 PUSH1 0x0 KECCAK256 PUSH1 0x1F DUP5 ADD PUSH1 0x5 SHR DUP2 ADD PUSH1 0x20 DUP6 LT PUSH2 0x66B JUMPI JUMPDEST PUSH1 0x1F DUP4 ADD PUSH1 0x5 SHR DUP3 ADD DUP2 LT PUSH2 0x65F JUMPI POP POP PUSH2 0x4D3 JUMP JUMPDEST PUSH1 0x0 DUP2 SSTORE PUSH1 0x1 ADD PUSH2 0x649 JUMP JUMPDEST POP DUP1 PUSH2 0x649 JUMP JUMPDEST PUSH4 0x4E487B71 PUSH1 0xE0 SHL PUSH1 0x0 MSTORE PUSH1 0x41 PUSH1 0x4 MSTORE PUSH1 0x24 PUSH1 0x0 REVERT JUMPDEST ADD MLOAD SWAP1 POP DUP5 DUP1 PUSH2 0x48E JUMP JUMPDEST PUSH1 0x2 DUP5 ADD PUSH1 0x0 MSTORE PUSH1 0x20 PUSH1 0x0 KECCAK256 SWAP1 PUSH1 0x0 JUMPDEST PUSH1 0x1F NOT DUP5 AND DUP2 LT PUSH2 0x6E9 JUMPI POP PUSH1 0x1 SWAP4 SWAP5 SWAP6 DUP4 PUSH1 0x1F NOT DUP2 AND LT PUSH2 0x6D0 JUMPI JUMPDEST POP POP POP DUP2 SHL ADD PUSH1 0x2 DUP4 ADD SSTORE PUSH2 0x4A6 JUMP JUMPDEST ADD MLOAD PUSH1 0x0 NOT PUSH1 0xF8 DUP5 PUSH1 0x3 SHL AND SHR NOT AND SWAP1 SSTORE DUP5 DUP1 DUP1 PUSH2 0x6C0 JUMP JUMPDEST SWAP1 SWAP2 PUSH1 0x20 PUSH1 0x1 DUP2 SWAP3 DUP6 DUP11 ADD MLOAD DUP2 SSTORE ADD SWAP4 ADD SWAP2 ADD PUSH2 0x6A3 JUMP JUMPDEST PUSH1 0x2 DUP5 ADD PUSH1 0x0 MSTORE PUSH1 0x20 PUSH1 0x0 KECCAK256 PUSH1 0x1F DUP4 ADD PUSH1 0x5 SHR DUP2 ADD PUSH1 0x20 DUP5 LT PUSH2 0x741 JUMPI JUMPDEST PUSH1 0x1F DUP4 ADD PUSH1 0x5 SHR DUP3 ADD DUP2 LT PUSH2 0x735 JUMPI POP POP PUSH2 0x474 JUMP JUMPDEST PUSH1 0x0 DUP2 SSTORE PUSH1 0x1 ADD PUSH2 0x71F JUMP JUMPDEST POP DUP1 PUSH2 0x71F JUMP JUMPDEST PUSH2 0x754 PUSH1 0x64 CALLDATALOAD TIMESTAMP PUSH2 0x218C JUMP JUMPDEST SWAP1 PUSH2 0x3BF JUMP JUMPDEST PUSH2 0x77C SWAP2 POP PUSH1 0x20 RETURNDATASIZE PUSH1 0x20 GT PUSH2 0x782 JUMPI JUMPDEST PUSH2 0x774 DUP2 DUP4 PUSH2 0x1EF8 JUMP JUMPDEST DUP2 ADD SWAP1 PUSH2 0x2128 JUMP JUMPDEST DUP6 PUSH2 0x3AB JUMP JUMPDEST POP RETURNDATASIZE PUSH2 0x76A JUMP JUMPDEST PUSH1 0x40 MLOAD RETURNDATASIZE PUSH1 0x0 DUP3 RETURNDATACOPY RETURNDATASIZE SWAP1 REVERT JUMPDEST CALLVALUE PUSH2 0x1FC JUMPI PUSH1 0x40 CALLDATASIZE PUSH1 0x3 NOT ADD SLT PUSH2 0x1FC JUMPI PUSH2 0x7AE PUSH2 0x20E6 JUMP JUMPDEST PUSH1 0x4 CALLDATALOAD PUSH1 0x0 MSTORE PUSH1 0x5 PUSH1 0x20 MSTORE PUSH1 0x40 PUSH1 0x0 KECCAK256 SWAP1 PUSH1 0x1 DUP1 PUSH1 0xA0 SHL SUB AND PUSH1 0x0 MSTORE PUSH1 0x20 MSTORE PUSH1 0x20 PUSH1 0x40 PUSH1 0x0 KECCAK256 SLOAD PUSH1 0x40 MLOAD SWAP1 DUP2 MSTORE RETURN JUMPDEST PUSH2 0x1ED4 JUMP JUMPDEST PUSH2 0x20B4 JUMP JUMPDEST CALLVALUE PUSH2 0x1FC JUMPI PUSH1 0x0 CALLDATASIZE PUSH1 0x3 NOT ADD SLT PUSH2 0x1FC JUMPI PUSH1 0x40 MLOAD PUSH32 0x0 PUSH1 0x1 PUSH1 0x1 PUSH1 0xA0 SHL SUB AND DUP2 MSTORE PUSH1 0x20 SWAP1 RETURN JUMPDEST CALLVALUE PUSH2 0x1FC JUMPI PUSH1 0x0 CALLDATASIZE PUSH1 0x3 NOT ADD SLT PUSH2 0x1FC JUMPI PUSH1 0x20 PUSH1 0x7 SLOAD PUSH1 0x40 MLOAD SWAP1 DUP2 MSTORE RETURN JUMPDEST CALLVALUE PUSH2 0x1FC JUMPI PUSH1 0x40 CALLDATASIZE PUSH1 0x3 NOT ADD SLT PUSH2 0x1FC JUMPI PUSH2 0x863 PUSH2 0x20E6 JUMP JUMPDEST PUSH1 0x4 CALLDATALOAD PUSH1 0x0 MSTORE PUSH1 0x6 PUSH1 0x20 MSTORE PUSH1 0x40 PUSH1 0x0 KECCAK256 SWAP1 PUSH1 0x1 DUP1 PUSH1 0xA0 SHL SUB AND PUSH1 0x0 MSTORE PUSH1 0x20 MSTORE PUSH1 0x20 PUSH1 0x40 PUSH1 0x0 KECCAK256 SLOAD PUSH1 0x40 MLOAD SWAP1 DUP2 MSTORE RETURN JUMPDEST CALLVALUE PUSH2 0x1FC JUMPI PUSH1 0x20 CALLDATASIZE PUSH1 0x3 NOT ADD SLT PUSH2 0x1FC JUMPI PUSH1 0x4 CALLDATALOAD DUP1 PUSH1 0x0 MSTORE PUSH1 0x3 PUSH1 0x20 MSTORE PUSH1 0x40 PUSH1 0x0 KECCAK256 SWAP1 PUSH1 0x9 DUP3 ADD DUP1 SLOAD SWAP1 PUSH2 0x8C8 PUSH1 0xFF DUP4 AND PUSH2 0x21CB JUMP JUMPDEST PUSH1 0x8 DUP5 ADD SLOAD TIMESTAMP LT DUP1 ISZERO SWAP1 PUSH2 0x9F6 JUMPI JUMPDEST ISZERO PUSH2 0x9B1 JUMPI PUSH1 0x1 DUP5 ADD SLOAD PUSH1 0x1 PUSH1 0x1 PUSH1 0xA0 SHL SUB SWAP3 SWAP1 DUP4 AND CALLER EQ DUP1 ISZERO PUSH2 0x9A4 JUMPI JUMPDEST ISZERO PUSH2 0x96E JUMPI PUSH2 0xFFFF NOT AND PUSH2 0x100 OR DUP2 SSTORE PUSH1 0x7 DUP5 ADD SLOAD PUSH32 0x3F8A70EBC2357528FFBD62DF52804D67D18CB2DC04D8A034C9C932E982D2CF37 SWAP3 PUSH1 0x20 SWAP3 PUSH1 0x4 SWAP3 PUSH2 0x949 JUMPI JUMPDEST SLOAD PUSH1 0x10 SHR AND SWAP5 ADD SLOAD PUSH1 0x40 MLOAD SWAP1 DUP2 MSTORE LOG3 STOP JUMPDEST DUP1 SLOAD PUSH3 0x10000 PUSH1 0x1 PUSH1 0xB0 SHL SUB NOT AND CALLER PUSH1 0x10 SHL PUSH3 0x10000 PUSH1 0x1 PUSH1 0xB0 SHL SUB AND OR DUP2 SSTORE PUSH2 0x938 JUMP JUMPDEST PUSH1 0x40 MLOAD PUSH3 0x461BCD PUSH1 0xE5 SHL DUP2 MSTORE PUSH1 0x20 PUSH1 0x4 DUP3 ADD MSTORE PUSH1 0xE PUSH1 0x24 DUP3 ADD MSTORE PUSH14 0x139BDD08185D5D1A1BDC9A5E9959 PUSH1 0x92 SHL PUSH1 0x44 DUP3 ADD MSTORE PUSH1 0x64 SWAP1 REVERT JUMPDEST POP DUP3 PUSH1 0x1 SLOAD AND CALLER EQ PUSH2 0x8F6 JUMP JUMPDEST PUSH1 0x40 MLOAD PUSH3 0x461BCD PUSH1 0xE5 SHL DUP2 MSTORE PUSH1 0x20 PUSH1 0x4 DUP3 ADD MSTORE PUSH1 0x17 PUSH1 0x24 DUP3 ADD MSTORE PUSH32 0x526166666C65206E6F7420726561647920746F20656E64000000000000000000 PUSH1 0x44 DUP3 ADD MSTORE PUSH1 0x64 SWAP1 REVERT JUMPDEST POP PUSH1 0x7 DUP5 ADD SLOAD PUSH1 0x6 DUP6 ADD SLOAD GT ISZERO PUSH2 0x8D7 JUMP JUMPDEST CALLVALUE PUSH2 0x1FC JUMPI PUSH1 0x0 CALLDATASIZE PUSH1 0x3 NOT ADD SLT PUSH2 0x1FC JUMPI PUSH1 0x2 SLOAD PUSH1 0x40 MLOAD PUSH1 0x1 PUSH1 0x1 PUSH1 0xA0 SHL SUB SWAP1 SWAP2 AND DUP2 MSTORE PUSH1 0x20 SWAP1 RETURN JUMPDEST CALLVALUE PUSH2 0x1FC JUMPI PUSH1 0x40 CALLDATASIZE PUSH1 0x3 NOT ADD SLT PUSH2 0x1FC JUMPI PUSH2 0xA4A PUSH2 0x20D0 JUMP JUMPDEST PUSH2 0xA52 PUSH2 0x20FC JUMP JUMPDEST PUSH1 0x1 SLOAD PUSH1 0x40 MLOAD PUSH4 0xA9059CBB PUSH1 0xE0 SHL DUP2 MSTORE PUSH1 0x1 PUSH1 0x1 PUSH1 0xA0 SHL SUB SWAP2 DUP3 AND PUSH1 0x4 DUP3 ADD MSTORE PUSH1 0x24 DUP1 CALLDATALOAD SWAP1 DUP3 ADD MSTORE SWAP2 PUSH1 0x20 SWAP2 DUP4 SWAP2 PUSH1 0x44 SWAP2 DUP4 SWAP2 PUSH1 0x0 SWAP2 AND GAS CALL DUP1 ISZERO PUSH2 0x789 JUMPI PUSH2 0xA97 JUMPI STOP JUMPDEST PUSH2 0xAAE SWAP1 PUSH1 0x20 RETURNDATASIZE DUP2 GT PUSH2 0x782 JUMPI PUSH2 0x774 DUP2 DUP4 PUSH2 0x1EF8 JUMP JUMPDEST STOP JUMPDEST CALLVALUE PUSH2 0x1FC JUMPI PUSH1 0x0 CALLDATASIZE PUSH1 0x3 NOT ADD SLT PUSH2 0x1FC JUMPI PUSH1 0x1 SLOAD PUSH1 0x40 MLOAD PUSH1 0x1 PUSH1 0x1 PUSH1 0xA0 SHL SUB SWAP1 SWAP2 AND DUP2 MSTORE PUSH1 0x20 SWAP1 RETURN JUMPDEST CALLVALUE PUSH2 0x1FC JUMPI PUSH2 0xAE7 CALLDATASIZE PUSH2 0x209E JUMP JUMPDEST SWAP1 PUSH2 0xAF0 PUSH2 0x21A8 JUMP JUMPDEST DUP1 PUSH1 0x0 MSTORE PUSH1 0x20 PUSH1 0x3 DUP2 MSTORE PUSH1 0x40 PUSH1 0x0 KECCAK256 PUSH2 0xB0F PUSH1 0xFF PUSH1 0x9 DUP4 ADD SLOAD AND PUSH2 0x21CB JUMP JUMPDEST PUSH1 0x8 DUP2 ADD SLOAD TIMESTAMP LT ISZERO PUSH2 0xCB6 JUMPI PUSH1 0x7 DUP2 ADD SWAP1 PUSH2 0xB2B DUP6 DUP4 SLOAD PUSH2 0x218C JUMP JUMPDEST PUSH1 0x6 DUP3 ADD SLOAD LT PUSH2 0xC71 JUMPI DUP3 PUSH2 0xB47 DUP7 PUSH1 0x5 PUSH2 0xB74 SWAP5 ADD SLOAD PUSH2 0x220B JUMP JUMPDEST PUSH1 0x40 MLOAD PUSH4 0x23B872DD PUSH1 0xE0 SHL DUP2 MSTORE CALLER PUSH1 0x4 DUP3 ADD MSTORE ADDRESS PUSH1 0x24 DUP3 ADD MSTORE PUSH1 0x44 DUP2 ADD SWAP2 SWAP1 SWAP2 MSTORE SWAP2 DUP3 SWAP1 DUP2 SWAP1 PUSH1 0x64 DUP3 ADD SWAP1 JUMP JUMPDEST SUB DUP2 PUSH1 0x0 PUSH32 0x0 PUSH1 0x1 PUSH1 0x1 PUSH1 0xA0 SHL SUB AND GAS CALL SWAP1 DUP2 ISZERO PUSH2 0x789 JUMPI PUSH1 0x0 SWAP2 PUSH2 0xC54 JUMPI JUMPDEST POP ISZERO PUSH2 0xC1E JUMPI SWAP1 PUSH32 0xDBAAF4C87CE30816C961A81D110622A3227EDE77953D4383D514FF88AB2E0FD3 SWAP2 DUP4 PUSH1 0x0 MSTORE PUSH1 0x5 DUP3 MSTORE PUSH1 0x40 PUSH1 0x0 KECCAK256 CALLER PUSH1 0x0 MSTORE DUP3 MSTORE PUSH1 0x40 PUSH1 0x0 KECCAK256 PUSH2 0xBFF DUP7 DUP3 SLOAD PUSH2 0x218C JUMP JUMPDEST SWAP1 SSTORE PUSH2 0xC0C DUP6 DUP3 SLOAD PUSH2 0x218C JUMP JUMPDEST SWAP1 SSTORE PUSH1 0x40 MLOAD SWAP4 DUP5 MSTORE CALLER SWAP4 LOG3 PUSH1 0x1 PUSH1 0x0 SSTORE STOP JUMPDEST PUSH1 0x40 MLOAD PUSH3 0x461BCD PUSH1 0xE5 SHL DUP2 MSTORE PUSH1 0x4 DUP2 ADD DUP4 SWAP1 MSTORE PUSH1 0xE PUSH1 0x24 DUP3 ADD MSTORE PUSH14 0x14185E5B595B9D0819985A5B1959 PUSH1 0x92 SHL PUSH1 0x44 DUP3 ADD MSTORE PUSH1 0x64 SWAP1 REVERT JUMPDEST PUSH2 0xC6B SWAP2 POP DUP4 RETURNDATASIZE DUP6 GT PUSH2 0x782 JUMPI PUSH2 0x774 DUP2 DUP4 PUSH2 0x1EF8 JUMP JUMPDEST DUP6 PUSH2 0xBB3 JUMP JUMPDEST PUSH1 0x40 MLOAD PUSH3 0x461BCD PUSH1 0xE5 SHL DUP2 MSTORE PUSH1 0x4 DUP2 ADD DUP5 SWAP1 MSTORE PUSH1 0x1C PUSH1 0x24 DUP3 ADD MSTORE PUSH32 0x4E6F7420656E6F756768207469636B65747320617661696C61626C6500000000 PUSH1 0x44 DUP3 ADD MSTORE PUSH1 0x64 SWAP1 REVERT JUMPDEST PUSH1 0x40 MLOAD PUSH3 0x461BCD PUSH1 0xE5 SHL DUP2 MSTORE PUSH1 0x4 DUP2 ADD DUP4 SWAP1 MSTORE PUSH1 0xC PUSH1 0x24 DUP3 ADD MSTORE PUSH12 0x149859999B1948195B991959 PUSH1 0xA2 SHL PUSH1 0x44 DUP3 ADD MSTORE PUSH1 0x64 SWAP1 REVERT JUMPDEST CALLVALUE PUSH2 0x1FC JUMPI PUSH1 0x0 CALLDATASIZE PUSH1 0x3 NOT ADD SLT PUSH2 0x1FC JUMPI PUSH2 0xD03 PUSH2 0x20FC JUMP JUMPDEST PUSH1 0x1 DUP1 SLOAD PUSH1 0x1 PUSH1 0x1 PUSH1 0xA0 SHL SUB NOT DUP2 AND SWAP1 SWAP2 SSTORE PUSH1 0x0 SWAP1 PUSH1 0x1 PUSH1 0x1 PUSH1 0xA0 SHL SUB AND PUSH32 0x8BE0079C531659141344CD1FD0A4F28419497F9722A3DAAFE3B4186F6B6457E0 DUP3 DUP1 LOG3 STOP JUMPDEST CALLVALUE PUSH2 0x1FC JUMPI PUSH1 0x0 CALLDATASIZE PUSH1 0x3 NOT ADD SLT PUSH2 0x1FC JUMPI PUSH1 0x20 PUSH1 0x40 MLOAD PUSH1 0xA DUP2 MSTORE RETURN JUMPDEST CALLVALUE PUSH2 0x1FC JUMPI PUSH2 0xD71 CALLDATASIZE PUSH2 0x209E JUMP JUMPDEST SWAP1 PUSH2 0xD7A PUSH2 0x21A8 JUMP JUMPDEST DUP1 PUSH1 0x0 MSTORE PUSH1 0x20 PUSH1 0x4 DUP2 MSTORE PUSH1 0x40 PUSH1 0x0 KECCAK256 SWAP1 PUSH1 0x7 DUP3 ADD SLOAD PUSH1 0xFF DUP2 AND DUP1 PUSH2 0xFB5 JUMPI JUMPDEST ISZERO PUSH2 0xF7D JUMPI PUSH1 0x8 SHR PUSH1 0xFF AND ISZERO PUSH2 0xF3D JUMPI JUMPDEST DUP4 PUSH1 0x1 SHL DUP5 DUP2 DIV PUSH1 0x2 EQ DUP6 ISZERO OR ISZERO PUSH2 0xF27 JUMPI PUSH1 0x64 SWAP1 DIV SWAP2 PUSH2 0xE36 PUSH2 0xDCE DUP5 DUP8 PUSH2 0x221E JUMP JUMPDEST PUSH1 0x1 DUP4 ADD SLOAD PUSH1 0x40 MLOAD PUSH4 0x23B872DD PUSH1 0xE0 SHL DUP1 DUP3 MSTORE CALLER PUSH1 0x4 DUP4 ADD MSTORE PUSH1 0x1 PUSH1 0x1 PUSH1 0xA0 SHL SUB SWAP3 DUP4 AND PUSH1 0x24 DUP4 ADD MSTORE PUSH1 0x44 DUP3 ADD SWAP4 SWAP1 SWAP4 MSTORE SWAP1 SWAP6 SWAP1 SWAP3 SWAP1 SWAP2 PUSH32 0x0 DUP8 AND SWAP2 DUP7 SWAP1 DUP6 SWAP1 DUP2 SWAP1 PUSH1 0x64 DUP3 ADD SWAP1 JUMP JUMPDEST SUB DUP2 PUSH1 0x0 DUP7 GAS CALL DUP1 ISZERO PUSH2 0x789 JUMPI PUSH2 0xE86 SWAP8 DUP8 SWAP6 PUSH1 0x0 SWAP3 PUSH2 0xF0A JUMPI JUMPDEST POP PUSH1 0x2 SLOAD PUSH1 0x40 MLOAD SWAP4 DUP5 MSTORE CALLER PUSH1 0x4 DUP6 ADD MSTORE AND PUSH1 0x1 PUSH1 0x1 PUSH1 0xA0 SHL SUB AND PUSH1 0x24 DUP4 ADD MSTORE PUSH1 0x44 DUP3 ADD SWAP4 SWAP1 SWAP4 MSTORE SWAP6 DUP7 SWAP3 DUP4 SWAP2 DUP3 SWAP1 PUSH1 0x64 DUP3 ADD SWAP1 JUMP JUMPDEST SUB SWAP3 GAS CALL SWAP1 DUP2 ISZERO PUSH2 0x789 JUMPI PUSH32 0xE555DA28BDB778F65D22794D88927EBAECA03F7DE9D1B7D39245BC8FB5CA078A SWAP4 PUSH1 0x5 SWAP3 PUSH2 0xEED JUMPI JUMPDEST POP DUP5 PUSH1 0x0 MSTORE PUSH1 0x6 DUP4 MSTORE PUSH1 0x40 PUSH1 0x0 KECCAK256 CALLER PUSH1 0x0 MSTORE DUP4 MSTORE PUSH1 0x40 PUSH1 0x0 KECCAK256 PUSH2 0xEDF DUP8 DUP3 SLOAD PUSH2 0x218C JUMP JUMPDEST SWAP1 SSTORE ADD PUSH2 0xC0C DUP6 DUP3 SLOAD PUSH2 0x218C JUMP JUMPDEST PUSH2 0xF03 SWAP1 DUP5 RETURNDATASIZE DUP7 GT PUSH2 0x782 JUMPI PUSH2 0x774 DUP2 DUP4 PUSH2 0x1EF8 JUMP JUMPDEST POP DUP7 PUSH2 0xEBB JUMP JUMPDEST PUSH2 0xF20 SWAP1 DUP8 RETURNDATASIZE DUP10 GT PUSH2 0x782 JUMPI PUSH2 0x774 DUP2 DUP4 PUSH2 0x1EF8 JUMP JUMPDEST POP DUP12 PUSH2 0xE51 JUMP JUMPDEST PUSH4 0x4E487B71 PUSH1 0xE0 SHL PUSH1 0x0 MSTORE PUSH1 0x11 PUSH1 0x4 MSTORE PUSH1 0x24 PUSH1 0x0 REVERT JUMPDEST PUSH1 0x6 DUP3 ADD SLOAD TIMESTAMP LT PUSH2 0xDAA JUMPI PUSH1 0x64 SWAP1 PUSH1 0x40 MLOAD SWAP1 PUSH3 0x461BCD PUSH1 0xE5 SHL DUP3 MSTORE PUSH1 0x4 DUP3 ADD MSTORE PUSH1 0xE PUSH1 0x24 DUP3 ADD MSTORE PUSH14 0x111BDB985D1A5BDB88195B991959 PUSH1 0x92 SHL PUSH1 0x44 DUP3 ADD MSTORE REVERT JUMPDEST PUSH1 0x40 MLOAD PUSH3 0x461BCD PUSH1 0xE5 SHL DUP2 MSTORE PUSH1 0x4 DUP2 ADD DUP4 SWAP1 MSTORE PUSH1 0x10 PUSH1 0x24 DUP3 ADD MSTORE PUSH16 0x24B73B30B634B2103237B730BA34B7B7 PUSH1 0x81 SHL PUSH1 0x44 DUP3 ADD MSTORE PUSH1 0x64 SWAP1 REVERT JUMPDEST POP DUP5 ISZERO ISZERO PUSH2 0xD99 JUMP JUMPDEST CALLVALUE PUSH2 0x1FC JUMPI PUSH1 0x20 CALLDATASIZE PUSH1 0x3 NOT ADD SLT PUSH2 0x1FC JUMPI PUSH1 0x4 CALLDATALOAD PUSH1 0x0 SWAP1 DUP2 MSTORE PUSH1 0x3 PUSH1 0x20 MSTORE PUSH1 0x40 SWAP1 KECCAK256 DUP1 SLOAD PUSH1 0x1 DUP3 ADD SLOAD PUSH1 0x1 PUSH1 0x1 PUSH1 0xA0 SHL SUB SWAP1 DUP2 AND SWAP3 SWAP1 PUSH2 0x1000 PUSH1 0x2 DUP4 ADD PUSH2 0x1FAB JUMP JUMPDEST PUSH2 0x100C PUSH1 0x3 DUP5 ADD PUSH2 0x1FAB JUMP JUMPDEST SWAP3 PUSH1 0x4 DUP2 ADD SLOAD SWAP4 PUSH1 0x5 DUP3 ADD SLOAD PUSH1 0x6 DUP4 ADD SLOAD SWAP1 PUSH2 0x1063 PUSH1 0x7 DUP6 ADD SLOAD SWAP4 PUSH2 0x1055 PUSH1 0x9 PUSH1 0x8 DUP9 ADD SLOAD SWAP8 ADD SLOAD SWAP8 PUSH1 0x40 MLOAD SWAP13 DUP14 SWAP13 DUP14 MSTORE PUSH1 0x20 DUP14 ADD MSTORE PUSH1 0x40 DUP13 PUSH2 0x200 SWAP2 DUP3 SWAP2 ADD MSTORE DUP13 ADD SWAP1 PUSH2 0x2051 JUMP JUMPDEST SWAP1 DUP11 DUP3 SUB PUSH1 0x60 DUP13 ADD MSTORE PUSH2 0x2051 JUMP JUMPDEST SWAP7 PUSH1 0x80 DUP10 ADD MSTORE PUSH1 0xA0 DUP9 ADD MSTORE PUSH1 0xC0 DUP8 ADD MSTORE PUSH1 0xE0 DUP7 ADD MSTORE PUSH2 0x100 DUP6 ADD MSTORE PUSH1 0xFF SWAP2 DUP3 DUP3 AND ISZERO ISZERO PUSH2 0x120 DUP7 ADD MSTORE DUP3 DUP3 PUSH1 0x8 SHR AND ISZERO ISZERO PUSH2 0x140 DUP7 ADD MSTORE DUP2 PUSH1 0x10 SHR AND PUSH2 0x160 DUP6 ADD MSTORE PUSH2 0x10B8 PUSH2 0x180 DUP6 ADD DUP4 DUP4 PUSH1 0xB0 SHR AND PUSH2 0x2091 JUMP JUMPDEST DUP2 DUP2 PUSH1 0xB8 SHR AND ISZERO ISZERO PUSH2 0x1A0 DUP6 ADD MSTORE DUP2 DUP2 PUSH1 0xC0 SHR AND ISZERO ISZERO PUSH2 0x1C0 DUP6 ADD MSTORE PUSH1 0xC8 SHR AND ISZERO ISZERO PUSH2 0x1E0 DUP4 ADD MSTORE SUB SWAP1 RETURN JUMPDEST CALLVALUE PUSH2 0x1FC JUMPI PUSH1 0x0 CALLDATASIZE PUSH1 0x3 NOT ADD SLT PUSH2 0x1FC JUMPI PUSH1 0x40 MLOAD PUSH32 0x0 PUSH1 0x1 PUSH1 0x1 PUSH1 0xA0 SHL SUB AND DUP2 MSTORE PUSH1 0x20 SWAP1 RETURN JUMPDEST CALLVALUE PUSH2 0x1FC JUMPI PUSH1 0xE0 CALLDATASIZE PUSH1 0x3 NOT ADD SLT PUSH2 0x1FC JUMPI PUSH1 0x4 CALLDATALOAD PUSH8 0xFFFFFFFFFFFFFFFF DUP2 GT PUSH2 0x1FC JUMPI PUSH2 0x115A SWAP1 CALLDATASIZE SWAP1 PUSH1 0x4 ADD PUSH2 0x1F1A JUMP JUMPDEST PUSH1 0x24 CALLDATALOAD PUSH8 0xFFFFFFFFFFFFFFFF DUP2 GT PUSH2 0x1FC JUMPI PUSH2 0x117A SWAP1 CALLDATASIZE SWAP1 PUSH1 0x4 ADD PUSH2 0x1F1A JUMP JUMPDEST PUSH1 0x2 PUSH1 0xC4 CALLDATALOAD LT ISZERO PUSH2 0x1FC JUMPI PUSH2 0x118D PUSH2 0x21A8 JUMP JUMPDEST PUSH1 0x44 CALLDATALOAD ISZERO PUSH2 0x1945 JUMPI PUSH1 0x64 CALLDATALOAD ISZERO PUSH2 0x18F4 JUMPI PUSH1 0x84 CALLDATALOAD ISZERO PUSH2 0x18A4 JUMPI PUSH1 0xA4 CALLDATALOAD ISZERO PUSH2 0x185F JUMPI PUSH1 0xC4 CALLDATALOAD ISZERO PUSH2 0x17BB JUMPI JUMPDEST PUSH1 0x2 SLOAD PUSH1 0x40 MLOAD PUSH4 0x23B872DD PUSH1 0xE0 SHL DUP2 MSTORE CALLER PUSH1 0x4 DUP3 ADD MSTORE PUSH1 0x1 PUSH1 0x1 PUSH1 0xA0 SHL SUB SWAP2 DUP3 AND PUSH1 0x24 DUP3 ADD MSTORE PUSH9 0x15AF1D78B58C40000 PUSH1 0x44 DUP3 ADD MSTORE SWAP1 PUSH1 0x20 SWAP1 DUP3 SWAP1 PUSH1 0x64 SWAP1 DUP3 SWAP1 PUSH1 0x0 SWAP1 PUSH32 0x0 AND GAS CALL DUP1 ISZERO PUSH2 0x789 JUMPI PUSH2 0x1234 SWAP2 PUSH1 0x0 SWAP2 PUSH2 0x179C JUMPI POP PUSH2 0x2140 JUMP JUMPDEST PUSH1 0xC4 CALLDATALOAD ISZERO PUSH2 0x16CF JUMPI JUMPDEST PUSH1 0x7 SLOAD SWAP1 PUSH2 0x124D PUSH1 0xA4 CALLDATALOAD TIMESTAMP PUSH2 0x218C JUMP JUMPDEST SWAP1 PUSH1 0x40 MLOAD SWAP4 DUP5 PUSH2 0x200 DUP2 ADD LT PUSH8 0xFFFFFFFFFFFFFFFF PUSH2 0x200 DUP8 ADD GT OR PUSH2 0x672 JUMPI PUSH2 0x200 DUP6 ADD PUSH1 0x40 MSTORE DUP4 DUP6 MSTORE CALLER PUSH1 0x20 DUP7 ADD MSTORE PUSH1 0x40 DUP6 ADD MSTORE PUSH1 0x60 DUP5 ADD MSTORE PUSH1 0x44 CALLDATALOAD PUSH1 0x80 DUP5 ADD MSTORE PUSH1 0x64 CALLDATALOAD PUSH1 0xA0 DUP5 ADD MSTORE PUSH1 0x84 CALLDATALOAD PUSH1 0xC0 DUP5 ADD MSTORE PUSH1 0x0 PUSH1 0xE0 DUP5 ADD MSTORE PUSH2 0x100 DUP4 ADD MSTORE PUSH1 0x1 PUSH2 0x120 DUP4 ADD MSTORE PUSH1 0x0 PUSH2 0x140 DUP4 ADD MSTORE PUSH1 0x0 PUSH2 0x160 DUP4 ADD MSTORE PUSH1 0xC4 CALLDATALOAD PUSH2 0x180 DUP4 ADD MSTORE PUSH1 0x0 PUSH2 0x1A0 DUP4 ADD MSTORE PUSH1 0x0 PUSH2 0x1C0 DUP4 ADD MSTORE PUSH1 0x0 PUSH2 0x1E0 DUP4 ADD MSTORE PUSH1 0x0 MSTORE PUSH1 0x3 PUSH1 0x20 MSTORE PUSH1 0x40 PUSH1 0x0 KECCAK256 SWAP1 DUP1 MLOAD DUP3 SSTORE PUSH1 0x1 DUP3 ADD PUSH1 0x1 DUP1 PUSH1 0xA0 SHL SUB PUSH1 0x20 DUP4 ADD MLOAD AND PUSH1 0x1 PUSH1 0x1 PUSH1 0x60 SHL SUB PUSH1 0xA0 SHL DUP3 SLOAD AND OR SWAP1 SSTORE PUSH1 0x40 DUP2 ADD MLOAD SWAP2 DUP3 MLOAD PUSH8 0xFFFFFFFFFFFFFFFF DUP2 GT PUSH2 0x672 JUMPI PUSH2 0x133E PUSH1 0x2 DUP4 ADD SLOAD PUSH2 0x1F71 JUMP JUMPDEST PUSH1 0x1F DUP2 GT PUSH2 0x1688 JUMPI JUMPDEST POP PUSH1 0x20 PUSH1 0x1F DUP3 GT PUSH1 0x1 EQ PUSH2 0x161A JUMPI DUP2 SWAP3 SWAP4 SWAP5 PUSH1 0x0 SWAP3 PUSH2 0x160F JUMPI JUMPDEST POP POP DUP2 PUSH1 0x1 SHL SWAP2 PUSH1 0x0 NOT SWAP1 PUSH1 0x3 SHL SHR NOT AND OR PUSH1 0x2 DUP3 ADD SSTORE JUMPDEST PUSH1 0x60 DUP3 ADD MLOAD DUP1 MLOAD SWAP1 PUSH8 0xFFFFFFFFFFFFFFFF DUP3 GT PUSH2 0x672 JUMPI PUSH2 0x139D PUSH1 0x3 DUP5 ADD SLOAD PUSH2 0x1F71 JUMP JUMPDEST PUSH1 0x1F DUP2 GT PUSH2 0x15C8 JUMPI JUMPDEST POP PUSH1 0x20 SWAP1 PUSH1 0x1F DUP4 GT PUSH1 0x1 EQ PUSH2 0x1555 JUMPI PUSH1 0x9 SWAP4 SWAP3 SWAP2 PUSH1 0x0 SWAP2 DUP4 PUSH2 0x154A JUMPI JUMPDEST POP POP DUP2 PUSH1 0x1 SHL SWAP2 PUSH1 0x0 NOT SWAP1 PUSH1 0x3 SHL SHR NOT AND OR PUSH1 0x3 DUP3 ADD SSTORE JUMPDEST PUSH1 0x80 DUP4 ADD MLOAD PUSH1 0x4 DUP3 ADD SSTORE PUSH1 0xA0 DUP4 ADD MLOAD PUSH1 0x5 DUP3 ADD SSTORE PUSH1 0xC0 DUP4 ADD MLOAD PUSH1 0x6 DUP3 ADD SSTORE PUSH1 0xE0 DUP4 ADD MLOAD PUSH1 0x7 DUP3 ADD SSTORE PUSH2 0x100 DUP4 ADD MLOAD PUSH1 0x8 DUP3 ADD SSTORE ADD SWAP1 PUSH2 0x142D PUSH2 0x120 DUP3 ADD MLOAD ISZERO ISZERO DUP4 SWAP1 PUSH1 0xFF DUP1 NOT DUP4 SLOAD AND SWAP2 ISZERO ISZERO AND OR SWAP1 SSTORE JUMP JUMPDEST PUSH2 0x140 DUP2 ADD MLOAD DUP3 SLOAD PUSH2 0xFF00 NOT AND SWAP1 ISZERO ISZERO PUSH1 0x8 SHL PUSH2 0xFF00 AND OR DUP3 SSTORE PUSH2 0x160 DUP2 ADD MLOAD DUP3 SLOAD PUSH3 0x10000 PUSH1 0x1 PUSH1 0xB0 SHL SUB NOT AND PUSH1 0x10 SWAP2 SWAP1 SWAP2 SHL PUSH3 0x10000 PUSH1 0x1 PUSH1 0xB0 SHL SUB AND OR DUP3 SSTORE PUSH2 0x180 DUP2 ADD MLOAD SWAP1 PUSH1 0x2 DUP3 LT ISZERO PUSH2 0x1534 JUMPI DUP3 SLOAD PUSH2 0x1A0 DUP3 ADD MLOAD PUSH2 0x1C0 DUP4 ADD MLOAD PUSH2 0x1E0 SWAP1 SWAP4 ADD MLOAD SWAP3 ISZERO ISZERO PUSH1 0xC0 SHL PUSH1 0xFF PUSH1 0xC0 SHL AND SWAP1 ISZERO ISZERO PUSH1 0xB8 SHL PUSH1 0xFF PUSH1 0xB8 SHL AND PUSH1 0xB0 SWAP5 SWAP1 SWAP5 SHL PUSH1 0xFF PUSH1 0xB0 SHL AND PUSH4 0xFFFFFFFF PUSH1 0xB0 SHL NOT SWAP1 SWAP3 AND SWAP2 SWAP1 SWAP2 OR SWAP3 SWAP1 SWAP3 OR SWAP2 SWAP1 SWAP2 OR SWAP1 ISZERO ISZERO PUSH1 0xC8 SHL PUSH1 0xFF PUSH1 0xC8 SHL AND OR SWAP1 SSTORE PUSH1 0x7 SLOAD PUSH1 0x40 MLOAD PUSH1 0x44 CALLDATALOAD DUP2 MSTORE PUSH2 0x152A SWAP2 SWAP1 PUSH2 0x14FE PUSH1 0x20 DUP3 ADD PUSH1 0xC4 CALLDATALOAD PUSH2 0x2091 JUMP JUMPDEST DUP2 PUSH32 0xC890C80DC6C21B947623FF0DE3CBAF1A694C5D9F0AA6334EAECAE1FB59FE9609 PUSH1 0x40 CALLER SWAP4 LOG3 PUSH2 0x2199 JUMP JUMPDEST PUSH1 0x7 SSTORE PUSH1 0x1 PUSH1 0x0 SSTORE STOP JUMPDEST PUSH4 0x4E487B71 PUSH1 0xE0 SHL PUSH1 0x0 MSTORE PUSH1 0x21 PUSH1 0x4 MSTORE PUSH1 0x24 PUSH1 0x0 REVERT JUMPDEST ADD MLOAD SWAP1 POP DUP6 DUP1 PUSH2 0x13C3 JUMP JUMPDEST SWAP1 PUSH1 0x3 DUP5 ADD PUSH1 0x0 MSTORE PUSH1 0x20 PUSH1 0x0 KECCAK256 SWAP2 PUSH1 0x0 JUMPDEST PUSH1 0x1F NOT DUP6 AND DUP2 LT PUSH2 0x15B0 JUMPI POP SWAP2 DUP4 SWAP2 PUSH1 0x1 SWAP4 PUSH1 0x9 SWAP7 SWAP6 PUSH1 0x1F NOT DUP2 AND LT PUSH2 0x1597 JUMPI JUMPDEST POP POP POP DUP2 SHL ADD PUSH1 0x3 DUP3 ADD SSTORE PUSH2 0x13DB JUMP JUMPDEST ADD MLOAD PUSH1 0x0 NOT PUSH1 0xF8 DUP5 PUSH1 0x3 SHL AND SHR NOT AND SWAP1 SSTORE DUP6 DUP1 DUP1 PUSH2 0x1587 JUMP JUMPDEST SWAP2 SWAP3 PUSH1 0x20 PUSH1 0x1 DUP2 SWAP3 DUP7 DUP6 ADD MLOAD DUP2 SSTORE ADD SWAP5 ADD SWAP3 ADD PUSH2 0x1566 JUMP JUMPDEST PUSH1 0x3 DUP5 ADD PUSH1 0x0 MSTORE PUSH1 0x20 PUSH1 0x0 KECCAK256 PUSH1 0x1F DUP5 ADD PUSH1 0x5 SHR DUP2 ADD PUSH1 0x20 DUP6 LT PUSH2 0x1608 JUMPI JUMPDEST PUSH1 0x1F DUP4 ADD PUSH1 0x5 SHR DUP3 ADD DUP2 LT PUSH2 0x15FC JUMPI POP POP PUSH2 0x13A6 JUMP JUMPDEST PUSH1 0x0 DUP2 SSTORE PUSH1 0x1 ADD PUSH2 0x15E6 JUMP JUMPDEST POP DUP1 PUSH2 0x15E6 JUMP JUMPDEST ADD MLOAD SWAP1 POP DUP5 DUP1 PUSH2 0x1361 JUMP JUMPDEST PUSH1 0x2 DUP4 ADD PUSH1 0x0 MSTORE PUSH1 0x20 PUSH1 0x0 KECCAK256 SWAP1 PUSH1 0x0 JUMPDEST PUSH1 0x1F NOT DUP5 AND DUP2 LT PUSH2 0x1670 JUMPI POP PUSH1 0x1 SWAP4 SWAP5 SWAP6 DUP4 PUSH1 0x1F NOT DUP2 AND LT PUSH2 0x1657 JUMPI JUMPDEST POP POP POP DUP2 SHL ADD PUSH1 0x2 DUP3 ADD SSTORE PUSH2 0x1379 JUMP JUMPDEST ADD MLOAD PUSH1 0x0 NOT PUSH1 0xF8 DUP5 PUSH1 0x3 SHL AND SHR NOT AND SWAP1 SSTORE DUP5 DUP1 DUP1 PUSH2 0x1647 JUMP JUMPDEST SWAP1 SWAP2 PUSH1 0x20 PUSH1 0x1 DUP2 SWAP3 DUP6 DUP11 ADD MLOAD DUP2 SSTORE ADD SWAP4 ADD SWAP2 ADD PUSH2 0x162A JUMP JUMPDEST PUSH1 0x2 DUP4 ADD PUSH1 0x0 MSTORE PUSH1 0x20 PUSH1 0x0 KECCAK256 PUSH1 0x1F DUP4 ADD PUSH1 0x5 SHR DUP2 ADD PUSH1 0x20 DUP5 LT PUSH2 0x16C8 JUMPI JUMPDEST PUSH1 0x1F DUP4 ADD PUSH1 0x5 SHR DUP3 ADD DUP2 LT PUSH2 0x16BC JUMPI POP POP PUSH2 0x1347 JUMP JUMPDEST PUSH1 0x0 DUP2 SSTORE PUSH1 0x1 ADD PUSH2 0x16A6 JUMP JUMPDEST POP DUP1 PUSH2 0x16A6 JUMP JUMPDEST PUSH1 0x40 MLOAD PUSH4 0x23B872DD PUSH1 0xE0 SHL DUP2 MSTORE CALLER PUSH1 0x4 DUP3 ADD MSTORE ADDRESS PUSH1 0x24 DUP3 ADD MSTORE PUSH1 0x44 DUP1 CALLDATALOAD SWAP1 DUP3 ADD MSTORE PUSH1 0x20 DUP2 PUSH1 0x64 DUP2 PUSH1 0x0 PUSH1 0x1 PUSH1 0x1 PUSH1 0xA0 SHL SUB PUSH32 0x0 AND GAS CALL SWAP1 DUP2 ISZERO PUSH2 0x789 JUMPI PUSH1 0x0 SWAP2 PUSH2 0x177D JUMPI JUMPDEST POP PUSH2 0x123D JUMPI PUSH1 0x40 MLOAD PUSH3 0x461BCD PUSH1 0xE5 SHL DUP2 MSTORE PUSH1 0x20 PUSH1 0x4 DUP3 ADD MSTORE PUSH1 0x1C PUSH1 0x24 DUP3 ADD MSTORE PUSH32 0x5072697A6520616D6F756E74207472616E73666572206661696C656400000000 PUSH1 0x44 DUP3 ADD MSTORE PUSH1 0x64 SWAP1 REVERT JUMPDEST PUSH2 0x1796 SWAP2 POP PUSH1 0x20 RETURNDATASIZE PUSH1 0x20 GT PUSH2 0x782 JUMPI PUSH2 0x774 DUP2 DUP4 PUSH2 0x1EF8 JUMP JUMPDEST DUP4 PUSH2 0x1733 JUMP JUMPDEST PUSH2 0x17B5 SWAP2 POP PUSH1 0x20 RETURNDATASIZE PUSH1 0x20 GT PUSH2 0x782 JUMPI PUSH2 0x774 DUP2 DUP4 PUSH2 0x1EF8 JUMP JUMPDEST DUP5 PUSH2 0x3AB JUMP JUMPDEST PUSH1 0x1 DUP1 PUSH1 0xA0 SHL SUB DUP1 PUSH32 0x0 AND CALLER EQ SWAP1 DUP2 ISZERO PUSH2 0x1851 JUMPI JUMPDEST POP PUSH2 0x11B6 JUMPI PUSH1 0x40 MLOAD PUSH3 0x461BCD PUSH1 0xE5 SHL DUP2 MSTORE PUSH1 0x20 PUSH1 0x4 DUP3 ADD MSTORE PUSH1 0x2F PUSH1 0x24 DUP3 ADD MSTORE PUSH32 0x4F6E6C7920617574686F72697A65642077616C6C6574732063616E2063726561 PUSH1 0x44 DUP3 ADD MSTORE PUSH15 0x7465205553445420726166666C6573 PUSH1 0x88 SHL PUSH1 0x64 DUP3 ADD MSTORE PUSH1 0x84 SWAP1 REVERT JUMPDEST SWAP1 POP PUSH1 0x2 SLOAD AND CALLER EQ DUP4 PUSH2 0x17EF JUMP JUMPDEST PUSH1 0x40 MLOAD PUSH3 0x461BCD PUSH1 0xE5 SHL DUP2 MSTORE PUSH1 0x20 PUSH1 0x4 DUP3 ADD MSTORE PUSH1 0x1F PUSH1 0x24 DUP3 ADD MSTORE PUSH32 0x4475726174696F6E206D7573742062652067726561746572207468616E203000 PUSH1 0x44 DUP3 ADD MSTORE PUSH1 0x64 SWAP1 REVERT JUMPDEST PUSH1 0x40 MLOAD PUSH3 0x461BCD PUSH1 0xE5 SHL DUP2 MSTORE PUSH1 0x20 PUSH1 0x4 DUP3 ADD MSTORE PUSH1 0x22 PUSH1 0x24 DUP3 ADD MSTORE PUSH32 0x4D6178207469636B657473206D7573742062652067726561746572207468616E PUSH1 0x44 DUP3 ADD MSTORE PUSH2 0x203 PUSH1 0xF4 SHL PUSH1 0x64 DUP3 ADD MSTORE PUSH1 0x84 SWAP1 REVERT JUMPDEST PUSH1 0x40 MLOAD PUSH3 0x461BCD PUSH1 0xE5 SHL DUP2 MSTORE PUSH1 0x20 PUSH1 0x4 DUP3 ADD MSTORE PUSH1 0x23 PUSH1 0x24 DUP3 ADD MSTORE PUSH32 0x5469636B6574207072696365206D757374206265206772656174657220746861 PUSH1 0x44 DUP3 ADD MSTORE PUSH3 0x6E203 PUSH1 0xEC SHL PUSH1 0x64 DUP3 ADD MSTORE PUSH1 0x84 SWAP1 REVERT JUMPDEST PUSH1 0x40 MLOAD PUSH3 0x461BCD PUSH1 0xE5 SHL DUP2 MSTORE PUSH1 0x20 PUSH1 0x4 DUP3 ADD MSTORE PUSH1 0x23 PUSH1 0x24 DUP3 ADD MSTORE PUSH32 0x5072697A6520616D6F756E74206D757374206265206772656174657220746861 PUSH1 0x44 DUP3 ADD MSTORE PUSH3 0x6E203 PUSH1 0xEC SHL PUSH1 0x64 DUP3 ADD MSTORE PUSH1 0x84 SWAP1 REVERT JUMPDEST CALLVALUE PUSH2 0x1FC JUMPI PUSH1 0x0 CALLDATASIZE PUSH1 0x3 NOT ADD SLT PUSH2 0x1FC JUMPI PUSH1 0x20 PUSH1 0x8 SLOAD PUSH1 0x40 MLOAD SWAP1 DUP2 MSTORE RETURN JUMPDEST CALLVALUE PUSH2 0x1FC JUMPI PUSH1 0x40 CALLDATASIZE PUSH1 0x3 NOT ADD SLT PUSH2 0x1FC JUMPI PUSH1 0x24 DUP1 CALLDATALOAD SWAP1 DUP2 ISZERO ISZERO DUP3 SUB PUSH2 0x1FC JUMPI PUSH1 0x4 CALLDATALOAD SWAP1 DUP2 PUSH1 0x0 MSTORE PUSH1 0x20 PUSH1 0x3 DUP2 MSTORE PUSH1 0x40 PUSH1 0x0 KECCAK256 SWAP4 PUSH1 0x9 DUP6 ADD DUP1 SLOAD SWAP2 PUSH1 0xFF SWAP3 DUP4 DUP2 PUSH1 0x8 SHR AND ISZERO PUSH2 0x1E7F JUMPI PUSH1 0xC8 SHR DUP4 AND PUSH2 0x1E3B JUMPI PUSH1 0x1 SWAP7 SWAP1 SWAP7 ADD SLOAD PUSH1 0x1 PUSH1 0x1 PUSH1 0xA0 SHL SUB SWAP7 SWAP1 CALLER SWAP1 DUP9 AND SUB PUSH2 0x1DCC JUMPI DUP2 SLOAD PUSH1 0xFF PUSH1 0xB8 SHL NOT AND SWAP1 ISZERO ISZERO PUSH1 0xB8 SHL PUSH1 0xFF PUSH1 0xB8 SHL AND OR DUP2 SSTORE JUMPDEST SLOAD DUP6 DUP3 DUP3 PUSH1 0xB8 SHR AND SWAP2 DUP3 PUSH2 0x1DBE JUMPI JUMPDEST DUP3 PUSH2 0x1DAF JUMPI JUMPDEST POP POP PUSH2 0x1A55 JUMPI STOP JUMPDEST DUP4 PUSH1 0x0 MSTORE PUSH1 0x3 DUP3 MSTORE PUSH1 0x40 PUSH1 0x0 KECCAK256 SWAP5 PUSH1 0x9 DUP7 ADD SWAP2 DUP3 SLOAD DUP2 DUP2 PUSH1 0xC8 SHR AND PUSH2 0x1D78 JUMPI PUSH1 0xFF PUSH1 0xC8 SHL NOT AND PUSH1 0x1 PUSH1 0xC8 SHL OR DUP1 DUP5 SSTORE PUSH1 0x7 DUP9 ADD SLOAD PUSH1 0x5 DUP10 ADD SLOAD SWAP2 SWAP3 SWAP2 PUSH2 0x1A9A SWAP2 PUSH2 0x220B JUMP JUMPDEST SWAP2 PUSH1 0xA DUP4 MUL DUP4 DUP2 DIV PUSH1 0xA EQ DUP5 ISZERO OR ISZERO PUSH2 0x1D63 JUMPI PUSH1 0x64 SWAP1 DIV SWAP7 PUSH1 0x32 DUP9 MUL SWAP4 DUP9 DUP6 DIV PUSH1 0x32 EQ DUP10 ISZERO OR ISZERO PUSH2 0x1D4E JUMPI DUP9 PUSH2 0x1ACF SWAP2 PUSH2 0x221E JUMP JUMPDEST SWAP3 DUP3 PUSH1 0xB0 SHR AND SWAP1 PUSH1 0x2 DUP3 LT ISZERO PUSH2 0x1D3A JUMPI POP DUP7 SWAP2 DUP6 SWAP2 PUSH2 0x1CB4 JUMPI POP SWAP2 PUSH2 0x1B02 PUSH2 0x1B30 SWAP4 DUP8 SLOAD PUSH1 0x10 SHR AND SWAP2 PUSH1 0x4 DUP13 ADD SLOAD PUSH2 0x218C JUMP JUMPDEST PUSH1 0x40 MLOAD PUSH4 0xA9059CBB PUSH1 0xE0 SHL DUP2 MSTORE PUSH1 0x1 PUSH1 0x1 PUSH1 0xA0 SHL SUB SWAP1 SWAP3 AND PUSH1 0x4 DUP4 ADD MSTORE PUSH1 0x24 DUP3 ADD MSTORE SWAP2 DUP3 SWAP1 DUP2 SWAP1 PUSH1 0x44 DUP3 ADD SWAP1 JUMP JUMPDEST SUB DUP2 PUSH1 0x0 DUP8 PUSH32 0x0 AND GAS CALL DUP1 ISZERO PUSH2 0x789 JUMPI PUSH2 0x1C97 JUMPI JUMPDEST POP JUMPDEST PUSH1 0x2 SLOAD PUSH1 0x40 MLOAD PUSH4 0xA9059CBB PUSH1 0xE0 SHL DUP1 DUP3 MSTORE SWAP2 DUP5 AND PUSH1 0x1 PUSH1 0x1 PUSH1 0xA0 SHL SUB AND PUSH1 0x4 DUP3 ADD MSTORE PUSH1 0x64 SWAP1 SWAP3 DIV PUSH1 0x24 DUP4 ADD DUP2 SWAP1 MSTORE SWAP2 SWAP6 PUSH32 0x0 DUP5 AND SWAP1 DUP7 DUP9 PUSH1 0x44 DUP2 PUSH1 0x0 DUP7 GAS CALL DUP1 ISZERO PUSH2 0x789 JUMPI PUSH2 0x1BE9 DUP9 SWAP6 DUP8 PUSH1 0x1 DUP15 PUSH2 0x1C16 SWAP14 PUSH1 0x0 SWAP7 PUSH2 0x1C7A JUMPI JUMPDEST POP ADD SLOAD AND SWAP4 PUSH2 0x221E JUMP JUMPDEST PUSH1 0x40 MLOAD SWAP5 DUP6 MSTORE PUSH1 0x1 PUSH1 0x1 PUSH1 0xA0 SHL SUB SWAP1 SWAP3 AND PUSH1 0x4 DUP6 ADD MSTORE PUSH1 0x24 DUP5 ADD SWAP2 SWAP1 SWAP2 MSTORE SWAP2 SWAP7 DUP8 SWAP3 DUP4 SWAP2 DUP3 SWAP1 PUSH1 0x44 DUP3 ADD SWAP1 JUMP JUMPDEST SUB SWAP3 GAS CALL SWAP2 DUP3 ISZERO PUSH2 0x789 JUMPI PUSH32 0x5621778AB13FBF7130D91AE5035A140B79A6CFD120059C2EA0FEC2A5CE6731A6 SWAP5 PUSH1 0x4 SWAP4 PUSH2 0x1C5D JUMPI JUMPDEST POP SLOAD PUSH1 0x10 SHR AND SWAP5 ADD SLOAD PUSH1 0x40 MLOAD SWAP1 DUP2 MSTORE LOG3 STOP JUMPDEST PUSH2 0x1C73 SWAP1 DUP6 RETURNDATASIZE DUP8 GT PUSH2 0x782 JUMPI PUSH2 0x774 DUP2 DUP4 PUSH2 0x1EF8 JUMP JUMPDEST POP DUP8 PUSH2 0x1C4B JUMP JUMPDEST PUSH2 0x1C90 SWAP1 DUP12 RETURNDATASIZE DUP14 GT PUSH2 0x782 JUMPI PUSH2 0x774 DUP2 DUP4 PUSH2 0x1EF8 JUMP JUMPDEST POP CODESIZE PUSH2 0x1BDF JUMP JUMPDEST PUSH2 0x1CAD SWAP1 DUP6 RETURNDATASIZE DUP8 GT PUSH2 0x782 JUMPI PUSH2 0x774 DUP2 DUP4 PUSH2 0x1EF8 JUMP JUMPDEST POP DUP8 PUSH2 0x1B64 JUMP JUMPDEST PUSH1 0x40 MLOAD PUSH4 0xA9059CBB PUSH1 0xE0 SHL DUP2 MSTORE PUSH1 0x10 SWAP2 SWAP1 SWAP2 SHR SWAP2 SWAP1 SWAP2 AND PUSH1 0x1 PUSH1 0x1 PUSH1 0xA0 SHL SUB AND PUSH1 0x4 DUP3 ADD MSTORE PUSH1 0x24 DUP2 ADD SWAP3 SWAP1 SWAP3 MSTORE DUP2 PUSH1 0x44 DUP2 PUSH1 0x0 PUSH32 0x0 DUP9 AND GAS CALL DUP1 ISZERO PUSH2 0x789 JUMPI PUSH2 0x1D1D JUMPI JUMPDEST POP PUSH2 0x1B66 JUMP JUMPDEST PUSH2 0x1D33 SWAP1 DUP6 RETURNDATASIZE DUP8 GT PUSH2 0x782 JUMPI PUSH2 0x774 DUP2 DUP4 PUSH2 0x1EF8 JUMP JUMPDEST POP DUP8 PUSH2 0x1D17 JUMP JUMPDEST PUSH4 0x4E487B71 PUSH1 0xE0 SHL PUSH1 0x0 SWAP1 DUP2 MSTORE PUSH1 0x21 PUSH1 0x4 MSTORE REVERT JUMPDEST POP PUSH4 0x4E487B71 PUSH1 0xE0 SHL PUSH1 0x0 SWAP1 DUP2 MSTORE PUSH1 0x11 PUSH1 0x4 MSTORE REVERT JUMPDEST DUP8 PUSH4 0x4E487B71 PUSH1 0xE0 SHL PUSH1 0x0 MSTORE PUSH1 0x11 PUSH1 0x4 MSTORE PUSH1 0x0 REVERT JUMPDEST PUSH1 0x40 MLOAD PUSH3 0x461BCD PUSH1 0xE5 SHL DUP2 MSTORE PUSH1 0x4 DUP2 ADD DUP7 SWAP1 MSTORE PUSH1 0x10 DUP2 DUP9 ADD MSTORE PUSH16 0x105B1C9958591E481C995B19585CD959 PUSH1 0x82 SHL PUSH1 0x44 DUP3 ADD MSTORE PUSH1 0x64 SWAP1 REVERT JUMPDEST PUSH1 0x10 SHR AND ISZERO ISZERO SWAP1 POP DUP6 DUP8 PUSH2 0x1A4D JUMP JUMPDEST SWAP2 POP DUP3 DUP3 PUSH1 0xC0 SHR AND SWAP2 PUSH2 0x1A47 JUMP JUMPDEST DUP7 PUSH1 0x1 SLOAD AND CALLER EQ PUSH1 0x0 EQ PUSH2 0x1DF7 JUMPI DUP2 SLOAD PUSH1 0xFF PUSH1 0xC0 SHL NOT AND SWAP1 ISZERO ISZERO PUSH1 0xC0 SHL PUSH1 0xFF PUSH1 0xC0 SHL AND OR DUP2 SSTORE PUSH2 0x1A38 JUMP JUMPDEST PUSH1 0x40 MLOAD PUSH3 0x461BCD PUSH1 0xE5 SHL DUP2 MSTORE PUSH1 0x4 DUP2 ADD DUP6 SWAP1 MSTORE PUSH1 0x19 DUP2 DUP8 ADD MSTORE PUSH32 0x4E6F7420617574686F72697A656420746F20617070726F766500000000000000 PUSH1 0x44 DUP3 ADD MSTORE PUSH1 0x64 SWAP1 REVERT JUMPDEST PUSH1 0x40 MLOAD PUSH3 0x461BCD PUSH1 0xE5 SHL DUP2 MSTORE PUSH1 0x4 DUP2 ADD DUP6 SWAP1 MSTORE PUSH1 0x17 DUP2 DUP8 ADD MSTORE PUSH32 0x5061796F757420616C72656164792072656C6561736564000000000000000000 PUSH1 0x44 DUP3 ADD MSTORE PUSH1 0x64 SWAP1 REVERT JUMPDEST PUSH1 0x40 MLOAD PUSH3 0x461BCD PUSH1 0xE5 SHL DUP2 MSTORE PUSH1 0x4 DUP2 ADD DUP7 SWAP1 MSTORE PUSH1 0x14 DUP2 DUP9 ADD MSTORE PUSH20 0x149859999B19481B9BDD0818DBDB5C1B195D1959 PUSH1 0x62 SHL PUSH1 0x44 DUP3 ADD MSTORE PUSH1 0x64 SWAP1 REVERT JUMPDEST CALLVALUE PUSH2 0x1FC JUMPI PUSH1 0x0 CALLDATASIZE PUSH1 0x3 NOT ADD SLT PUSH2 0x1FC JUMPI DUP1 PUSH1 0x2 PUSH1 0x20 SWAP3 MSTORE RETURN JUMPDEST CALLVALUE PUSH2 0x1FC JUMPI PUSH1 0x0 CALLDATASIZE PUSH1 0x3 NOT ADD SLT PUSH2 0x1FC JUMPI PUSH1 0x20 PUSH1 0x40 MLOAD PUSH9 0x15AF1D78B58C40000 DUP2 MSTORE RETURN JUMPDEST SWAP1 PUSH1 0x1F DUP1 NOT SWAP2 ADD AND DUP2 ADD SWAP1 DUP2 LT PUSH8 0xFFFFFFFFFFFFFFFF DUP3 GT OR PUSH2 0x672 JUMPI PUSH1 0x40 MSTORE JUMP JUMPDEST DUP2 PUSH1 0x1F DUP3 ADD SLT ISZERO PUSH2 0x1FC JUMPI DUP1 CALLDATALOAD SWAP1 PUSH8 0xFFFFFFFFFFFFFFFF DUP3 GT PUSH2 0x672 JUMPI PUSH1 0x40 MLOAD SWAP3 PUSH2 0x1F4F PUSH1 0x1F DUP5 ADD PUSH1 0x1F NOT AND PUSH1 0x20 ADD DUP6 PUSH2 0x1EF8 JUMP JUMPDEST DUP3 DUP5 MSTORE PUSH1 0x20 DUP4 DUP4 ADD ADD GT PUSH2 0x1FC JUMPI DUP2 PUSH1 0x0 SWAP3 PUSH1 0x20 DUP1 SWAP4 ADD DUP4 DUP7 ADD CALLDATACOPY DUP4 ADD ADD MSTORE SWAP1 JUMP JUMPDEST SWAP1 PUSH1 0x1 DUP3 DUP2 SHR SWAP3 AND DUP1 ISZERO PUSH2 0x1FA1 JUMPI JUMPDEST PUSH1 0x20 DUP4 LT EQ PUSH2 0x1F8B JUMPI JUMP JUMPDEST PUSH4 0x4E487B71 PUSH1 0xE0 SHL PUSH1 0x0 MSTORE PUSH1 0x22 PUSH1 0x4 MSTORE PUSH1 0x24 PUSH1 0x0 REVERT JUMPDEST SWAP2 PUSH1 0x7F AND SWAP2 PUSH2 0x1F80 JUMP JUMPDEST SWAP1 PUSH1 0x40 MLOAD SWAP2 DUP3 PUSH1 0x0 DUP3 SLOAD SWAP3 PUSH2 0x1FBF DUP5 PUSH2 0x1F71 JUMP JUMPDEST SWAP1 DUP2 DUP5 MSTORE PUSH1 0x1 SWAP5 DUP6 DUP2 AND SWAP1 DUP2 PUSH1 0x0 EQ PUSH2 0x202E JUMPI POP PUSH1 0x1 EQ PUSH2 0x1FEB JUMPI JUMPDEST POP POP PUSH2 0x1FE9 SWAP3 POP SUB DUP4 PUSH2 0x1EF8 JUMP JUMPDEST JUMP JUMPDEST SWAP1 SWAP4 SWAP2 POP PUSH1 0x0 MSTORE PUSH1 0x20 SWAP1 DUP2 PUSH1 0x0 KECCAK256 SWAP4 PUSH1 0x0 SWAP2 JUMPDEST DUP2 DUP4 LT PUSH2 0x2016 JUMPI POP POP PUSH2 0x1FE9 SWAP4 POP DUP3 ADD ADD CODESIZE DUP1 PUSH2 0x1FDB JUMP JUMPDEST DUP6 SLOAD DUP9 DUP5 ADD DUP6 ADD MSTORE SWAP5 DUP6 ADD SWAP5 DUP8 SWAP5 POP SWAP2 DUP4 ADD SWAP2 PUSH2 0x1FFE JUMP JUMPDEST SWAP2 POP POP PUSH2 0x1FE9 SWAP5 POP PUSH1 0x20 SWAP3 POP PUSH1 0xFF NOT AND DUP3 DUP5 ADD MSTORE ISZERO ISZERO PUSH1 0x5 SHL DUP3 ADD ADD CODESIZE DUP1 PUSH2 0x1FDB JUMP JUMPDEST SWAP2 SWAP1 DUP3 MLOAD SWAP3 DUP4 DUP3 MSTORE PUSH1 0x0 JUMPDEST DUP5 DUP2 LT PUSH2 0x207D JUMPI POP POP DUP3 PUSH1 0x0 PUSH1 0x20 DUP1 SWAP5 SWAP6 DUP5 ADD ADD MSTORE PUSH1 0x1F DUP1 NOT SWAP2 ADD AND ADD ADD SWAP1 JUMP JUMPDEST PUSH1 0x20 DUP2 DUP4 ADD DUP2 ADD MLOAD DUP5 DUP4 ADD DUP3 ADD MSTORE ADD PUSH2 0x205C JUMP JUMPDEST SWAP1 PUSH1 0x2 DUP3 LT ISZERO PUSH2 0x1534 JUMPI MSTORE JUMP JUMPDEST PUSH1 0x40 SWAP1 PUSH1 0x3 NOT ADD SLT PUSH2 0x1FC JUMPI PUSH1 0x4 CALLDATALOAD SWAP1 PUSH1 0x24 CALLDATALOAD SWAP1 JUMP JUMPDEST CALLVALUE PUSH2 0x1FC JUMPI PUSH1 0x0 CALLDATASIZE PUSH1 0x3 NOT ADD SLT PUSH2 0x1FC JUMPI PUSH1 0x20 PUSH1 0x40 MLOAD PUSH1 0x32 DUP2 MSTORE RETURN JUMPDEST PUSH1 0x4 CALLDATALOAD SWAP1 PUSH1 0x1 PUSH1 0x1 PUSH1 0xA0 SHL SUB DUP3 AND DUP3 SUB PUSH2 0x1FC JUMPI JUMP JUMPDEST PUSH1 0x24 CALLDATALOAD SWAP1 PUSH1 0x1 PUSH1 0x1 PUSH1 0xA0 SHL SUB DUP3 AND DUP3 SUB PUSH2 0x1FC JUMPI JUMP JUMPDEST PUSH1 0x1 SLOAD PUSH1 0x1 PUSH1 0x1 PUSH1 0xA0 SHL SUB AND CALLER SUB PUSH2 0x2110 JUMPI JUMP JUMPDEST PUSH1 0x40 MLOAD PUSH4 0x118CDAA7 PUSH1 0xE0 SHL DUP2 MSTORE CALLER PUSH1 0x4 DUP3 ADD MSTORE PUSH1 0x24 SWAP1 REVERT JUMPDEST SWAP1 DUP2 PUSH1 0x20 SWAP2 SUB SLT PUSH2 0x1FC JUMPI MLOAD DUP1 ISZERO ISZERO DUP2 SUB PUSH2 0x1FC JUMPI SWAP1 JUMP JUMPDEST ISZERO PUSH2 0x2147 JUMPI JUMP JUMPDEST PUSH1 0x40 MLOAD PUSH3 0x461BCD PUSH1 0xE5 SHL DUP2 MSTORE PUSH1 0x20 PUSH1 0x4 DUP3 ADD MSTORE PUSH1 0x1C PUSH1 0x24 DUP3 ADD MSTORE PUSH32 0x4372656174696F6E20666565207472616E73666572206661696C656400000000 PUSH1 0x44 DUP3 ADD MSTORE PUSH1 0x64 SWAP1 REVERT JUMPDEST SWAP2 SWAP1 DUP3 ADD DUP1 SWAP3 GT PUSH2 0xF27 JUMPI JUMP JUMPDEST PUSH1 0x0 NOT DUP2 EQ PUSH2 0xF27 JUMPI PUSH1 0x1 ADD SWAP1 JUMP JUMPDEST PUSH1 0x2 PUSH1 0x0 SLOAD EQ PUSH2 0x21B9 JUMPI PUSH1 0x2 PUSH1 0x0 SSTORE JUMP JUMPDEST PUSH1 0x40 MLOAD PUSH4 0x3EE5AEB5 PUSH1 0xE0 SHL DUP2 MSTORE PUSH1 0x4 SWAP1 REVERT JUMPDEST ISZERO PUSH2 0x21D2 JUMPI JUMP JUMPDEST PUSH1 0x40 MLOAD PUSH3 0x461BCD PUSH1 0xE5 SHL DUP2 MSTORE PUSH1 0x20 PUSH1 0x4 DUP3 ADD MSTORE PUSH1 0x11 PUSH1 0x24 DUP3 ADD MSTORE PUSH17 0x526166666C65206E6F7420616374697665 PUSH1 0x78 SHL PUSH1 0x44 DUP3 ADD MSTORE PUSH1 0x64 SWAP1 REVERT JUMPDEST DUP2 DUP2 MUL SWAP3 SWAP2 DUP2 ISZERO SWAP2 DUP5 DIV EQ OR ISZERO PUSH2 0xF27 JUMPI JUMP JUMPDEST SWAP2 SWAP1 DUP3 SUB SWAP2 DUP3 GT PUSH2 0xF27 JUMPI JUMP INVALID LOG2 PUSH5 0x6970667358 0x22 SLT KECCAK256 MUL DUP12 BYTE POP EXTCODEHASH 0xCC PUSH29 0x59B0137F9827989ECC2DE71334E4EB63ADA4CD73887FFE245E64736F6C PUSH4 0x43000814 STOP CALLER "},"methodIdentifiers":{"CREATOR_SHARE()":"cc0c3039","DONATION_COMMISSION_RATE()":"04d38dd4","DONATION_CREATION_FEE()":"e444a278","PLATFORM_SHARE()":"66fab57c","RAFFLE_COMMISSION_RATE()":"6aa42e4e","RAFFLE_CREATION_FEE()":"29c6f60c","USDT()":"c54e44eb","approveRaffleResult(uint256,bool)":"31ae8abc","buyTickets(uint256,uint256)":"8627df46","commissionWallet()":"97c0262a","createDonation(string,string,uint256,uint256,bool)":"f29c940b","createRaffle(string,string,uint256,uint256,uint256,uint256,uint8)":"52fba8ef","deployWallet()":"53535db9","donationContributions(uint256,address)":"a9f8623a","donationCounter()":"38d187dd","donations(uint256)":"f8626af8","emergencyWithdraw(address,uint256)":"95ccea67","endRaffle(uint256)":"9def429d","makeDonation(uint256,uint256)":"623560af","owner()":"8da5cb5b","raffleCounter()":"c2f306a5","raffleTickets(uint256,address)":"ee2c18ba","raffles(uint256)":"5d4bc0ce","renounceOwnership()":"715018a6","transferOwnership(address)":"f2fde38b","updateCommissionWallet(address)":"f33b5541"}}}}}