{
  "_format": "hh-sol-artifact-1",
  "contractName": "DuxxanPlatformSimple",
  "sourceName": "contracts/DuxxanPlatform.sol",
  "abi": [
    {
      "inputs": [
        {
          "internalType": "address",
          "name": "_usdtToken",
          "type": "address"
        },
        {
          "internalType": "address",
          "name": "_commissionWallet",
          "type": "address"
        }
      ],
      "stateMutability": "nonpayable",
      "type": "constructor"
    },
    {
      "inputs": [
        {
          "internalType": "address",
          "name": "owner",
          "type": "address"
        }
      ],
      "name": "OwnableInvalidOwner",
      "type": "error"
    },
    {
      "inputs": [
        {
          "internalType": "address",
          "name": "account",
          "type": "address"
        }
      ],
      "name": "OwnableUnauthorizedAccount",
      "type": "error"
    },
    {
      "inputs": [],
      "name": "ReentrancyGuardReentrantCall",
      "type": "error"
    },
    {
      "anonymous": false,
      "inputs": [
        {
          "indexed": true,
          "internalType": "uint256",
          "name": "donationId",
          "type": "uint256"
        },
        {
          "indexed": true,
          "internalType": "address",
          "name": "creator",
          "type": "address"
        },
        {
          "indexed": false,
          "internalType": "uint256",
          "name": "goalAmount",
          "type": "uint256"
        }
      ],
      "name": "DonationCreated",
      "type": "event"
    },
    {
      "anonymous": false,
      "inputs": [
        {
          "indexed": true,
          "internalType": "uint256",
          "name": "donationId",
          "type": "uint256"
        },
        {
          "indexed": true,
          "internalType": "address",
          "name": "donor",
          "type": "address"
        },
        {
          "indexed": false,
          "internalType": "uint256",
          "name": "amount",
          "type": "uint256"
        }
      ],
      "name": "DonationMade",
      "type": "event"
    },
    {
      "anonymous": false,
      "inputs": [
        {
          "indexed": true,
          "internalType": "address",
          "name": "previousOwner",
          "type": "address"
        },
        {
          "indexed": true,
          "internalType": "address",
          "name": "newOwner",
          "type": "address"
        }
      ],
      "name": "OwnershipTransferred",
      "type": "event"
    },
    {
      "anonymous": false,
      "inputs": [
        {
          "indexed": true,
          "internalType": "uint256",
          "name": "raffleId",
          "type": "uint256"
        },
        {
          "indexed": true,
          "internalType": "address",
          "name": "winner",
          "type": "address"
        },
        {
          "indexed": false,
          "internalType": "uint256",
          "name": "amount",
          "type": "uint256"
        }
      ],
      "name": "PayoutReleased",
      "type": "event"
    },
    {
      "anonymous": false,
      "inputs": [
        {
          "indexed": true,
          "internalType": "uint256",
          "name": "raffleId",
          "type": "uint256"
        },
        {
          "indexed": true,
          "internalType": "address",
          "name": "creator",
          "type": "address"
        },
        {
          "indexed": false,
          "internalType": "uint256",
          "name": "prizeAmount",
          "type": "uint256"
        },
        {
          "indexed": false,
          "internalType": "enum DuxxanPlatformSimple.PrizeType",
          "name": "prizeType",
          "type": "uint8"
        }
      ],
      "name": "RaffleCreated",
      "type": "event"
    },
    {
      "anonymous": false,
      "inputs": [
        {
          "indexed": true,
          "internalType": "uint256",
          "name": "raffleId",
          "type": "uint256"
        },
        {
          "indexed": true,
          "internalType": "address",
          "name": "winner",
          "type": "address"
        },
        {
          "indexed": false,
          "internalType": "uint256",
          "name": "prizeAmount",
          "type": "uint256"
        }
      ],
      "name": "RaffleEnded",
      "type": "event"
    },
    {
      "anonymous": false,
      "inputs": [
        {
          "indexed": true,
          "internalType": "uint256",
          "name": "raffleId",
          "type": "uint256"
        },
        {
          "indexed": true,
          "internalType": "address",
          "name": "buyer",
          "type": "address"
        },
        {
          "indexed": false,
          "internalType": "uint256",
          "name": "quantity",
          "type": "uint256"
        }
      ],
      "name": "TicketPurchased",
      "type": "event"
    },
    {
      "inputs": [],
      "name": "CREATOR_SHARE",
      "outputs": [
        {
          "internalType": "uint256",
          "name": "",
          "type": "uint256"
        }
      ],
      "stateMutability": "view",
      "type": "function"
    },
    {
      "inputs": [],
      "name": "DONATION_COMMISSION_RATE",
      "outputs": [
        {
          "internalType": "uint256",
          "name": "",
          "type": "uint256"
        }
      ],
      "stateMutability": "view",
      "type": "function"
    },
    {
      "inputs": [],
      "name": "DONATION_CREATION_FEE",
      "outputs": [
        {
          "internalType": "uint256",
          "name": "",
          "type": "uint256"
        }
      ],
      "stateMutability": "view",
      "type": "function"
    },
    {
      "inputs": [],
      "name": "PLATFORM_SHARE",
      "outputs": [
        {
          "internalType": "uint256",
          "name": "",
          "type": "uint256"
        }
      ],
      "stateMutability": "view",
      "type": "function"
    },
    {
      "inputs": [],
      "name": "RAFFLE_COMMISSION_RATE",
      "outputs": [
        {
          "internalType": "uint256",
          "name": "",
          "type": "uint256"
        }
      ],
      "stateMutability": "view",
      "type": "function"
    },
    {
      "inputs": [],
      "name": "RAFFLE_CREATION_FEE",
      "outputs": [
        {
          "internalType": "uint256",
          "name": "",
          "type": "uint256"
        }
      ],
      "stateMutability": "view",
      "type": "function"
    },
    {
      "inputs": [],
      "name": "USDT",
      "outputs": [
        {
          "internalType": "contract IERC20",
          "name": "",
          "type": "address"
        }
      ],
      "stateMutability": "view",
      "type": "function"
    },
    {
      "inputs": [
        {
          "internalType": "uint256",
          "name": "_raffleId",
          "type": "uint256"
        },
        {
          "internalType": "bool",
          "name": "_approve",
          "type": "bool"
        }
      ],
      "name": "approveRaffleResult",
      "outputs": [],
      "stateMutability": "nonpayable",
      "type": "function"
    },
    {
      "inputs": [
        {
          "internalType": "uint256",
          "name": "_raffleId",
          "type": "uint256"
        },
        {
          "internalType": "uint256",
          "name": "_quantity",
          "type": "uint256"
        }
      ],
      "name": "buyTickets",
      "outputs": [],
      "stateMutability": "nonpayable",
      "type": "function"
    },
    {
      "inputs": [],
      "name": "commissionWallet",
      "outputs": [
        {
          "internalType": "address",
          "name": "",
          "type": "address"
        }
      ],
      "stateMutability": "view",
      "type": "function"
    },
    {
      "inputs": [
        {
          "internalType": "string",
          "name": "_title",
          "type": "string"
        },
        {
          "internalType": "string",
          "name": "_description",
          "type": "string"
        },
        {
          "internalType": "uint256",
          "name": "_goalAmount",
          "type": "uint256"
        },
        {
          "internalType": "uint256",
          "name": "_duration",
          "type": "uint256"
        },
        {
          "internalType": "bool",
          "name": "_isUnlimited",
          "type": "bool"
        }
      ],
      "name": "createDonation",
      "outputs": [],
      "stateMutability": "nonpayable",
      "type": "function"
    },
    {
      "inputs": [
        {
          "internalType": "string",
          "name": "_title",
          "type": "string"
        },
        {
          "internalType": "string",
          "name": "_description",
          "type": "string"
        },
        {
          "internalType": "uint256",
          "name": "_prizeAmount",
          "type": "uint256"
        },
        {
          "internalType": "uint256",
          "name": "_ticketPrice",
          "type": "uint256"
        },
        {
          "internalType": "uint256",
          "name": "_maxTickets",
          "type": "uint256"
        },
        {
          "internalType": "uint256",
          "name": "_duration",
          "type": "uint256"
        },
        {
          "internalType": "enum DuxxanPlatformSimple.PrizeType",
          "name": "_prizeType",
          "type": "uint8"
        }
      ],
      "name": "createRaffle",
      "outputs": [],
      "stateMutability": "nonpayable",
      "type": "function"
    },
    {
      "inputs": [],
      "name": "deployWallet",
      "outputs": [
        {
          "internalType": "address",
          "name": "",
          "type": "address"
        }
      ],
      "stateMutability": "view",
      "type": "function"
    },
    {
      "inputs": [
        {
          "internalType": "uint256",
          "name": "",
          "type": "uint256"
        },
        {
          "internalType": "address",
          "name": "",
          "type": "address"
        }
      ],
      "name": "donationContributions",
      "outputs": [
        {
          "internalType": "uint256",
          "name": "",
          "type": "uint256"
        }
      ],
      "stateMutability": "view",
      "type": "function"
    },
    {
      "inputs": [],
      "name": "donationCounter",
      "outputs": [
        {
          "internalType": "uint256",
          "name": "",
          "type": "uint256"
        }
      ],
      "stateMutability": "view",
      "type": "function"
    },
    {
      "inputs": [
        {
          "internalType": "uint256",
          "name": "",
          "type": "uint256"
        }
      ],
      "name": "donations",
      "outputs": [
        {
          "internalType": "uint256",
          "name": "id",
          "type": "uint256"
        },
        {
          "internalType": "address",
          "name": "creator",
          "type": "address"
        },
        {
          "internalType": "string",
          "name": "title",
          "type": "string"
        },
        {
          "internalType": "string",
          "name": "description",
          "type": "string"
        },
        {
          "internalType": "uint256",
          "name": "goalAmount",
          "type": "uint256"
        },
        {
          "internalType": "uint256",
          "name": "currentAmount",
          "type": "uint256"
        },
        {
          "internalType": "uint256",
          "name": "endTime",
          "type": "uint256"
        },
        {
          "internalType": "bool",
          "name": "isActive",
          "type": "bool"
        },
        {
          "internalType": "bool",
          "name": "isUnlimited",
          "type": "bool"
        }
      ],
      "stateMutability": "view",
      "type": "function"
    },
    {
      "inputs": [
        {
          "internalType": "address",
          "name": "_token",
          "type": "address"
        },
        {
          "internalType": "uint256",
          "name": "_amount",
          "type": "uint256"
        }
      ],
      "name": "emergencyWithdraw",
      "outputs": [],
      "stateMutability": "nonpayable",
      "type": "function"
    },
    {
      "inputs": [
        {
          "internalType": "uint256",
          "name": "_raffleId",
          "type": "uint256"
        }
      ],
      "name": "endRaffle",
      "outputs": [],
      "stateMutability": "nonpayable",
      "type": "function"
    },
    {
      "inputs": [
        {
          "internalType": "uint256",
          "name": "_donationId",
          "type": "uint256"
        },
        {
          "internalType": "uint256",
          "name": "_amount",
          "type": "uint256"
        }
      ],
      "name": "makeDonation",
      "outputs": [],
      "stateMutability": "nonpayable",
      "type": "function"
    },
    {
      "inputs": [],
      "name": "owner",
      "outputs": [
        {
          "internalType": "address",
          "name": "",
          "type": "address"
        }
      ],
      "stateMutability": "view",
      "type": "function"
    },
    {
      "inputs": [],
      "name": "raffleCounter",
      "outputs": [
        {
          "internalType": "uint256",
          "name": "",
          "type": "uint256"
        }
      ],
      "stateMutability": "view",
      "type": "function"
    },
    {
      "inputs": [
        {
          "internalType": "uint256",
          "name": "",
          "type": "uint256"
        },
        {
          "internalType": "address",
          "name": "",
          "type": "address"
        }
      ],
      "name": "raffleTickets",
      "outputs": [
        {
          "internalType": "uint256",
          "name": "",
          "type": "uint256"
        }
      ],
      "stateMutability": "view",
      "type": "function"
    },
    {
      "inputs": [
        {
          "internalType": "uint256",
          "name": "",
          "type": "uint256"
        }
      ],
      "name": "raffles",
      "outputs": [
        {
          "internalType": "uint256",
          "name": "id",
          "type": "uint256"
        },
        {
          "internalType": "address",
          "name": "creator",
          "type": "address"
        },
        {
          "internalType": "string",
          "name": "title",
          "type": "string"
        },
        {
          "internalType": "string",
          "name": "description",
          "type": "string"
        },
        {
          "internalType": "uint256",
          "name": "prizeAmount",
          "type": "uint256"
        },
        {
          "internalType": "uint256",
          "name": "ticketPrice",
          "type": "uint256"
        },
        {
          "internalType": "uint256",
          "name": "maxTickets",
          "type": "uint256"
        },
        {
          "internalType": "uint256",
          "name": "ticketsSold",
          "type": "uint256"
        },
        {
          "internalType": "uint256",
          "name": "endTime",
          "type": "uint256"
        },
        {
          "internalType": "bool",
          "name": "isActive",
          "type": "bool"
        },
        {
          "internalType": "bool",
          "name": "isCompleted",
          "type": "bool"
        },
        {
          "internalType": "address",
          "name": "winner",
          "type": "address"
        },
        {
          "internalType": "enum DuxxanPlatformSimple.PrizeType",
          "name": "prizeType",
          "type": "uint8"
        },
        {
          "internalType": "bool",
          "name": "creatorApproved",
          "type": "bool"
        },
        {
          "internalType": "bool",
          "name": "platformApproved",
          "type": "bool"
        },
        {
          "internalType": "bool",
          "name": "payoutReleased",
          "type": "bool"
        }
      ],
      "stateMutability": "view",
      "type": "function"
    },
    {
      "inputs": [],
      "name": "renounceOwnership",
      "outputs": [],
      "stateMutability": "nonpayable",
      "type": "function"
    },
    {
      "inputs": [
        {
          "internalType": "address",
          "name": "newOwner",
          "type": "address"
        }
      ],
      "name": "transferOwnership",
      "outputs": [],
      "stateMutability": "nonpayable",
      "type": "function"
    },
    {
      "inputs": [
        {
          "internalType": "address",
          "name": "_newWallet",
          "type": "address"
        }
      ],
      "name": "updateCommissionWallet",
      "outputs": [],
      "stateMutability": "nonpayable",
      "type": "function"
    }
  ],
  "bytecode": "0x60c0346200014057601f620025b838819003918201601f19168301916001600160401b038311848410176200014557808492604094855283398101031262000140576200005a602062000052836200015b565b92016200015b565b60016000553315620001275760018054336001600160a01b031980831682179093556040519492936001600160a01b0393909284929083167f8be0079c531659141344cd1fd0a4f28419497f9722a3daafe3b4186f6b6457e0600080a316608052169060025416176002553360a0526124479081620001718239608051818181610375015281816107f801528181610be901528181610e67015281816113260152818161182a01528181611c6601528181611ccc0152611e9e015260a05181818161122701526118ed0152f35b604051631e4fbdf760e01b815260006004820152602490fd5b600080fd5b634e487b7160e01b600052604160045260246000fd5b51906001600160a01b0382168203620001405756fe608080604052600436101561001357600080fd5b60003560e01c90816304d38dd41461205e5750806329c6f60c146107d857806331ae8abc14611adc57806338d187dd14611abe57806352fba8ef1461125657806353535db9146112115780635d4bc0ce146110eb578063623560af14610dd257806366fab57c146107dd5780636aa42e4e14610db6578063715018a614610d595780638627df4614610b485780638da5cb5b14610b1f57806395ccea6714610aa057806397c0262a14610a775780639def429d1461088d578063a9f8623a14610845578063c2f306a514610827578063c54e44eb146107e2578063cc0c3039146107dd578063e444a278146107d8578063ee2c18ba14610790578063f29c940b146102cd578063f2fde38b14610244578063f33b5541146102015763f8626af81461013d57600080fd5b346101fc5760203660031901126101fc5760043560005260046020526040600020805460018060a01b036001830154169160ff61017c6002830161214d565b6101886003840161214d565b926004810154936101d26005830154916101c460076006860154950154956040519a8b9a8b5260208b01526101208060408c01528a01906121f3565b9088820360608a01526121f3565b94608087015260a086015260c0850152818116151560e085015260081c1615156101008301520390f35b600080fd5b346101fc5760203660031901126101fc5761021a612272565b61022261229e565b600280546001600160a01b0319166001600160a01b0392909216919091179055005b346101fc5760203660031901126101fc5761025d612272565b61026561229e565b6001600160a01b039081169081156102b457600154826001600160601b0360a01b821617600155167f8be0079c531659141344cd1fd0a4f28419497f9722a3daafe3b4186f6b6457e0600080a3005b604051631e4fbdf760e01b815260006004820152602490fd5b346101fc5760a03660031901126101fc576004356001600160401b0381116101fc576102fd9036906004016120bd565b6024356001600160401b0381116101fc5761031c9036906004016120bd565b60843580151581036101fc5761033061234a565b6002546040516323b872dd60e01b81523360048201526001600160a01b03918216602482015268015af1d78b58c40000604482015290602090829060649082906000907f0000000000000000000000000000000000000000000000000000000000000000165af18015610784576103af91600091610755575b506122e2565b600854918115610743576000905b6040519461012086018681106001600160401b0382111761066d57604052848652336020870152604086015260608501526044356080850152600060a085015260c0840152600160e0840152151561010083015260005260046020526040600020815181556001810160018060a01b036020840151166001600160601b0360a01b82541617905560408201519182516001600160401b03811161066d576104676002840154612113565b601f81116106fc575b506020601f821160011461068e5781929394600092610683575b50508160011b916000199060031b1c19161760028301555b60608101518051906001600160401b03821161066d576104c56003850154612113565b601f8111610626575b50602090601f83116001146105ad5793826101009360079361055e976000926105a2575b50508160011b916000199060031b1c19161760038201555b6080840151600482015560a0840151600582015560c08401516006820155019161054660e08201511515849060ff801983541691151516179055565b0151815461ff00191690151560081b61ff0016179055565b6105986008546040516044358152817fdd17f6c68d84fb01706d9f9e9ed1a2267d9171bff4c61d024f503d6c9ccb931c60203393a361233b565b6008556001600055005b0151905087806104f2565b906003850160005260206000209160005b601f198516811061060e57508360079361055e979360019361010097601f198116106105f5575b505050811b01600382015561050a565b015160001960f88460031b161c191690558780806105e5565b919260206001819286850151815501940192016105be565b600385016000526020600020601f840160051c810160208510610666575b601f830160051c8201811061065a5750506104ce565b60008155600101610644565b5080610644565b634e487b7160e01b600052604160045260246000fd5b01519050848061048a565b6002840160005260206000209060005b601f19841681106106e45750600193949583601f198116106106cb575b505050811b0160028301556104a2565b015160001960f88460031b161c191690558480806106bb565b9091602060018192858a01518155019301910161069e565b600284016000526020600020601f830160051c81016020841061073c575b601f830160051c82018110610730575050610470565b6000815560010161071a565b508061071a565b61074f6064354261232e565b906103bd565b610777915060203d60201161077d575b61076f818361209c565b8101906122ca565b856103a9565b503d610765565b6040513d6000823e3d90fd5b346101fc5760403660031901126101fc576107a9612288565b600435600052600560205260406000209060018060a01b03166000526020526020604060002054604051908152f35b612078565b612256565b346101fc5760003660031901126101fc576040517f00000000000000000000000000000000000000000000000000000000000000006001600160a01b03168152602090f35b346101fc5760003660031901126101fc576020600754604051908152f35b346101fc5760403660031901126101fc5761085e612288565b600435600052600660205260406000209060018060a01b03166000526020526020604060002054604051908152f35b346101fc576020806003193601126101fc57600435806000526003825260406000209160098301908154916108c460ff841661236d565b60088501544210801590610a65575b15610a205760018501546001600160a01b039390841633148015610a13575b156109dd5761ffff19166101001781556007850154158015610946575b507f3f8a70ebc2357528ffbd62df52804d67d18cb2dc04d8a034c9c932e982d2cf37926004915460101c16940154604051908152a3005b60405142848201524460408201524360608201528560808201526080815260a081019081106001600160401b0382111761066d576040526109c757805462010000600160b01b0319163360101b62010000600160b01b03161781557f3f8a70ebc2357528ffbd62df52804d67d18cb2dc04d8a034c9c932e982d2cf3761090f565b634e487b7160e01b600052601260045260246000fd5b60405162461bcd60e51b815260048101849052600e60248201526d139bdd08185d5d1a1bdc9a5e995960921b6044820152606490fd5b50836001541633146108f2565b60405162461bcd60e51b815260048101839052601760248201527f526166666c65206e6f7420726561647920746f20656e640000000000000000006044820152606490fd5b506007850154600686015411156108d3565b346101fc5760003660031901126101fc576002546040516001600160a01b039091168152602090f35b346101fc5760403660031901126101fc57610ab9612272565b610ac161229e565b60015460405163a9059cbb60e01b81526001600160a01b03918216600482015260248035908201529160209183916044918391600091165af1801561078457610b0657005b610b1d9060203d811161077d5761076f818361209c565b005b346101fc5760003660031901126101fc576001546040516001600160a01b039091168152602090f35b346101fc57610b5636612240565b90610b5f61234a565b806000526020600381526040600020610b7e60ff60098301541661236d565b6008810154421015610d25576007810190610b9a85835461232e565b600682015410610ce05782610bb6866005610be39401546123ad565b6040516323b872dd60e01b8152336004820152306024820152604481019190915291829081906064820190565b038160007f00000000000000000000000000000000000000000000000000000000000000006001600160a01b03165af190811561078457600091610cc3575b5015610c8d57907fdbaaf4c87ce30816c961a81d110622a3227ede77953d4383d514ff88ab2e0fd391836000526005825260406000203360005282526040600020610c6e86825461232e565b9055610c7b85825461232e565b90556040519384523393a36001600055005b60405162461bcd60e51b815260048101839052600e60248201526d14185e5b595b9d0819985a5b195960921b6044820152606490fd5b610cda9150833d851161077d5761076f818361209c565b85610c22565b60405162461bcd60e51b815260048101849052601c60248201527f4e6f7420656e6f756768207469636b65747320617661696c61626c65000000006044820152606490fd5b60405162461bcd60e51b815260048101839052600c60248201526b149859999b1948195b99195960a21b6044820152606490fd5b346101fc5760003660031901126101fc57610d7261229e565b600180546001600160a01b031981169091556000906001600160a01b03167f8be0079c531659141344cd1fd0a4f28419497f9722a3daafe3b4186f6b6457e08280a3005b346101fc5760003660031901126101fc576020604051600a8152f35b346101fc57610de036612240565b90610de961234a565b806000526020600481526040600020600781015460ff8116156110b057841561106b5760081c60ff1615611023575b8360011b84810460020361100d5760649004610e3481866123c0565b60018301546040516323b872dd60e01b8082523360048301526001600160a01b03928316602483015260448201939093527f0000000000000000000000000000000000000000000000000000000000000000821692919086816064816000885af190811561078457600091610ff0575b5015610fab57600254604051928352336004840152166001600160a01b0316602482015260448101929092528390829060649082906000905af190811561078457600091610f8e575b5015610f49579060057fe555da28bdb778f65d22794d88927ebaeca03f7de9d1b7d39245bc8fb5ca078a92846000526006835260406000203360005283526040600020610f3b87825461232e565b905501610c7b85825461232e565b60405162461bcd60e51b815260048101839052601a60248201527f436f6d6d697373696f6e207472616e73666572206661696c65640000000000006044820152606490fd5b610fa59150833d851161077d5761076f818361209c565b85610eed565b60405162461bcd60e51b815260048101879052601860248201527f446f6e6174696f6e207472616e73666572206661696c656400000000000000006044820152606490fd5b6110079150873d891161077d5761076f818361209c565b89610ea4565b634e487b7160e01b600052601160045260246000fd5b60068101544210610e185760405162461bcd60e51b8152600481018390526015602482015274111bdb985d1a5bdb881c195c9a5bd908195b991959605a1b6044820152606490fd5b60405162461bcd60e51b815260048101849052601d60248201527f416d6f756e74206d7573742062652067726561746572207468616e20300000006044820152606490fd5b60405162461bcd60e51b8152600481018490526013602482015272446f6e6174696f6e206e6f742061637469766560681b6044820152606490fd5b346101fc5760203660031901126101fc576004356000908152600360205260409020805460018201546001600160a01b03908116929061112d6002830161214d565b6111396003840161214d565b92600481015493600582015460068301549061119060078501549361118260096008880154970154976040519c8d9c8d5260208d015260408c61020091829101528c01906121f3565b908a820360608c01526121f3565b96608089015260a088015260c087015260e086015261010085015260ff918282161515610120860152828260081c1615156101408601528160101c166101608501526111e56101808501838360b01c16612233565b818160b81c1615156101a0850152818160c01c1615156101c085015260c81c1615156101e08301520390f35b346101fc5760003660031901126101fc576040517f00000000000000000000000000000000000000000000000000000000000000006001600160a01b03168152602090f35b346101fc5760e03660031901126101fc576004356001600160401b0381116101fc576112869036906004016120bd565b6024356001600160401b0381116101fc576112a59036906004016120bd565b600260c43510156101fc576112b861234a565b60443515611a6d5760643515611a1c57608435156119cc5760a435156119875760c435156118e3575b6002546040516323b872dd60e01b81523360048201526001600160a01b03918216602482015268015af1d78b58c40000604482015290602090829060649082906000907f0000000000000000000000000000000000000000000000000000000000000000165af180156107845761135f916000916118c457506122e2565b60c435156117f7575b6007549061137860a4354261232e565b9060405193846102008101106001600160401b036102008701111761066d57610200850160405283855233602086015260408501526060840152604435608084015260643560a084015260843560c0840152600060e084015261010083015260016101208301526000610140830152600061016083015260c43561018083015260006101a083015260006101c083015260006101e08301526000526003602052604060002090805182556001820160018060a01b036020830151166001600160601b0360a01b82541617905560408101519182516001600160401b03811161066d576114676002830154612113565b601f81116117b0575b506020601f82116001146117425781929394600092611737575b50508160011b916000199060031b1c19161760028201555b60608201518051906001600160401b03821161066d576114c56003840154612113565b601f81116116f0575b50602090601f831160011461167d57600993929160009183611672575b50508160011b916000199060031b1c19161760038201555b6080830151600482015560a0830151600582015560c0830151600682015560e08301516007820155610100830151600882015501906115556101208201511515839060ff801983541691151516179055565b610140810151825461ff00191690151560081b61ff0016178255610160810151825462010000600160b01b03191660109190911b62010000600160b01b031617825561018081015190600282101561165c5782546101a08201516101c08301516101e09093015192151560c01b60ff60c01b1690151560b81b60ff60b81b1660b09490941b60ff60b01b1663ffffffff60b01b1990921691909117929092179190911790151560c81b60ff60c81b16179055600754604051604435815261165291906116266020820160c435612233565b817fc890c80dc6c21b947623ff0de3cbaf1a694c5d9f0aa6334eaecae1fb59fe960960403393a361233b565b6007556001600055005b634e487b7160e01b600052602160045260246000fd5b0151905085806114eb565b906003840160005260206000209160005b601f19851681106116d8575091839160019360099695601f198116106116bf575b505050811b016003820155611503565b015160001960f88460031b161c191690558580806116af565b9192602060018192868501518155019401920161168e565b600384016000526020600020601f840160051c810160208510611730575b601f830160051c820181106117245750506114ce565b6000815560010161170e565b508061170e565b01519050848061148a565b6002830160005260206000209060005b601f19841681106117985750600193949583601f1981161061177f575b505050811b0160028201556114a2565b015160001960f88460031b161c1916905584808061176f565b9091602060018192858a015181550193019101611752565b600283016000526020600020601f830160051c8101602084106117f0575b601f830160051c820181106117e4575050611470565b600081556001016117ce565b50806117ce565b6040516323b872dd60e01b8152336004820152306024820152604480359082015260208160648160006001600160a01b037f0000000000000000000000000000000000000000000000000000000000000000165af1908115610784576000916118a5575b506113685760405162461bcd60e51b815260206004820152601c60248201527f5072697a6520616d6f756e74207472616e73666572206661696c6564000000006044820152606490fd5b6118be915060203d60201161077d5761076f818361209c565b8361185b565b6118dd915060203d60201161077d5761076f818361209c565b846103a9565b60018060a01b03807f0000000000000000000000000000000000000000000000000000000000000000163314908115611979575b506112e15760405162461bcd60e51b815260206004820152602f60248201527f4f6e6c7920617574686f72697a65642077616c6c6574732063616e206372656160448201526e7465205553445420726166666c657360881b6064820152608490fd5b905060025416331483611917565b60405162461bcd60e51b815260206004820152601f60248201527f4475726174696f6e206d7573742062652067726561746572207468616e2030006044820152606490fd5b60405162461bcd60e51b815260206004820152602260248201527f4d6178207469636b657473206d7573742062652067726561746572207468616e604482015261020360f41b6064820152608490fd5b60405162461bcd60e51b815260206004820152602360248201527f5469636b6574207072696365206d75737420626520677265617465722074686160448201526206e20360ec1b6064820152608490fd5b60405162461bcd60e51b815260206004820152602360248201527f5072697a6520616d6f756e74206d75737420626520677265617465722074686160448201526206e20360ec1b6064820152608490fd5b346101fc5760003660031901126101fc576020600854604051908152f35b346101fc5760403660031901126101fc576024600435813580151581036101fc578160005260209060038252604060002090600982019081549260ff93848160081c16156120235760c81c8416611fdf57600101546001600160a01b03939291903390851603611f7057815460ff60b81b191690151560b81b60ff60b81b161781555b5482828260b81c169182611f62575b82611f53575b5050611b7c57005b836000526003835260406000209460098601918254818160c81c16611f1c5760ff60c81b1916600160c81b1780845560078801546005890154611bbe916123ad565b91600a8302838104600a1484151715611f075760649004916032830283810460321484151715611ef2576064611c00910493611bfa85826123c0565b956123c0565b918160b01c166002811015611edd5788918891611e69575091611c31611c5f93885460101c169160048d015461232e565b60405163a9059cbb60e01b81526001600160a01b039092166004830152602482015291829081906044820190565b038160008a7f0000000000000000000000000000000000000000000000000000000000000000165af1801561078457611ca091600091611e4c575b506123cd565b60025460405163a9059cbb60e01b8082529187166001600160a01b0316600482015260248101929092527f000000000000000000000000000000000000000000000000000000000000000086169187816044816000875af190811561078457600091611e2f575b5015611deb57600189015460405191825286166001600160a01b0316600482015260248101929092528590829060449082906000905af190811561078457600091611dce575b5015611d8b57507f5621778ab13fbf7130d91ae5035a140b79a6cfd120059c2ea0fec2a5ce6731a692916004915460101c16940154604051908152a3005b8360196064926040519262461bcd60e51b845260048401528201527f43726561746f7220636f6d6d697373696f6e206661696c6564000000000000006044820152fd5b611de59150853d871161077d5761076f818361209c565b87611d4d565b60405162461bcd60e51b815260048101889052601a818601527f506c6174666f726d20636f6d6d697373696f6e206661696c65640000000000006044820152606490fd5b611e469150883d8a1161077d5761076f818361209c565b8a611d07565b611e639150883d8a1161077d5761076f818361209c565b8a611c9a565b60405163a9059cbb60e01b815260109190911c919091166001600160a01b0316600482015260248101929092528160448160007f00000000000000000000000000000000000000000000000000000000000000008b165af1801561078457611ed891600091611e4c57506123cd565b611ca0565b85634e487b7160e01b60005260216004526000fd5b85634e487b7160e01b60005260116004526000fd5b84634e487b7160e01b60005260116004526000fd5b60405162461bcd60e51b8152600481018790526010818501526f105b1c9958591e481c995b19585cd95960821b6044820152606490fd5b60101c16151590508287611b74565b9150828260c01c1691611b6e565b83600154163314600014611f9b57815460ff60c01b191690151560c01b60ff60c01b16178155611b5f565b60405162461bcd60e51b8152600481018690526019818901527f4e6f7420617574686f72697a656420746f20617070726f7665000000000000006044820152606490fd5b60405162461bcd60e51b8152600481018690526017818901527f5061796f757420616c72656164792072656c65617365640000000000000000006044820152606490fd5b60405162461bcd60e51b8152600481018790526014818a015273149859999b19481b9bdd0818dbdb5c1b195d195960621b6044820152606490fd5b346101fc5760003660031901126101fc5780600260209252f35b346101fc5760003660031901126101fc57602060405168015af1d78b58c400008152f35b90601f801991011681019081106001600160401b0382111761066d57604052565b81601f820112156101fc578035906001600160401b03821161066d57604051926120f1601f8401601f19166020018561209c565b828452602083830101116101fc57816000926020809301838601378301015290565b90600182811c92168015612143575b602083101461212d57565b634e487b7160e01b600052602260045260246000fd5b91607f1691612122565b906040519182600082549261216184612113565b9081845260019485811690816000146121d0575060011461218d575b505061218b9250038361209c565b565b9093915060005260209081600020936000915b8183106121b857505061218b9350820101388061217d565b855488840185015294850194879450918301916121a0565b91505061218b94506020925060ff191682840152151560051b820101388061217d565b919082519283825260005b84811061221f575050826000602080949584010152601f8019910116010190565b6020818301810151848301820152016121fe565b90600282101561165c5752565b60409060031901126101fc576004359060243590565b346101fc5760003660031901126101fc57602060405160328152f35b600435906001600160a01b03821682036101fc57565b602435906001600160a01b03821682036101fc57565b6001546001600160a01b031633036122b257565b60405163118cdaa760e01b8152336004820152602490fd5b908160209103126101fc575180151581036101fc5790565b156122e957565b60405162461bcd60e51b815260206004820152601c60248201527f4372656174696f6e20666565207472616e73666572206661696c6564000000006044820152606490fd5b9190820180921161100d57565b600019811461100d5760010190565b60026000541461235b576002600055565b604051633ee5aeb560e01b8152600490fd5b1561237457565b60405162461bcd60e51b8152602060048201526011602482015270526166666c65206e6f742061637469766560781b6044820152606490fd5b8181029291811591840414171561100d57565b9190820391821161100d57565b156123d457565b60405162461bcd60e51b8152602060048201526015602482015274141c9a5e99481d1c985b9cd9995c8819985a5b1959605a1b6044820152606490fdfea264697066735822122069e5d2083b4cc6a7334b24d4df478a11e64c70d4340b0258d562a63f9c9489ab64736f6c63430008140033",
  "linkReferences": {},
  "deployedLinkReferences": {}
}