{
  "_format": "hh-sol-artifact-1",
  "contractName": "DuxxanPlatformSimple",
  "sourceName": "contracts/DuxxanPlatform.sol",
  "abi": [
    {
      "inputs": [
        {
          "internalType": "address",
          "name": "_usdtToken",
          "type": "address"
        },
        {
          "internalType": "address",
          "name": "_commissionWallet",
          "type": "address"
        }
      ],
      "stateMutability": "nonpayable",
      "type": "constructor"
    },
    {
      "inputs": [
        {
          "internalType": "address",
          "name": "owner",
          "type": "address"
        }
      ],
      "name": "OwnableInvalidOwner",
      "type": "error"
    },
    {
      "inputs": [
        {
          "internalType": "address",
          "name": "account",
          "type": "address"
        }
      ],
      "name": "OwnableUnauthorizedAccount",
      "type": "error"
    },
    {
      "inputs": [],
      "name": "ReentrancyGuardReentrantCall",
      "type": "error"
    },
    {
      "anonymous": false,
      "inputs": [
        {
          "indexed": true,
          "internalType": "uint256",
          "name": "donationId",
          "type": "uint256"
        },
        {
          "indexed": true,
          "internalType": "address",
          "name": "creator",
          "type": "address"
        },
        {
          "indexed": false,
          "internalType": "uint256",
          "name": "goalAmount",
          "type": "uint256"
        }
      ],
      "name": "DonationCreated",
      "type": "event"
    },
    {
      "anonymous": false,
      "inputs": [
        {
          "indexed": true,
          "internalType": "uint256",
          "name": "donationId",
          "type": "uint256"
        },
        {
          "indexed": true,
          "internalType": "address",
          "name": "donor",
          "type": "address"
        },
        {
          "indexed": false,
          "internalType": "uint256",
          "name": "amount",
          "type": "uint256"
        }
      ],
      "name": "DonationMade",
      "type": "event"
    },
    {
      "anonymous": false,
      "inputs": [
        {
          "indexed": true,
          "internalType": "address",
          "name": "previousOwner",
          "type": "address"
        },
        {
          "indexed": true,
          "internalType": "address",
          "name": "newOwner",
          "type": "address"
        }
      ],
      "name": "OwnershipTransferred",
      "type": "event"
    },
    {
      "anonymous": false,
      "inputs": [
        {
          "indexed": true,
          "internalType": "uint256",
          "name": "raffleId",
          "type": "uint256"
        },
        {
          "indexed": true,
          "internalType": "address",
          "name": "winner",
          "type": "address"
        },
        {
          "indexed": false,
          "internalType": "uint256",
          "name": "amount",
          "type": "uint256"
        }
      ],
      "name": "PayoutReleased",
      "type": "event"
    },
    {
      "anonymous": false,
      "inputs": [
        {
          "indexed": true,
          "internalType": "uint256",
          "name": "raffleId",
          "type": "uint256"
        },
        {
          "indexed": true,
          "internalType": "address",
          "name": "creator",
          "type": "address"
        },
        {
          "indexed": false,
          "internalType": "uint256",
          "name": "prizeAmount",
          "type": "uint256"
        },
        {
          "indexed": false,
          "internalType": "enum DuxxanPlatformSimple.PrizeType",
          "name": "prizeType",
          "type": "uint8"
        }
      ],
      "name": "RaffleCreated",
      "type": "event"
    },
    {
      "anonymous": false,
      "inputs": [
        {
          "indexed": true,
          "internalType": "uint256",
          "name": "raffleId",
          "type": "uint256"
        },
        {
          "indexed": true,
          "internalType": "address",
          "name": "winner",
          "type": "address"
        },
        {
          "indexed": false,
          "internalType": "uint256",
          "name": "prizeAmount",
          "type": "uint256"
        }
      ],
      "name": "RaffleEnded",
      "type": "event"
    },
    {
      "anonymous": false,
      "inputs": [
        {
          "indexed": true,
          "internalType": "uint256",
          "name": "raffleId",
          "type": "uint256"
        },
        {
          "indexed": true,
          "internalType": "address",
          "name": "buyer",
          "type": "address"
        },
        {
          "indexed": false,
          "internalType": "uint256",
          "name": "quantity",
          "type": "uint256"
        }
      ],
      "name": "TicketPurchased",
      "type": "event"
    },
    {
      "inputs": [],
      "name": "CREATOR_SHARE",
      "outputs": [
        {
          "internalType": "uint256",
          "name": "",
          "type": "uint256"
        }
      ],
      "stateMutability": "view",
      "type": "function"
    },
    {
      "inputs": [],
      "name": "DONATION_COMMISSION_RATE",
      "outputs": [
        {
          "internalType": "uint256",
          "name": "",
          "type": "uint256"
        }
      ],
      "stateMutability": "view",
      "type": "function"
    },
    {
      "inputs": [],
      "name": "DONATION_CREATION_FEE",
      "outputs": [
        {
          "internalType": "uint256",
          "name": "",
          "type": "uint256"
        }
      ],
      "stateMutability": "view",
      "type": "function"
    },
    {
      "inputs": [],
      "name": "PLATFORM_SHARE",
      "outputs": [
        {
          "internalType": "uint256",
          "name": "",
          "type": "uint256"
        }
      ],
      "stateMutability": "view",
      "type": "function"
    },
    {
      "inputs": [],
      "name": "RAFFLE_COMMISSION_RATE",
      "outputs": [
        {
          "internalType": "uint256",
          "name": "",
          "type": "uint256"
        }
      ],
      "stateMutability": "view",
      "type": "function"
    },
    {
      "inputs": [],
      "name": "RAFFLE_CREATION_FEE",
      "outputs": [
        {
          "internalType": "uint256",
          "name": "",
          "type": "uint256"
        }
      ],
      "stateMutability": "view",
      "type": "function"
    },
    {
      "inputs": [],
      "name": "USDT",
      "outputs": [
        {
          "internalType": "contract IERC20",
          "name": "",
          "type": "address"
        }
      ],
      "stateMutability": "view",
      "type": "function"
    },
    {
      "inputs": [
        {
          "internalType": "uint256",
          "name": "_raffleId",
          "type": "uint256"
        },
        {
          "internalType": "bool",
          "name": "_approve",
          "type": "bool"
        }
      ],
      "name": "approveRaffleResult",
      "outputs": [],
      "stateMutability": "nonpayable",
      "type": "function"
    },
    {
      "inputs": [
        {
          "internalType": "uint256",
          "name": "_raffleId",
          "type": "uint256"
        },
        {
          "internalType": "uint256",
          "name": "_quantity",
          "type": "uint256"
        }
      ],
      "name": "buyTickets",
      "outputs": [],
      "stateMutability": "nonpayable",
      "type": "function"
    },
    {
      "inputs": [],
      "name": "commissionWallet",
      "outputs": [
        {
          "internalType": "address",
          "name": "",
          "type": "address"
        }
      ],
      "stateMutability": "view",
      "type": "function"
    },
    {
      "inputs": [
        {
          "internalType": "string",
          "name": "_title",
          "type": "string"
        },
        {
          "internalType": "string",
          "name": "_description",
          "type": "string"
        },
        {
          "internalType": "uint256",
          "name": "_goalAmount",
          "type": "uint256"
        },
        {
          "internalType": "uint256",
          "name": "_duration",
          "type": "uint256"
        },
        {
          "internalType": "bool",
          "name": "_isUnlimited",
          "type": "bool"
        }
      ],
      "name": "createDonation",
      "outputs": [],
      "stateMutability": "nonpayable",
      "type": "function"
    },
    {
      "inputs": [
        {
          "internalType": "string",
          "name": "_title",
          "type": "string"
        },
        {
          "internalType": "string",
          "name": "_description",
          "type": "string"
        },
        {
          "internalType": "uint256",
          "name": "_prizeAmount",
          "type": "uint256"
        },
        {
          "internalType": "uint256",
          "name": "_ticketPrice",
          "type": "uint256"
        },
        {
          "internalType": "uint256",
          "name": "_maxTickets",
          "type": "uint256"
        },
        {
          "internalType": "uint256",
          "name": "_duration",
          "type": "uint256"
        },
        {
          "internalType": "enum DuxxanPlatformSimple.PrizeType",
          "name": "_prizeType",
          "type": "uint8"
        }
      ],
      "name": "createRaffle",
      "outputs": [],
      "stateMutability": "nonpayable",
      "type": "function"
    },
    {
      "inputs": [],
      "name": "deployWallet",
      "outputs": [
        {
          "internalType": "address",
          "name": "",
          "type": "address"
        }
      ],
      "stateMutability": "view",
      "type": "function"
    },
    {
      "inputs": [
        {
          "internalType": "uint256",
          "name": "",
          "type": "uint256"
        },
        {
          "internalType": "address",
          "name": "",
          "type": "address"
        }
      ],
      "name": "donationContributions",
      "outputs": [
        {
          "internalType": "uint256",
          "name": "",
          "type": "uint256"
        }
      ],
      "stateMutability": "view",
      "type": "function"
    },
    {
      "inputs": [],
      "name": "donationCounter",
      "outputs": [
        {
          "internalType": "uint256",
          "name": "",
          "type": "uint256"
        }
      ],
      "stateMutability": "view",
      "type": "function"
    },
    {
      "inputs": [
        {
          "internalType": "uint256",
          "name": "",
          "type": "uint256"
        }
      ],
      "name": "donations",
      "outputs": [
        {
          "internalType": "uint256",
          "name": "id",
          "type": "uint256"
        },
        {
          "internalType": "address",
          "name": "creator",
          "type": "address"
        },
        {
          "internalType": "string",
          "name": "title",
          "type": "string"
        },
        {
          "internalType": "string",
          "name": "description",
          "type": "string"
        },
        {
          "internalType": "uint256",
          "name": "goalAmount",
          "type": "uint256"
        },
        {
          "internalType": "uint256",
          "name": "currentAmount",
          "type": "uint256"
        },
        {
          "internalType": "uint256",
          "name": "endTime",
          "type": "uint256"
        },
        {
          "internalType": "uint8",
          "name": "flags",
          "type": "uint8"
        }
      ],
      "stateMutability": "view",
      "type": "function"
    },
    {
      "inputs": [
        {
          "internalType": "address",
          "name": "_token",
          "type": "address"
        },
        {
          "internalType": "uint256",
          "name": "_amount",
          "type": "uint256"
        }
      ],
      "name": "emergencyWithdraw",
      "outputs": [],
      "stateMutability": "nonpayable",
      "type": "function"
    },
    {
      "inputs": [
        {
          "internalType": "uint256",
          "name": "_raffleId",
          "type": "uint256"
        }
      ],
      "name": "endRaffle",
      "outputs": [],
      "stateMutability": "nonpayable",
      "type": "function"
    },
    {
      "inputs": [
        {
          "internalType": "uint256",
          "name": "_donationId",
          "type": "uint256"
        },
        {
          "internalType": "uint256",
          "name": "_amount",
          "type": "uint256"
        }
      ],
      "name": "makeDonation",
      "outputs": [],
      "stateMutability": "nonpayable",
      "type": "function"
    },
    {
      "inputs": [],
      "name": "owner",
      "outputs": [
        {
          "internalType": "address",
          "name": "",
          "type": "address"
        }
      ],
      "stateMutability": "view",
      "type": "function"
    },
    {
      "inputs": [],
      "name": "raffleCounter",
      "outputs": [
        {
          "internalType": "uint256",
          "name": "",
          "type": "uint256"
        }
      ],
      "stateMutability": "view",
      "type": "function"
    },
    {
      "inputs": [
        {
          "internalType": "uint256",
          "name": "",
          "type": "uint256"
        },
        {
          "internalType": "address",
          "name": "",
          "type": "address"
        }
      ],
      "name": "raffleTickets",
      "outputs": [
        {
          "internalType": "uint256",
          "name": "",
          "type": "uint256"
        }
      ],
      "stateMutability": "view",
      "type": "function"
    },
    {
      "inputs": [
        {
          "internalType": "uint256",
          "name": "",
          "type": "uint256"
        }
      ],
      "name": "raffles",
      "outputs": [
        {
          "internalType": "uint256",
          "name": "id",
          "type": "uint256"
        },
        {
          "internalType": "address",
          "name": "creator",
          "type": "address"
        },
        {
          "internalType": "string",
          "name": "title",
          "type": "string"
        },
        {
          "internalType": "string",
          "name": "description",
          "type": "string"
        },
        {
          "internalType": "uint256",
          "name": "prizeAmount",
          "type": "uint256"
        },
        {
          "internalType": "uint256",
          "name": "ticketPrice",
          "type": "uint256"
        },
        {
          "internalType": "uint256",
          "name": "maxTickets",
          "type": "uint256"
        },
        {
          "internalType": "uint256",
          "name": "ticketsSold",
          "type": "uint256"
        },
        {
          "internalType": "uint256",
          "name": "endTime",
          "type": "uint256"
        },
        {
          "internalType": "address",
          "name": "winner",
          "type": "address"
        },
        {
          "internalType": "enum DuxxanPlatformSimple.PrizeType",
          "name": "prizeType",
          "type": "uint8"
        },
        {
          "internalType": "uint8",
          "name": "flags",
          "type": "uint8"
        }
      ],
      "stateMutability": "view",
      "type": "function"
    },
    {
      "inputs": [],
      "name": "renounceOwnership",
      "outputs": [],
      "stateMutability": "nonpayable",
      "type": "function"
    },
    {
      "inputs": [
        {
          "internalType": "address",
          "name": "newOwner",
          "type": "address"
        }
      ],
      "name": "transferOwnership",
      "outputs": [],
      "stateMutability": "nonpayable",
      "type": "function"
    },
    {
      "inputs": [
        {
          "internalType": "address",
          "name": "_newWallet",
          "type": "address"
        }
      ],
      "name": "updateCommissionWallet",
      "outputs": [],
      "stateMutability": "nonpayable",
      "type": "function"
    }
  ],
  "bytecode": "0x60c0346200014057601f6200223238819003918201601f19168301916001600160401b038311848410176200014557808492604094855283398101031262000140576200005a602062000052836200015b565b92016200015b565b60016000553315620001275760018054336001600160a01b031980831682179093556040519492936001600160a01b0393909284929083167f8be0079c531659141344cd1fd0a4f28419497f9722a3daafe3b4186f6b6457e0600080a316608052169060025416176002553360a0526120c19081620001718239608051818181610362015281816107b501528181610b3201528181610d8801528181611143015281816115ab015281816119da01528181611a4e0152611b91015260a05181818161104401526116260152f35b604051631e4fbdf760e01b815260006004820152602490fd5b600080fd5b634e487b7160e01b600052604160045260246000fd5b51906001600160a01b0382168203620001405756fe608080604052600436101561001357600080fd5b60003560e01c90816304d38dd414611d2d5750806329c6f60c1461079557806331ae8abc1461181557806338d187dd146117f757806352fba8ef1461107357806353535db91461102e5780635d4bc0ce14610f44578063623560af14610cd157806366fab57c1461079a5780636aa42e4e14610cb5578063715018a614610c585780638627df4614610a8a5780638da5cb5b14610a6157806395ccea67146109e257806397c0262a146109b95780639def429d1461084a578063a9f8623a14610802578063c2f306a5146107e4578063c54e44eb1461079f578063cc0c30391461079a578063e444a27814610795578063ee2c18ba1461074d578063f29c940b146102bd578063f2fde38b14610234578063f33b5541146101f15763f8626af81461013d57600080fd5b346101ec5760203660031901126101ec5760043560005260046020526040600020805460018060a01b036001830154169161017a60028201611e1c565b61018660038301611e1c565b916004810154926101d36005830154916101c560ff600760068701549601541695604051998a998a5260208a01526101008060408b0152890190611ec2565b908782036060890152611ec2565b93608086015260a085015260c084015260e08301520390f35b600080fd5b346101ec5760203660031901126101ec5761020a611f41565b610212611f6d565b600280546001600160a01b0319166001600160a01b0392909216919091179055005b346101ec5760203660031901126101ec5761024d611f41565b610255611f6d565b6001600160a01b039081169081156102a457600154826001600160601b0360a01b821617600155167f8be0079c531659141344cd1fd0a4f28419497f9722a3daafe3b4186f6b6457e0600080a3005b604051631e4fbdf760e01b815260006004820152602490fd5b346101ec5760a03660031901126101ec576004356001600160401b0381116101ec576102ed903690600401611d8c565b6024356001600160401b0381116101ec5761030c903690600401611d8c565b60843580151581036101ec57610320611fcd565b6002546040516323b872dd60e01b81523360048201526001600160a01b03918216602482015268015af1d78b58c40000604482015290939060208160648160007f00000000000000000000000000000000000000000000000000000000000000008a165af1801561074157610712575b50600854918015610700576000905b156106f8576003905b604051946101008601938685106001600160401b038611176106225760ff94604052858752336020880152604087015260608601526044356080860152600060a086015260c08501521660e083015260005260046020526040600020918151835560018301906020830151166001600160601b0360a01b82541617905560408101519182516001600160401b038111610622576104486002830154611de2565b601f81116106b1575b506020601f82116001146106435781929394600092610638575b50508160011b916000199060031b1c19161760028201555b60608201518051906001600160401b038211610622576104a66003840154611de2565b601f81116105db575b50602090601f831160011461056457928260e09360079360ff96600092610559575b50508160011b916000199060031b1c19161760038201555b6080850151600482015560a0850151600582015560c08501516006820155019201511660ff1982541617905561054f6008546040516044358152817fdd17f6c68d84fb01706d9f9e9ed1a2267d9171bff4c61d024f503d6c9ccb931c60203393a3611fbe565b6008556001600055005b0151905087806104d1565b906003840160005260206000209160005b601f19851681106105c357508360079360ff969360019360e097601f198116106105aa575b505050811b0160038201556104e9565b015160001960f88460031b161c1916905587808061059a565b91926020600181928685015181550194019201610575565b600384016000526020600020601f840160051c81016020851061061b575b601f830160051c8201811061060f5750506104af565b600081556001016105f9565b50806105f9565b634e487b7160e01b600052604160045260246000fd5b01519050848061046b565b6002830160005260206000209060005b601f19841681106106995750600193949583601f19811610610680575b505050811b016002820155610483565b015160001960f88460031b161c19169055848080610670565b9091602060018192858a015181550193019101610653565b600283016000526020600020601f830160051c8101602084106106f1575b601f830160051c820181106106e5575050610451565b600081556001016106cf565b50806106cf565b6001906103a8565b61070c60643542611fb1565b9061039f565b6107339060203d60201161073a575b61072b8183611d6b565b810190611f99565b5084610390565b503d610721565b6040513d6000823e3d90fd5b346101ec5760403660031901126101ec57610766611f57565b600435600052600560205260406000209060018060a01b03166000526020526020604060002054604051908152f35b611d47565b611f25565b346101ec5760003660031901126101ec576040517f00000000000000000000000000000000000000000000000000000000000000006001600160a01b03168152602090f35b346101ec5760003660031901126101ec576020600754604051908152f35b346101ec5760403660031901126101ec5761081b611f57565b600435600052600660205260406000209060018060a01b03166000526020526020604060002054604051908152f35b346101ec5760203660031901126101ec5760043580600052600360205260406000209060098201805460a81c90610885600180841614611ff0565b600884015442108015906109a7575b1561096f5760018401546001600160a01b039290831633148015610962575b1561092c57815460ff60a81b191660fe9190911660021760a81b60ff60a81b161781557f3f8a70ebc2357528ffbd62df52804d67d18cb2dc04d8a034c9c932e982d2cf3791602091600491906007870154610917575b5416940154604051908152a3005b80546001600160a01b03191633178155610909565b60405162461bcd60e51b815260206004820152600e60248201526d139bdd08185d5d1a1bdc9a5e995960921b6044820152606490fd5b50826001541633146108b3565b60405162461bcd60e51b815260206004820152601060248201526f526166666c65206e6f7420726561647960801b6044820152606490fd5b50600784015460068501541115610894565b346101ec5760003660031901126101ec576002546040516001600160a01b039091168152602090f35b346101ec5760403660031901126101ec576109fb611f41565b610a03611f6d565b60015460405163a9059cbb60e01b81526001600160a01b03918216600482015260248035908201529160209183916044918391600091165af1801561074157610a4857005b610a5f9060203d811161073a5761072b8183611d6b565b005b346101ec5760003660031901126101ec576001546040516001600160a01b039091168152602090f35b346101ec57610a9836611f0f565b90610aa1611fcd565b806000526020600381526040600020610ac5600180600984015460a81c1614611ff0565b6008810154421015610c24576007810190610ae1858354611fb1565b600682015410610bea579082610aff866005610b2c96950154612030565b6040516323b872dd60e01b8152336004820152306024820152604481019190915293849081906064820190565b038160007f00000000000000000000000000000000000000000000000000000000000000006001600160a01b03165af1928315610741577fdbaaf4c87ce30816c961a81d110622a3227ede77953d4383d514ff88ab2e0fd393610bcd575b50836000526005825260406000203360005282526040600020610bae868254611fb1565b9055610bbb858254611fb1565b90556040519384523393a36001600055005b610be390833d851161073a5761072b8183611d6b565b5085610b8a565b60405162461bcd60e51b81526004810184905260126024820152714e6f7420656e6f756768207469636b65747360701b6044820152606490fd5b60405162461bcd60e51b815260048101839052600c60248201526b149859999b1948195b99195960a21b6044820152606490fd5b346101ec5760003660031901126101ec57610c71611f6d565b600180546001600160a01b031981169091556000906001600160a01b03167f8be0079c531659141344cd1fd0a4f28419497f9722a3daafe3b4186f6b6457e08280a3005b346101ec5760003660031901126101ec576020604051600a8152f35b346101ec57610cdf36611f0f565b90610ce8611fcd565b80600052602060048152604060002090600782015460018082161480610f3b575b15610f035760021615610ec3575b610d1f612043565b918460011b85810460021486151715610ead5760806064610db8920494610d4c858201968088528961207e565b910181905260018301546040516323b872dd60e01b8082523360048301526001600160a01b0392831660248301526044820193909352909590927f0000000000000000000000000000000000000000000000000000000000000000871691908690859081906064820190565b03816000865af1801561074157610e0c978795600092610e90575b50600254925160405195865233600487015292166001600160a01b03166024850152604484019190915291958692839182906064820190565b03925af1908115610741577fe555da28bdb778f65d22794d88927ebaeca03f7de9d1b7d39245bc8fb5ca078a93600592610e73575b50846000526006835260406000203360005283526040600020610e65878254611fb1565b905501610bbb858254611fb1565b610e8990843d861161073a5761072b8183611d6b565b5086610e41565b610ea690873d891161073a5761072b8183611d6b565b508b610dd3565b634e487b7160e01b600052601160045260246000fd5b60068201544210610d17576064906040519062461bcd60e51b82526004820152600e60248201526d111bdb985d1a5bdb88195b99195960921b6044820152fd5b60405162461bcd60e51b815260048101839052601060248201526f24b73b30b634b2103237b730ba34b7b760811b6044820152606490fd5b50841515610d09565b346101ec5760203660031901126101ec5760043560005260036020526020604060002080549060ff60018060a01b038060018401541690610f8760028501611e1c565b93610f9460038201611e1c565b946004820154956005830154610fea600685015492610fdc60078701549560096008890154980154996040519e8f9e8f908152015260408d61018091829101528d0190611ec2565b908b820360608d0152611ec2565b9760808a015260a089015260c088015260e087015261010086015281166101208501526110206101408501838360a01c16611f02565b60a81c166101608301520390f35b346101ec5760003660031901126101ec576040517f00000000000000000000000000000000000000000000000000000000000000006001600160a01b03168152602090f35b346101ec5760e03660031901126101ec576004356001600160401b0381116101ec576110a3903690600401611d8c565b6024356001600160401b0381116101ec576110c2903690600401611d8c565b600260c43510156101ec576110d5611fcd565b604435156117a6576064351561175557608435156117055760a435156116c05760c4351561161c575b6002546040516323b872dd60e01b81523360048201526001600160a01b03918216602482015268015af1d78b58c40000604482015290602090829060649082906000907f0000000000000000000000000000000000000000000000000000000000000000165af18015610741576115fd575b5060c43515611578575b6007549061118a60a43542611fb1565b9060405193846101808101106001600160401b036101808701111761062257610180850160405283855233602086015260408501526060840152604435608084015260643560a084015260843560c0840152600060e0840152610100830152600061012083015260c43561014083015260016101608301526000526003602052604060002090805182556001820160018060a01b036020830151166001600160601b0360a01b82541617905560408101519182516001600160401b038111610622576112596002830154611de2565b601f8111611531575b506020601f82116001146114c357819293946000926114b8575b50508160011b916000199060031b1c19161760028201555b60608201518051906001600160401b038211610622576112b76003840154611de2565b601f8111611471575b50602090601f83116001146113fe576009939291600091836113f3575b50508160011b916000199060031b1c19161760038201555b6080830151600482015560a0830151600582015560c0830151600682015560e0830151600782015561010083015160088201550160018060a01b03610120830151168154926101408101519060028210156113dd57610160015160ff60a81b199092166001600160b01b03199094169390931760a09390931b60ff60a01b169290921760a89290921b60ff60a81b169190911790556113d360075460405160443581526113a76020820160c435611f02565b817fc890c80dc6c21b947623ff0de3cbaf1a694c5d9f0aa6334eaecae1fb59fe960960403393a3611fbe565b6007556001600055005b634e487b7160e01b600052602160045260246000fd5b0151905085806112dd565b906003840160005260206000209160005b601f1985168110611459575091839160019360099695601f19811610611440575b505050811b0160038201556112f5565b015160001960f88460031b161c19169055858080611430565b9192602060018192868501518155019401920161140f565b600384016000526020600020601f840160051c8101602085106114b1575b601f830160051c820181106114a55750506112c0565b6000815560010161148f565b508061148f565b01519050848061127c565b6002830160005260206000209060005b601f19841681106115195750600193949583601f19811610611500575b505050811b016002820155611294565b015160001960f88460031b161c191690558480806114f0565b9091602060018192858a0151815501930191016114d3565b600283016000526020600020601f830160051c810160208410611571575b601f830160051c82018110611565575050611262565b6000815560010161154f565b508061154f565b6040516323b872dd60e01b8152336004820152306024820152604480359082015260208160648160006001600160a01b037f0000000000000000000000000000000000000000000000000000000000000000165af18015610741576115de575b5061117a565b6115f69060203d60201161073a5761072b8183611d6b565b50826115d8565b6116159060203d60201161073a5761072b8183611d6b565b5082611170565b60018060a01b03807f00000000000000000000000000000000000000000000000000000000000000001633149081156116b2575b506110fe5760405162461bcd60e51b815260206004820152602f60248201527f4f6e6c7920617574686f72697a65642077616c6c6574732063616e206372656160448201526e7465205553445420726166666c657360881b6064820152608490fd5b905060025416331483611650565b60405162461bcd60e51b815260206004820152601f60248201527f4475726174696f6e206d7573742062652067726561746572207468616e2030006044820152606490fd5b60405162461bcd60e51b815260206004820152602260248201527f4d6178207469636b657473206d7573742062652067726561746572207468616e604482015261020360f41b6064820152608490fd5b60405162461bcd60e51b815260206004820152602360248201527f5469636b6574207072696365206d75737420626520677265617465722074686160448201526206e20360ec1b6064820152608490fd5b60405162461bcd60e51b815260206004820152602360248201527f5072697a6520616d6f756e74206d75737420626520677265617465722074686160448201526206e20360ec1b6064820152608490fd5b346101ec5760003660031901126101ec576020600854604051908152f35b346101ec5760403660031901126101ec57602480359081151582036101ec57600435806000526020600381526040600020936009850190815460a81c600280821603611cf25760108116611cbc576001949596858060a01b039586910154163314600014611c78575015611c68576118ac600460ff835460a81c16175b825460ff60a81b191660a89190911b60ff60a81b16178255565b5482600c808360a81c16149182611c5c575b50506118c657005b826000526003815260406000209160098301805460a81c60108116611c2557815460ff60a81b191660ff9190911660101760a81b60ff60a81b1617815561190b612043565b9561191f6007860154600587015490612030565b808852600a810290808204600a1490151715611c1057606490049484880190868252603287029680880460321490151715611bfb57606460408a0197048752606061196d8a5184519061207e565b990198895283549260ff8460a01c16906002821015611be75750611b63576119d3925085858554166119a560048401548c5190611fb1565b60405163a9059cbb60e01b81526001600160a01b039092166004830152602482015293849081906044820190565b03816000897f0000000000000000000000000000000000000000000000000000000000000000165af192831561074157611a4793611b46575b505b600254875160405163a9059cbb60e01b8082529288166001600160a01b0316600482015260248101919091529390929084906044820190565b03918785887f00000000000000000000000000000000000000000000000000000000000000001694816000875af190811561074157611acc99886001611a9f938c99600096611b29575b50015416935190519061207e565b6040519485526001600160a01b039092166004850152602484019190915291968792839182906044820190565b03925af1938415610741577f5621778ab13fbf7130d91ae5035a140b79a6cfd120059c2ea0fec2a5ce6731a694611b0c575b5054169351604051908152a3005b611b2290843d861161073a5761072b8183611d6b565b5086611afe565b611b3f908b3d8d1161073a5761072b8183611d6b565b5038611a91565b611b5c90873d891161073a5761072b8183611d6b565b5089611a0c565b885160405163a9059cbb60e01b81529386166001600160a01b031660048501526024840152858360448160007f00000000000000000000000000000000000000000000000000000000000000008a165af192831561074157611a4793611bca575b50611a0e565b611be090873d891161073a5761072b8183611d6b565b5089611bc4565b634e487b7160e01b60009081526021600452fd5b82634e487b7160e01b60005260116004526000fd5b50634e487b7160e01b60009081526011600452fd5b60405162461bcd60e51b8152600481018590526010818901526f105b1c9958591e481c995b19585cd95960821b6044820152606490fd5b161515905082866118be565b6118ac60fb825460a81c16611892565b8460015416331460001461092c57611caf9115611cb45760ff16600817825460ff60a81b191660a89190911b60ff60a81b16178255565b6118ac565b60f716611892565b60405162461bcd60e51b815260048101859052600f818801526e14185e5bdd5d081c995b19585cd959608a1b6044820152606490fd5b60405162461bcd60e51b81526004810185905260148188015273149859999b19481b9bdd0818dbdb5c1b195d195960621b6044820152606490fd5b346101ec5760003660031901126101ec5780600260209252f35b346101ec5760003660031901126101ec57602060405168015af1d78b58c400008152f35b90601f801991011681019081106001600160401b0382111761062257604052565b81601f820112156101ec578035906001600160401b0382116106225760405192611dc0601f8401601f191660200185611d6b565b828452602083830101116101ec57816000926020809301838601378301015290565b90600182811c92168015611e12575b6020831014611dfc57565b634e487b7160e01b600052602260045260246000fd5b91607f1691611df1565b9060405191826000825492611e3084611de2565b908184526001948581169081600014611e9f5750600114611e5c575b5050611e5a92500383611d6b565b565b9093915060005260209081600020936000915b818310611e87575050611e5a93508201013880611e4c565b85548884018501529485019487945091830191611e6f565b915050611e5a94506020925060ff191682840152151560051b8201013880611e4c565b919082519283825260005b848110611eee575050826000602080949584010152601f8019910116010190565b602081830181015184830182015201611ecd565b9060028210156113dd5752565b60409060031901126101ec576004359060243590565b346101ec5760003660031901126101ec57602060405160328152f35b600435906001600160a01b03821682036101ec57565b602435906001600160a01b03821682036101ec57565b6001546001600160a01b03163303611f8157565b60405163118cdaa760e01b8152336004820152602490fd5b908160209103126101ec575180151581036101ec5790565b91908201809211610ead57565b6000198114610ead5760010190565b600260005414611fde576002600055565b604051633ee5aeb560e01b8152600490fd5b15611ff757565b60405162461bcd60e51b8152602060048201526011602482015270526166666c65206e6f742061637469766560781b6044820152606490fd5b81810292918115918404141715610ead57565b6040519060a082018281106001600160401b038211176106225760405260006080838281528260208201528260408201528260608201520152565b91908203918211610ead5756fea26469706673582212203e193ffbecf6d7dbad5607a5898196238fb1e5a3b34e23fe580938c85b06aaa964736f6c63430008140033",
  "linkReferences": {},
  "deployedLinkReferences": {}
}