{
  "_format": "hh-sol-artifact-1",
  "contractName": "DuxxanPlatformSimple",
  "sourceName": "contracts/DuxxanPlatform.sol",
  "abi": [
    {
      "inputs": [
        {
          "internalType": "address",
          "name": "_usdtToken",
          "type": "address"
        },
        {
          "internalType": "address",
          "name": "_commissionWallet",
          "type": "address"
        }
      ],
      "stateMutability": "nonpayable",
      "type": "constructor"
    },
    {
      "inputs": [
        {
          "internalType": "address",
          "name": "owner",
          "type": "address"
        }
      ],
      "name": "OwnableInvalidOwner",
      "type": "error"
    },
    {
      "inputs": [
        {
          "internalType": "address",
          "name": "account",
          "type": "address"
        }
      ],
      "name": "OwnableUnauthorizedAccount",
      "type": "error"
    },
    {
      "inputs": [],
      "name": "ReentrancyGuardReentrantCall",
      "type": "error"
    },
    {
      "anonymous": false,
      "inputs": [
        {
          "indexed": true,
          "internalType": "uint256",
          "name": "donationId",
          "type": "uint256"
        },
        {
          "indexed": true,
          "internalType": "address",
          "name": "creator",
          "type": "address"
        },
        {
          "indexed": false,
          "internalType": "uint256",
          "name": "goalAmount",
          "type": "uint256"
        }
      ],
      "name": "DonationCreated",
      "type": "event"
    },
    {
      "anonymous": false,
      "inputs": [
        {
          "indexed": true,
          "internalType": "uint256",
          "name": "donationId",
          "type": "uint256"
        },
        {
          "indexed": true,
          "internalType": "address",
          "name": "donor",
          "type": "address"
        },
        {
          "indexed": false,
          "internalType": "uint256",
          "name": "amount",
          "type": "uint256"
        }
      ],
      "name": "DonationMade",
      "type": "event"
    },
    {
      "anonymous": false,
      "inputs": [
        {
          "indexed": true,
          "internalType": "address",
          "name": "previousOwner",
          "type": "address"
        },
        {
          "indexed": true,
          "internalType": "address",
          "name": "newOwner",
          "type": "address"
        }
      ],
      "name": "OwnershipTransferred",
      "type": "event"
    },
    {
      "anonymous": false,
      "inputs": [
        {
          "indexed": true,
          "internalType": "uint256",
          "name": "raffleId",
          "type": "uint256"
        },
        {
          "indexed": true,
          "internalType": "address",
          "name": "winner",
          "type": "address"
        },
        {
          "indexed": false,
          "internalType": "uint256",
          "name": "amount",
          "type": "uint256"
        }
      ],
      "name": "PayoutReleased",
      "type": "event"
    },
    {
      "anonymous": false,
      "inputs": [
        {
          "indexed": true,
          "internalType": "uint256",
          "name": "raffleId",
          "type": "uint256"
        },
        {
          "indexed": true,
          "internalType": "address",
          "name": "creator",
          "type": "address"
        },
        {
          "indexed": false,
          "internalType": "uint256",
          "name": "prizeAmount",
          "type": "uint256"
        },
        {
          "indexed": false,
          "internalType": "enum DuxxanPlatformSimple.PrizeType",
          "name": "prizeType",
          "type": "uint8"
        }
      ],
      "name": "RaffleCreated",
      "type": "event"
    },
    {
      "anonymous": false,
      "inputs": [
        {
          "indexed": true,
          "internalType": "uint256",
          "name": "raffleId",
          "type": "uint256"
        },
        {
          "indexed": true,
          "internalType": "address",
          "name": "winner",
          "type": "address"
        },
        {
          "indexed": false,
          "internalType": "uint256",
          "name": "prizeAmount",
          "type": "uint256"
        }
      ],
      "name": "RaffleEnded",
      "type": "event"
    },
    {
      "anonymous": false,
      "inputs": [
        {
          "indexed": true,
          "internalType": "uint256",
          "name": "raffleId",
          "type": "uint256"
        },
        {
          "indexed": true,
          "internalType": "address",
          "name": "buyer",
          "type": "address"
        },
        {
          "indexed": false,
          "internalType": "uint256",
          "name": "quantity",
          "type": "uint256"
        }
      ],
      "name": "TicketPurchased",
      "type": "event"
    },
    {
      "inputs": [],
      "name": "CREATOR_SHARE",
      "outputs": [
        {
          "internalType": "uint256",
          "name": "",
          "type": "uint256"
        }
      ],
      "stateMutability": "view",
      "type": "function"
    },
    {
      "inputs": [],
      "name": "DONATION_COMMISSION_RATE",
      "outputs": [
        {
          "internalType": "uint256",
          "name": "",
          "type": "uint256"
        }
      ],
      "stateMutability": "view",
      "type": "function"
    },
    {
      "inputs": [],
      "name": "DONATION_CREATION_FEE",
      "outputs": [
        {
          "internalType": "uint256",
          "name": "",
          "type": "uint256"
        }
      ],
      "stateMutability": "view",
      "type": "function"
    },
    {
      "inputs": [],
      "name": "PLATFORM_SHARE",
      "outputs": [
        {
          "internalType": "uint256",
          "name": "",
          "type": "uint256"
        }
      ],
      "stateMutability": "view",
      "type": "function"
    },
    {
      "inputs": [],
      "name": "RAFFLE_COMMISSION_RATE",
      "outputs": [
        {
          "internalType": "uint256",
          "name": "",
          "type": "uint256"
        }
      ],
      "stateMutability": "view",
      "type": "function"
    },
    {
      "inputs": [],
      "name": "RAFFLE_CREATION_FEE",
      "outputs": [
        {
          "internalType": "uint256",
          "name": "",
          "type": "uint256"
        }
      ],
      "stateMutability": "view",
      "type": "function"
    },
    {
      "inputs": [],
      "name": "USDT",
      "outputs": [
        {
          "internalType": "contract IERC20",
          "name": "",
          "type": "address"
        }
      ],
      "stateMutability": "view",
      "type": "function"
    },
    {
      "inputs": [
        {
          "internalType": "uint256",
          "name": "_raffleId",
          "type": "uint256"
        },
        {
          "internalType": "bool",
          "name": "_approve",
          "type": "bool"
        }
      ],
      "name": "approveRaffleResult",
      "outputs": [],
      "stateMutability": "nonpayable",
      "type": "function"
    },
    {
      "inputs": [
        {
          "internalType": "uint256",
          "name": "_raffleId",
          "type": "uint256"
        },
        {
          "internalType": "uint256",
          "name": "_quantity",
          "type": "uint256"
        }
      ],
      "name": "buyTickets",
      "outputs": [],
      "stateMutability": "nonpayable",
      "type": "function"
    },
    {
      "inputs": [],
      "name": "commissionWallet",
      "outputs": [
        {
          "internalType": "address",
          "name": "",
          "type": "address"
        }
      ],
      "stateMutability": "view",
      "type": "function"
    },
    {
      "inputs": [
        {
          "internalType": "string",
          "name": "_title",
          "type": "string"
        },
        {
          "internalType": "string",
          "name": "_description",
          "type": "string"
        },
        {
          "internalType": "uint256",
          "name": "_goalAmount",
          "type": "uint256"
        },
        {
          "internalType": "uint256",
          "name": "_duration",
          "type": "uint256"
        },
        {
          "internalType": "bool",
          "name": "_isUnlimited",
          "type": "bool"
        }
      ],
      "name": "createDonation",
      "outputs": [],
      "stateMutability": "nonpayable",
      "type": "function"
    },
    {
      "inputs": [
        {
          "internalType": "string",
          "name": "_title",
          "type": "string"
        },
        {
          "internalType": "string",
          "name": "_description",
          "type": "string"
        },
        {
          "internalType": "uint256",
          "name": "_prizeAmount",
          "type": "uint256"
        },
        {
          "internalType": "uint256",
          "name": "_ticketPrice",
          "type": "uint256"
        },
        {
          "internalType": "uint256",
          "name": "_maxTickets",
          "type": "uint256"
        },
        {
          "internalType": "uint256",
          "name": "_duration",
          "type": "uint256"
        },
        {
          "internalType": "enum DuxxanPlatformSimple.PrizeType",
          "name": "_prizeType",
          "type": "uint8"
        }
      ],
      "name": "createRaffle",
      "outputs": [],
      "stateMutability": "nonpayable",
      "type": "function"
    },
    {
      "inputs": [],
      "name": "deployWallet",
      "outputs": [
        {
          "internalType": "address",
          "name": "",
          "type": "address"
        }
      ],
      "stateMutability": "view",
      "type": "function"
    },
    {
      "inputs": [
        {
          "internalType": "uint256",
          "name": "",
          "type": "uint256"
        },
        {
          "internalType": "address",
          "name": "",
          "type": "address"
        }
      ],
      "name": "donationContributions",
      "outputs": [
        {
          "internalType": "uint256",
          "name": "",
          "type": "uint256"
        }
      ],
      "stateMutability": "view",
      "type": "function"
    },
    {
      "inputs": [],
      "name": "donationCounter",
      "outputs": [
        {
          "internalType": "uint256",
          "name": "",
          "type": "uint256"
        }
      ],
      "stateMutability": "view",
      "type": "function"
    },
    {
      "inputs": [
        {
          "internalType": "uint256",
          "name": "",
          "type": "uint256"
        }
      ],
      "name": "donations",
      "outputs": [
        {
          "internalType": "uint256",
          "name": "id",
          "type": "uint256"
        },
        {
          "internalType": "address",
          "name": "creator",
          "type": "address"
        },
        {
          "internalType": "string",
          "name": "title",
          "type": "string"
        },
        {
          "internalType": "string",
          "name": "description",
          "type": "string"
        },
        {
          "internalType": "uint256",
          "name": "goalAmount",
          "type": "uint256"
        },
        {
          "internalType": "uint256",
          "name": "currentAmount",
          "type": "uint256"
        },
        {
          "internalType": "uint256",
          "name": "endTime",
          "type": "uint256"
        },
        {
          "internalType": "bool",
          "name": "isActive",
          "type": "bool"
        },
        {
          "internalType": "bool",
          "name": "isUnlimited",
          "type": "bool"
        }
      ],
      "stateMutability": "view",
      "type": "function"
    },
    {
      "inputs": [
        {
          "internalType": "address",
          "name": "_token",
          "type": "address"
        },
        {
          "internalType": "uint256",
          "name": "_amount",
          "type": "uint256"
        }
      ],
      "name": "emergencyWithdraw",
      "outputs": [],
      "stateMutability": "nonpayable",
      "type": "function"
    },
    {
      "inputs": [
        {
          "internalType": "uint256",
          "name": "_raffleId",
          "type": "uint256"
        }
      ],
      "name": "endRaffle",
      "outputs": [],
      "stateMutability": "nonpayable",
      "type": "function"
    },
    {
      "inputs": [
        {
          "internalType": "uint256",
          "name": "_donationId",
          "type": "uint256"
        },
        {
          "internalType": "uint256",
          "name": "_amount",
          "type": "uint256"
        }
      ],
      "name": "makeDonation",
      "outputs": [],
      "stateMutability": "nonpayable",
      "type": "function"
    },
    {
      "inputs": [],
      "name": "owner",
      "outputs": [
        {
          "internalType": "address",
          "name": "",
          "type": "address"
        }
      ],
      "stateMutability": "view",
      "type": "function"
    },
    {
      "inputs": [],
      "name": "raffleCounter",
      "outputs": [
        {
          "internalType": "uint256",
          "name": "",
          "type": "uint256"
        }
      ],
      "stateMutability": "view",
      "type": "function"
    },
    {
      "inputs": [
        {
          "internalType": "uint256",
          "name": "",
          "type": "uint256"
        },
        {
          "internalType": "address",
          "name": "",
          "type": "address"
        }
      ],
      "name": "raffleTickets",
      "outputs": [
        {
          "internalType": "uint256",
          "name": "",
          "type": "uint256"
        }
      ],
      "stateMutability": "view",
      "type": "function"
    },
    {
      "inputs": [
        {
          "internalType": "uint256",
          "name": "",
          "type": "uint256"
        }
      ],
      "name": "raffles",
      "outputs": [
        {
          "internalType": "uint256",
          "name": "id",
          "type": "uint256"
        },
        {
          "internalType": "address",
          "name": "creator",
          "type": "address"
        },
        {
          "internalType": "string",
          "name": "title",
          "type": "string"
        },
        {
          "internalType": "string",
          "name": "description",
          "type": "string"
        },
        {
          "internalType": "uint256",
          "name": "prizeAmount",
          "type": "uint256"
        },
        {
          "internalType": "uint256",
          "name": "ticketPrice",
          "type": "uint256"
        },
        {
          "internalType": "uint256",
          "name": "maxTickets",
          "type": "uint256"
        },
        {
          "internalType": "uint256",
          "name": "ticketsSold",
          "type": "uint256"
        },
        {
          "internalType": "uint256",
          "name": "endTime",
          "type": "uint256"
        },
        {
          "internalType": "bool",
          "name": "isActive",
          "type": "bool"
        },
        {
          "internalType": "bool",
          "name": "isCompleted",
          "type": "bool"
        },
        {
          "internalType": "address",
          "name": "winner",
          "type": "address"
        },
        {
          "internalType": "enum DuxxanPlatformSimple.PrizeType",
          "name": "prizeType",
          "type": "uint8"
        },
        {
          "internalType": "bool",
          "name": "creatorApproved",
          "type": "bool"
        },
        {
          "internalType": "bool",
          "name": "platformApproved",
          "type": "bool"
        },
        {
          "internalType": "bool",
          "name": "payoutReleased",
          "type": "bool"
        }
      ],
      "stateMutability": "view",
      "type": "function"
    },
    {
      "inputs": [],
      "name": "renounceOwnership",
      "outputs": [],
      "stateMutability": "nonpayable",
      "type": "function"
    },
    {
      "inputs": [
        {
          "internalType": "address",
          "name": "newOwner",
          "type": "address"
        }
      ],
      "name": "transferOwnership",
      "outputs": [],
      "stateMutability": "nonpayable",
      "type": "function"
    },
    {
      "inputs": [
        {
          "internalType": "address",
          "name": "_newWallet",
          "type": "address"
        }
      ],
      "name": "updateCommissionWallet",
      "outputs": [],
      "stateMutability": "nonpayable",
      "type": "function"
    }
  ],
  "bytecode": "0x60c0346200014057601f620023d238819003918201601f19168301916001600160401b038311848410176200014557808492604094855283398101031262000140576200005a602062000052836200015b565b92016200015b565b60016000553315620001275760018054336001600160a01b031980831682179093556040519492936001600160a01b0393909284929083167f8be0079c531659141344cd1fd0a4f28419497f9722a3daafe3b4186f6b6457e0600080a316608052169060025416176002553360a0526122619081620001718239608051818181610377015281816107fd01528181610b7a01528181610e07015281816111fb0152818161170201528181611b3701528181611b980152611ce9015260a0518181816110fa01526117c50152f35b604051631e4fbdf760e01b815260006004820152602490fd5b600080fd5b634e487b7160e01b600052604160045260246000fd5b51906001600160a01b0382168203620001405756fe608080604052600436101561001357600080fd5b60003560e01c90816304d38dd414611eba5750806329c6f60c146107dd57806331ae8abc146119b457806338d187dd1461199657806352fba8ef1461112957806353535db9146110e45780635d4bc0ce14610fbe578063623560af14610d6357806366fab57c146107e25780636aa42e4e14610d47578063715018a614610cea5780638627df4614610ad95780638da5cb5b14610ab057806395ccea6714610a3157806397c0262a14610a085780639def429d14610892578063a9f8623a1461084a578063c2f306a51461082c578063c54e44eb146107e7578063cc0c3039146107e2578063e444a278146107dd578063ee2c18ba14610795578063f29c940b146102cd578063f2fde38b14610244578063f33b5541146102015763f8626af81461013d57600080fd5b346101fc5760203660031901126101fc5760043560005260046020526040600020805460018060a01b036001830154169160ff61017c60028301611fab565b61018860038401611fab565b926004810154936101d26005830154916101c460076006860154950154956040519a8b9a8b5260208b01526101208060408c01528a0190612051565b9088820360608a0152612051565b94608087015260a086015260c0850152818116151560e085015260081c1615156101008301520390f35b600080fd5b346101fc5760203660031901126101fc5761021a6120d0565b6102226120fc565b600280546001600160a01b0319166001600160a01b0392909216919091179055005b346101fc5760203660031901126101fc5761025d6120d0565b6102656120fc565b6001600160a01b039081169081156102b457600154826001600160601b0360a01b821617600155167f8be0079c531659141344cd1fd0a4f28419497f9722a3daafe3b4186f6b6457e0600080a3005b604051631e4fbdf760e01b815260006004820152602490fd5b346101fc5760a03660031901126101fc5760043567ffffffffffffffff81116101fc576102fe903690600401611f1a565b60243567ffffffffffffffff81116101fc5761031e903690600401611f1a565b60843580151581036101fc576103326121a8565b6002546040516323b872dd60e01b81523360048201526001600160a01b03918216602482015268015af1d78b58c40000604482015290602090829060649082906000907f0000000000000000000000000000000000000000000000000000000000000000165af18015610789576103b19160009161075a575b50612140565b600854918115610748576000905b60405194610120860186811067ffffffffffffffff82111761067257604052848652336020870152604086015260608501526044356080850152600060a085015260c0840152600160e0840152151561010083015260005260046020526040600020815181556001810160018060a01b036020840151166001600160601b0360a01b825416179055604082015191825167ffffffffffffffff81116106725761046b6002840154611f71565b601f8111610701575b506020601f82116001146106935781929394600092610688575b50508160011b916000199060031b1c19161760028301555b606081015180519067ffffffffffffffff8211610672576104ca6003850154611f71565b601f811161062b575b50602090601f83116001146105b257938261010093600793610563976000926105a7575b50508160011b916000199060031b1c19161760038201555b6080840151600482015560a0840151600582015560c08401516006820155019161054b60e08201511515849060ff801983541691151516179055565b0151815461ff00191690151560081b61ff0016179055565b61059d6008546040516044358152817fdd17f6c68d84fb01706d9f9e9ed1a2267d9171bff4c61d024f503d6c9ccb931c60203393a3612199565b6008556001600055005b0151905087806104f7565b906003850160005260206000209160005b601f1985168110610613575083600793610563979360019361010097601f198116106105fa575b505050811b01600382015561050f565b015160001960f88460031b161c191690558780806105ea565b919260206001819286850151815501940192016105c3565b600385016000526020600020601f840160051c81016020851061066b575b601f830160051c8201811061065f5750506104d3565b60008155600101610649565b5080610649565b634e487b7160e01b600052604160045260246000fd5b01519050848061048e565b6002840160005260206000209060005b601f19841681106106e95750600193949583601f198116106106d0575b505050811b0160028301556104a6565b015160001960f88460031b161c191690558480806106c0565b9091602060018192858a0151815501930191016106a3565b600284016000526020600020601f830160051c810160208410610741575b601f830160051c82018110610735575050610474565b6000815560010161071f565b508061071f565b6107546064354261218c565b906103bf565b61077c915060203d602011610782575b6107748183611ef8565b810190612128565b856103ab565b503d61076a565b6040513d6000823e3d90fd5b346101fc5760403660031901126101fc576107ae6120e6565b600435600052600560205260406000209060018060a01b03166000526020526020604060002054604051908152f35b611ed4565b6120b4565b346101fc5760003660031901126101fc576040517f00000000000000000000000000000000000000000000000000000000000000006001600160a01b03168152602090f35b346101fc5760003660031901126101fc576020600754604051908152f35b346101fc5760403660031901126101fc576108636120e6565b600435600052600660205260406000209060018060a01b03166000526020526020604060002054604051908152f35b346101fc5760203660031901126101fc57600435806000526003602052604060002090600982018054906108c860ff83166121cb565b600884015442108015906109f6575b156109b15760018401546001600160a01b0392908316331480156109a4575b1561096e5761ffff191661010017815560078401547f3f8a70ebc2357528ffbd62df52804d67d18cb2dc04d8a034c9c932e982d2cf3792602092600492610949575b5460101c16940154604051908152a3005b805462010000600160b01b0319163360101b62010000600160b01b0316178155610938565b60405162461bcd60e51b815260206004820152600e60248201526d139bdd08185d5d1a1bdc9a5e995960921b6044820152606490fd5b50826001541633146108f6565b60405162461bcd60e51b815260206004820152601760248201527f526166666c65206e6f7420726561647920746f20656e640000000000000000006044820152606490fd5b506007840154600685015411156108d7565b346101fc5760003660031901126101fc576002546040516001600160a01b039091168152602090f35b346101fc5760403660031901126101fc57610a4a6120d0565b610a526120fc565b60015460405163a9059cbb60e01b81526001600160a01b03918216600482015260248035908201529160209183916044918391600091165af1801561078957610a9757005b610aae9060203d8111610782576107748183611ef8565b005b346101fc5760003660031901126101fc576001546040516001600160a01b039091168152602090f35b346101fc57610ae73661209e565b90610af06121a8565b806000526020600381526040600020610b0f60ff6009830154166121cb565b6008810154421015610cb6576007810190610b2b85835461218c565b600682015410610c715782610b47866005610b7494015461220b565b6040516323b872dd60e01b8152336004820152306024820152604481019190915291829081906064820190565b038160007f00000000000000000000000000000000000000000000000000000000000000006001600160a01b03165af190811561078957600091610c54575b5015610c1e57907fdbaaf4c87ce30816c961a81d110622a3227ede77953d4383d514ff88ab2e0fd391836000526005825260406000203360005282526040600020610bff86825461218c565b9055610c0c85825461218c565b90556040519384523393a36001600055005b60405162461bcd60e51b815260048101839052600e60248201526d14185e5b595b9d0819985a5b195960921b6044820152606490fd5b610c6b9150833d8511610782576107748183611ef8565b85610bb3565b60405162461bcd60e51b815260048101849052601c60248201527f4e6f7420656e6f756768207469636b65747320617661696c61626c65000000006044820152606490fd5b60405162461bcd60e51b815260048101839052600c60248201526b149859999b1948195b99195960a21b6044820152606490fd5b346101fc5760003660031901126101fc57610d036120fc565b600180546001600160a01b031981169091556000906001600160a01b03167f8be0079c531659141344cd1fd0a4f28419497f9722a3daafe3b4186f6b6457e08280a3005b346101fc5760003660031901126101fc576020604051600a8152f35b346101fc57610d713661209e565b90610d7a6121a8565b80600052602060048152604060002090600782015460ff811680610fb5575b15610f7d5760081c60ff1615610f3d575b8360011b84810460021485151715610f27576064900491610e36610dce848761221e565b60018301546040516323b872dd60e01b8082523360048301526001600160a01b03928316602483015260448201939093529095909290917f00000000000000000000000000000000000000000000000000000000000000008716918690859081906064820190565b03816000865af1801561078957610e86978795600092610f0a575b50600254604051938452336004850152166001600160a01b031660248301526044820193909352958692839182906064820190565b03925af1908115610789577fe555da28bdb778f65d22794d88927ebaeca03f7de9d1b7d39245bc8fb5ca078a93600592610eed575b50846000526006835260406000203360005283526040600020610edf87825461218c565b905501610c0c85825461218c565b610f0390843d8611610782576107748183611ef8565b5086610ebb565b610f2090873d8911610782576107748183611ef8565b508b610e51565b634e487b7160e01b600052601160045260246000fd5b60068201544210610daa576064906040519062461bcd60e51b82526004820152600e60248201526d111bdb985d1a5bdb88195b99195960921b6044820152fd5b60405162461bcd60e51b815260048101839052601060248201526f24b73b30b634b2103237b730ba34b7b760811b6044820152606490fd5b50841515610d99565b346101fc5760203660031901126101fc576004356000908152600360205260409020805460018201546001600160a01b03908116929061100060028301611fab565b61100c60038401611fab565b92600481015493600582015460068301549061106360078501549361105560096008880154970154976040519c8d9c8d5260208d015260408c61020091829101528c0190612051565b908a820360608c0152612051565b96608089015260a088015260c087015260e086015261010085015260ff918282161515610120860152828260081c1615156101408601528160101c166101608501526110b86101808501838360b01c16612091565b818160b81c1615156101a0850152818160c01c1615156101c085015260c81c1615156101e08301520390f35b346101fc5760003660031901126101fc576040517f00000000000000000000000000000000000000000000000000000000000000006001600160a01b03168152602090f35b346101fc5760e03660031901126101fc5760043567ffffffffffffffff81116101fc5761115a903690600401611f1a565b60243567ffffffffffffffff81116101fc5761117a903690600401611f1a565b600260c43510156101fc5761118d6121a8565b6044351561194557606435156118f457608435156118a45760a4351561185f5760c435156117bb575b6002546040516323b872dd60e01b81523360048201526001600160a01b03918216602482015268015af1d78b58c40000604482015290602090829060649082906000907f0000000000000000000000000000000000000000000000000000000000000000165af18015610789576112349160009161179c5750612140565b60c435156116cf575b6007549061124d60a4354261218c565b90604051938461020081011067ffffffffffffffff6102008701111761067257610200850160405283855233602086015260408501526060840152604435608084015260643560a084015260843560c0840152600060e084015261010083015260016101208301526000610140830152600061016083015260c43561018083015260006101a083015260006101c083015260006101e08301526000526003602052604060002090805182556001820160018060a01b036020830151166001600160601b0360a01b825416179055604081015191825167ffffffffffffffff81116106725761133e6002830154611f71565b601f8111611688575b506020601f821160011461161a578192939460009261160f575b50508160011b916000199060031b1c19161760028201555b606082015180519067ffffffffffffffff82116106725761139d6003840154611f71565b601f81116115c8575b50602090601f83116001146115555760099392916000918361154a575b50508160011b916000199060031b1c19161760038201555b6080830151600482015560a0830151600582015560c0830151600682015560e083015160078201556101008301516008820155019061142d6101208201511515839060ff801983541691151516179055565b610140810151825461ff00191690151560081b61ff0016178255610160810151825462010000600160b01b03191660109190911b62010000600160b01b03161782556101808101519060028210156115345782546101a08201516101c08301516101e09093015192151560c01b60ff60c01b1690151560b81b60ff60b81b1660b09490941b60ff60b01b1663ffffffff60b01b1990921691909117929092179190911790151560c81b60ff60c81b16179055600754604051604435815261152a91906114fe6020820160c435612091565b817fc890c80dc6c21b947623ff0de3cbaf1a694c5d9f0aa6334eaecae1fb59fe960960403393a3612199565b6007556001600055005b634e487b7160e01b600052602160045260246000fd5b0151905085806113c3565b906003840160005260206000209160005b601f19851681106115b0575091839160019360099695601f19811610611597575b505050811b0160038201556113db565b015160001960f88460031b161c19169055858080611587565b91926020600181928685015181550194019201611566565b600384016000526020600020601f840160051c810160208510611608575b601f830160051c820181106115fc5750506113a6565b600081556001016115e6565b50806115e6565b015190508480611361565b6002830160005260206000209060005b601f19841681106116705750600193949583601f19811610611657575b505050811b016002820155611379565b015160001960f88460031b161c19169055848080611647565b9091602060018192858a01518155019301910161162a565b600283016000526020600020601f830160051c8101602084106116c8575b601f830160051c820181106116bc575050611347565b600081556001016116a6565b50806116a6565b6040516323b872dd60e01b8152336004820152306024820152604480359082015260208160648160006001600160a01b037f0000000000000000000000000000000000000000000000000000000000000000165af19081156107895760009161177d575b5061123d5760405162461bcd60e51b815260206004820152601c60248201527f5072697a6520616d6f756e74207472616e73666572206661696c6564000000006044820152606490fd5b611796915060203d602011610782576107748183611ef8565b83611733565b6117b5915060203d602011610782576107748183611ef8565b846103ab565b60018060a01b03807f0000000000000000000000000000000000000000000000000000000000000000163314908115611851575b506111b65760405162461bcd60e51b815260206004820152602f60248201527f4f6e6c7920617574686f72697a65642077616c6c6574732063616e206372656160448201526e7465205553445420726166666c657360881b6064820152608490fd5b9050600254163314836117ef565b60405162461bcd60e51b815260206004820152601f60248201527f4475726174696f6e206d7573742062652067726561746572207468616e2030006044820152606490fd5b60405162461bcd60e51b815260206004820152602260248201527f4d6178207469636b657473206d7573742062652067726561746572207468616e604482015261020360f41b6064820152608490fd5b60405162461bcd60e51b815260206004820152602360248201527f5469636b6574207072696365206d75737420626520677265617465722074686160448201526206e20360ec1b6064820152608490fd5b60405162461bcd60e51b815260206004820152602360248201527f5072697a6520616d6f756e74206d75737420626520677265617465722074686160448201526206e20360ec1b6064820152608490fd5b346101fc5760003660031901126101fc576020600854604051908152f35b346101fc5760403660031901126101fc57602480359081151582036101fc5760043590816000526020600381526040600020936009850180549160ff92838160081c1615611e7f5760c81c8316611e3b57600196909601546001600160a01b0396903390881603611dcc57815460ff60b81b191690151560b81b60ff60b81b161781555b5485828260b81c169182611dbe575b82611daf575b5050611a5557005b836000526003825260406000209460098601918254818160c81c16611d785760ff60c81b1916600160c81b1780845560078801546005890154919291611a9a9161220b565b91600a8302838104600a1484151715611d63576064900496603288029388850460321489151715611d4e5788611acf9161221e565b928260b01c16906002821015611d3a575086918591611cb4575091611b02611b3093875460101c169160048c015461218c565b60405163a9059cbb60e01b81526001600160a01b039092166004830152602482015291829081906044820190565b03816000877f0000000000000000000000000000000000000000000000000000000000000000165af1801561078957611c97575b505b60025460405163a9059cbb60e01b8082529184166001600160a01b0316600482015260649092046024830181905291957f000000000000000000000000000000000000000000000000000000000000000084169086886044816000865af1801561078957611be988958760018e611c169d600096611c7a575b500154169361221e565b6040519485526001600160a01b039092166004850152602484019190915291968792839182906044820190565b03925af1918215610789577f5621778ab13fbf7130d91ae5035a140b79a6cfd120059c2ea0fec2a5ce6731a694600493611c5d575b505460101c16940154604051908152a3005b611c7390853d8711610782576107748183611ef8565b5087611c4b565b611c90908b3d8d11610782576107748183611ef8565b5038611bdf565b611cad90853d8711610782576107748183611ef8565b5087611b64565b60405163a9059cbb60e01b815260109190911c919091166001600160a01b0316600482015260248101929092528160448160007f000000000000000000000000000000000000000000000000000000000000000088165af1801561078957611d1d575b50611b66565b611d3390853d8711610782576107748183611ef8565b5087611d17565b634e487b7160e01b60009081526021600452fd5b50634e487b7160e01b60009081526011600452fd5b87634e487b7160e01b60005260116004526000fd5b60405162461bcd60e51b8152600481018690526010818801526f105b1c9958591e481c995b19585cd95960821b6044820152606490fd5b60101c16151590508587611a4d565b9150828260c01c1691611a47565b86600154163314600014611df757815460ff60c01b191690151560c01b60ff60c01b16178155611a38565b60405162461bcd60e51b8152600481018590526019818701527f4e6f7420617574686f72697a656420746f20617070726f7665000000000000006044820152606490fd5b60405162461bcd60e51b8152600481018590526017818701527f5061796f757420616c72656164792072656c65617365640000000000000000006044820152606490fd5b60405162461bcd60e51b81526004810186905260148188015273149859999b19481b9bdd0818dbdb5c1b195d195960621b6044820152606490fd5b346101fc5760003660031901126101fc5780600260209252f35b346101fc5760003660031901126101fc57602060405168015af1d78b58c400008152f35b90601f8019910116810190811067ffffffffffffffff82111761067257604052565b81601f820112156101fc5780359067ffffffffffffffff82116106725760405192611f4f601f8401601f191660200185611ef8565b828452602083830101116101fc57816000926020809301838601378301015290565b90600182811c92168015611fa1575b6020831014611f8b57565b634e487b7160e01b600052602260045260246000fd5b91607f1691611f80565b9060405191826000825492611fbf84611f71565b90818452600194858116908160001461202e5750600114611feb575b5050611fe992500383611ef8565b565b9093915060005260209081600020936000915b818310612016575050611fe993508201013880611fdb565b85548884018501529485019487945091830191611ffe565b915050611fe994506020925060ff191682840152151560051b8201013880611fdb565b919082519283825260005b84811061207d575050826000602080949584010152601f8019910116010190565b60208183018101518483018201520161205c565b9060028210156115345752565b60409060031901126101fc576004359060243590565b346101fc5760003660031901126101fc57602060405160328152f35b600435906001600160a01b03821682036101fc57565b602435906001600160a01b03821682036101fc57565b6001546001600160a01b0316330361211057565b60405163118cdaa760e01b8152336004820152602490fd5b908160209103126101fc575180151581036101fc5790565b1561214757565b60405162461bcd60e51b815260206004820152601c60248201527f4372656174696f6e20666565207472616e73666572206661696c6564000000006044820152606490fd5b91908201809211610f2757565b6000198114610f275760010190565b6002600054146121b9576002600055565b604051633ee5aeb560e01b8152600490fd5b156121d257565b60405162461bcd60e51b8152602060048201526011602482015270526166666c65206e6f742061637469766560781b6044820152606490fd5b81810292918115918404141715610f2757565b91908203918211610f275756fea2646970667358221220028b1a503fcc7c59b0137f9827989ecc2de71334e4eb63ada4cd73887ffe245e64736f6c63430008140033",
  "linkReferences": {},
  "deployedLinkReferences": {}
}